:020000040800F2
:10000000D83700209901000897250008511F0008E3
:1000100095250008110A00083D2A0008000000008C
:1000200000000000000000000000000001010008C6
:10003000130A00080000000045010008C52500085B
:10004000B3010008B3010008B3010008B3010008C0
:10005000B3010008B3010008B3010008B3010008B0
:10006000B3010008B3010008B3010008B3010008A0
:10007000B3010008B3010008B3010008B301000890
:10008000B3010008B3010008B3010008B301000880
:10009000B3010008B3010008B3010008B301000870
:1000A000B30100088D260008B3010008B301000861
:1000B000B3010008B3010008B3010008B301000850
:1000C000B3010008B3010008B3010008B301000840
:1000D000B3010008B3010008B3010008B301000830
:1000E000150A0008B3010008B3010008DFF80CD0BE
:1000F00000F0D8FB00480047A5430008D83700208F
:10010000224B19680868B0E8F00F80F30988BFF344
:100110006F8F4FF0000080F311884EF00D0E704786
:100120000000000006480068006880F3088862B696
:1001300061B6BFF34F8FBFF36F8F00DF00BF00BF0B
:1001400008ED00E0EFF30980BFF36F8F0F4B1A68E3
:1001500020E9F00F106008B54FF0500080F31188CF
:10016000BFF34F8FBFF36F8F05F052F94FF00000D0
:1001700080F31188BDE8084019680868B0E8F00FFE
:1001800080F30988BFF36F8F704700BF9000002095
:10019000EFF3058070470000064880470648004797
:1001A000FEE7FEE7FEE7FEE7FEE7FEE7FEE7FEE727
:1001B000FEE7FEE745260008ED000008202A04DBE4
:1001C000203A21FA02F00021704721FA02F3D040D0
:1001D000C2F12002914008431946704740EA0103EA
:1001E0009B0703D009E008C9121F08C0042AFAD2ED
:1001F00003E011F8013B00F8013B521EF9D27047B1
:10020000F0B480EA0102D40F4200B2EB410F02D2F7
:100210000246084611464A0042D0C30DDDB2C1F382
:10022000C752AD1A202D35DAC1F3160141F4000290
:1002300004B15242C5F1200602FA06F12A411044E7
:10024000B3EBD05F23D0C4B1012DA0EBC35009DCC8
:10025000F0BC4FF0004202EAC352DBB200F50000EE
:1002600000F03AB9400000F1807000EBC350A0F1FB
:10027000807040EAD170490009E0490841EAC07144
:10028000A0EBC35000F50000400800EBC350F0BCE9
:1002900000F019B96142012202EB4101001BF6E7AF
:1002A000F0BC704781F00041AAE780F00040A7E76A
:1002B00080EA010210B502F00043400022D04A005B
:1002C0001FD0010E01EB1261C0F35600C2F35602BB
:1002D00040F4000042F40002A0FB022000047F3939
:1002E000140400D0401C50EA124001D44000491EC2
:1002F000C2B20C0604EBD010401C4008802A02D089
:1003000003E0002010BD20F00100002900DA0020E9
:10031000184310BD30B480EA010202F0004530F00D
:10032000004221F0004013D090B1C30DD40DC2F3B0
:100330001601C0F31600E41A41F4000140F4000273
:100340007D34914201D3641C00E04900002C02DAA4
:1003500030BC002070474FF400000023914201D3CD
:10036000891A034340084FEA4101F7D151B1914244
:1003700002D14FF0004105E002D24FF0010101E04F
:100380006FF0010103EBC450284430BC00F09BB86F
:10039000C10F80EAE0700844CA079623002100F0EC
:1003A0009BB896230022114600F096B820F000403A
:1003B000C10DC0F3160040F400007F2901DA0020CF
:1003C0007047962903DCC1F19601C8407047963901
:1003D0008840704770B5C1F30A5201F0004500240F
:1003E000C1F3130140F2FF3341F480119A4201DA64
:1003F000002070BD40F233439A42A2F2334203DC44
:100400005242FFF7DBFE00E090402C43F1D0404227
:1004100070BD00F0004230F000400AD0C10D01F57F
:100420006071C0F3160042EA0151C208400711434F
:10043000704700200146704730B50B46014600204A
:100440002022012409E021FA02F59D4205D303FA96
:1004500002F5491B04FA02F52844151EA2F1010217
:10046000F1DC30BD2DE9F05F0546002092469B4649
:1004700088460646814640241BE0284641464746BA
:100480002246FFF79BFE53465A46C01A914110D3AD
:1004900011461846224600F017FA2D1A67EB01089C
:1004A0004F4622460120002100F00EFA17EB00090A
:1004B0004E41201EA4F10104DFDC484631462A46A5
:1004C0004346BDE8F09F0029A8BF7047401C490083
:1004D00008BF20F00100704710B4B0FA80FC00FAA9
:1004E0000CF050EA010404BF10BC704749B1CCF1D4
:1004F000200421FA04F411FA0CF118BF0121214360
:100500000843A3EB0C01CB1D4FEA00614FEA10201A
:1005100042BF002010BC704700EBC35010440029BC
:10052000A4BF10BC7047401C490008BF20F0010068
:1005300010BC70472DE9FE4F804681EA0300C00FD2
:100540000C46009021F0004123F00045B8EB02007A
:10055000A94105D24046214690461C460B4602461C
:1005600023F00040104347D0270DC7F30A00C3F320
:100570000A510290401A019040286BDAC3F313002D
:1005800040F4801B0098924620B10023D2EB030A6E
:1005900063EB0B0B01985946C0F14002504600F046
:1005A00093F906460D4650465946019A00F09BF9CC
:1005B00010EB08006141002487EA115284EAE773D6
:1005C0001A4340D0009A62B3019A012A4FEA0752B7
:1005D00015DC001B61EB02014FF0004202EA0752FA
:1005E000CDE90042001C41F5801132462B4600F057
:1005F0009BF903B0BDE8F08F40462146F9E7001BA8
:1006000061EB0201001C41F5801300185B412018CA
:10061000A2F5001747EB030140EAD570B6196D410A
:1006200011E06D084FEA360645EAC0754FEA0752F9
:10063000001B61EB0201001C41F5801149084FEAE3
:1006400030000019514132462B4603B0BDE8F04F4F
:1006500000F05BB90098012240000023D0EB0202B9
:1006600063EBE073009821464FEAE074B8EB0000BA
:1006700061EB0401E9E783F000435BE781F00041AF
:1006800058E72DE9FE4F81EA030404F0004421F00D
:10069000004100944FF0000B23F0004350EA0104A6
:1006A0005ED052EA03045BD0C3F30A54C1F30A5587
:1006B0002C44A4F2F3340194A0FB0254C1F31301BF
:1006C00041F48011C3F3130343F4801301FB02448C
:1006D00000FB034E840A970A44EA815447EA835791
:1006E000A4FB076802958D0A05FB07854FEA932C4A
:1006F00004FB0C542705029D4FEA065847EA1637BB
:10070000B5EB08056EEB070C870E920E47EA8117D2
:1007100042EA8312A7FB0201B6EB0B0164EB000473
:100720002B0D43EA0C335E1844EB1C50DA4651465D
:10073000E7FB0201C5F313044FEA0B3343EA1453FA
:100740004FEA0432019C43EA0603A4F10C0402942C
:10075000009CCDE900B400F0E7F803B0BDE8F08FED
:1007600000200146F9E72DE9F04D81EA030404F089
:10077000004B21F0004514464FF0000A23F00041E1
:1007800050EA050220D054EA01021DD0C5F30A57F1
:100790000246C5F31303C1F31300C1F30A5640F434
:1007A000801543F48013A7EB0608101BD64608F209
:1007B000FD3873EB050002D308F1010801E092183F
:1007C0005B41B8F1000F03DA00200146BDE8F08D6F
:1007D00000204FF48011064684460EE0171B73EB91
:1007E000050705D3121B63EB050306434CEA010C16
:1007F00049084FEA300092185B4150EA0107EDD1F9
:1008000052EA030012D082EA040083EA0501084399
:1008100005D0101BAB4106D20122002306E00022C6
:100820004FF0004302E06FF0010253101AEB060094
:100830004CEB085110EB0A0041EB0B01BDE8F04D09
:1008400000F063B8C1F30A52C1F3130140F2FF3361
:1008500041F480119A4202DA00200146704740F2CA
:1008600033439A42A2F2334202DC5242FFF7A6BC63
:1008700000F02AB830B5041E71F1000404DB4FF01B
:100880000044404264EB0101141E73F1000405DBD7
:100890001C464FF00043524263EB0403994208BFE9
:1008A000904230BD064C074D06E0E06840F0010381
:1008B00094E8070098471034AC42F6D3FFF71AFCCF
:1008C000086F0008286F0008202A04DB203A00FA8D
:1008D00002F1002070479140C2F1200320FA03F397
:1008E000194390407047202A06DBCB17203A41FA83
:1008F00002F043EAE07306E041FA02F3D040C2F1AD
:100900002002914008431946704710B5141E73F138
:10091000000408DA401C41F1000192185B411A43BF
:1009200001D120F0010010BD2DE9F04D92469B460B
:1009300011B1B1FA81F202E0B0FA80F220329046B1
:10094000FFF7C2FF04460F4640EA0A0041EA0B01E6
:1009500053465A46084313D0114653EA010019D0B2
:10096000C8F140025046FFF729FC05460E465046A6
:1009700059464246FFF7A8FF084305D0012004E08E
:1009800020463946BDE8F08D0020054346EAE07672
:100990002C4337430A986305E40AA0EB08000022C1
:1009A000FD0A44EA47540A3002D500200146E9E72F
:1009B000010510196941DDE9084500196941BDE8E3
:1009C000F04DA2E770B5044600688168C943C907C5
:1009D0001CD1816821F00101816000F049FA0546CF
:1009E0000FE000BF00F044FA401B022809D9A06ABA
:1009F00040F01000A062E06A40F00100E0620120D7
:100A000070BD20688068C043C007EBD0002070BD77
:100A1000FEE770474FF4004000F036B9F8B5002407
:100A2000009490F824202546012A12D0012280F853
:100A300024204A681F23072A0DD20668776B521EAE
:100A400002EB820293409F430B6893401F437763FE
:100A500019E00220F8BD06680D2A0AD2376BD21FB2
:100A600002EB820293409F430B6893401F4337631E
:100A700009E0F76A0D3A02EB820293409F430B684C
:100A800093401F43F7620A68072306680A2A0AD3BD
:100A9000F7680A3A02EB420293409F438B68934007
:100AA0001F43F76008E0376902EB420293409F431F
:100AB0008B6893401F4337610A68102A01D0112ABE
:100AC00020D1124B02689A4217D193681B0219D4A5
:100AD000936843F4000393600968102912D10C490C
:100AE0000C4A0968B1FBF2F101EB8101490000E019
:100AF000491E00910029FBD104E0816A41F02001E8
:100B00008162012480F824502046F8BD0024014071
:100B10006800002040420F002DE9F0414FF000072F
:100B200004003D467ED0A06A002628B9E66284F81B
:100B30002460204600F07EF82046FFF743FFA16ABC
:100B4000C90600D420B1A06A40F01000A06269E09C
:100B5000A16A21F4885141F00201A1626268E16951
:100B6000E3680A4347EA43010A43A1684FF48077E8
:100B7000B94209D0012907D05FF00001D4F814C0B0
:100B8000BCF1010F02D00AE03946F7E7F3B1A36ADE
:100B900043F02003A362E36A43F00103E3622368A6
:100BA000D3F804C02CF4694C4CEA010CC3F804C01F
:100BB00021688B68DFF870C003EA0C0313438B6075
:100BC000A168B9420BD0012909D00CE0DFF85CC064
:100BD000A3690CEB43330B4343F40061DFE7218A45
:100BE0000D05A5F580152168CB6A23F470032B430E
:100BF000CB62216889680E4B1940914208D1E662A8
:100C0000A16A21F0020141F00101A162BDE8F08179
:100C1000A06A20F0020040F01000A062E06A40F0FC
:100C20000100E0620120F1E7FDF7E1FF00E0FFFFD6
:100C3000FE0E1FFF10B500680E4986B0884217D11E
:100C40000D48816941F4007181618069032400F4D9
:100C5000007004901020CDE900046946074800F0B8
:100C60001FF80220CDE900046946054800F018F895
:100C700006B010BD002401400010024000080140F1
:100C8000000C014070470000044910B50A68024298
:100C900002D00860FFF7F6FF10BD00001404014009
:100CA0002DE9F84FDFF890A100220AF1040B144659
:100CB00001274FF00F090BF1040E00BF0B6807FA74
:100CC00004F52B40AB4274D1DFF870C14E68A6EB3F
:100CD0000C0866452BD00DDC032E34D005DC36B372
:100CE000012E19D0022E2FD11BE0112E16D0122E5C
:100CF0002AD119E0B8F5881F19D006DCB8F5803F75
:100D000015D0B8F5801F1FD111E0B8F5001F0ED027
:100D1000B8F5041F18D10AE0CA6815E0CA68121DA8
:100D200012E0CA6808320FE0CA680C320CE08A6828
:100D30002AB1012A4FF0080203D0456104E00422E1
:100D400002E0056100E00022FF2B01D8064601E029
:100D500000F104064FEA840501D9A5F12005D6F873
:100D600000C009FA05F82CEA080C02FA05F54CEA6D
:100D7000050CC6F800C04D68ED0057D5304DAE6982
:100D800046F00106AE61AD6924F0030605F00105E9
:100D900000952C4D06EB050CDCF80850A6074FEA31
:100DA000167809FA08F6B543274EB04202D100265C
:100DB00010E03BE0254EB04201D101260AE0244E6E
:100DC000B04201D1022605E0224EB04201D10326F5
:100DD00000E0042606FA08F62E43CCF808604D68B9
:100DE000DAF80060ED03554601D51E4300E09E434E
:100DF0002E604D68DBF80060AD035D4601D51E43F3
:100E000000E09E432E604D68DEF80060ED027546FE
:100E100001D51E4300E09E432E604D68AD020E4D8D
:100E20002E6801D51E4300E09E432E60641C102CEA
:100E3000FFF444AFBDE8F88F00040140000011103A
:100E4000001002400000014000080140000C014079
:100E500000100140001401400C040140806808406B
:100E600000D0012070470AB1016170470904FBE717
:100E700001488068704700005C00002070B50400E5
:100E80001BD094F83D00002520B984F83C50204642
:100E900000F032F9242084F83D002068016821F038
:100EA0000101016000F06AFB404A6168914201D88B
:100EB0003F4900E03F49884201D2012070BD3E49D0
:100EC0002368B0FBF1F159606368934206D94FF48F
:100ED000967359434FF47A73B1FBF3F12368491CBD
:100EE00019626168914210D84900401EB0FBF1F2CE
:100EF000521CC2F30B02042A01D2042022E0B0FBF0
:100F0000F1F0401CC0F30B001CE0A368CBB301EB75
:100F1000C10202EB0116421EB2FBF6F2521C42F471
:100F20008042120536D06BB301EBC10202EB011116
:100F3000401EB0FBF1F0401CC0F30B0040F48040B9
:100F400040F400402168C861D4E9070108432168E2
:100F50000860D4E90310084321688860D4E90501DA
:100F600008432168C8602068016841F00101016000
:100F70002564202084F83D00256384F83E5000203D
:100F800070BD00E008E001EB4106421EB2FBF6F244
:100F9000521CC6E70120D5E701EB4101401EB0FB22
:100FA000F1F0401CC0F30B00CAE70000A08601006E
:100FB00080841E0000093D0040420F002DE9FF4FD4
:100FC00083B09A46DDE9118793460446DDF84090E8
:100FD000FFF74EFF064694F83D0020287DD11923E7
:100FE000012243492046009601F03FF800287CD1B9
:100FF00094F83C00012878D0012084F83C00206857
:101000000168C90703D1016841F00101016020684E
:10101000016821F400610160212084F83D00402036
:1010200084F83E0000252564C4F82490A4F82A80A2
:101030003048E062608D2085CDE9007653465A46FF
:101040002046049900F09AFF80B3206C84F83C504D
:10105000042848D008E032463946204601F07AF8A4
:1010600030B1206C042839D0032007B0BDE8F08FE0
:10107000606A411C6162216800780861208D401E11
:1010800080B22085618D491E618521684A69D243FD
:1010900052070BD468B1606A421C62620078086132
:1010A000208D401E2085608D401E6085208D00288B
:1010B000D1D132463946204600F0B0FF0028D0D1C9
:1010C00054F83D0B016841F400710160202004F8E0
:1010D0001E09E57765770020C7E706E0206801680C
:1010E00041F4007101600120BFE70220BDE700006C
:1010F000020010000000FFFF00B500680C4985B039
:10110000884213D14FF440600090122001900320D8
:10111000039069460748FFF7C3FD0748C16941F4DA
:101120008001C161C06900F48000049005B000BD79
:1011300000580040000C0140001002400248816845
:1011400002781144816070475C000020074810B5A8
:10115000016841F010010160032000F0B7F80020A1
:1011600000F006F800F03EF8002010BD002002401C
:1011700000B5014687B00022192000F087F8192039
:1011800000F078F81348816941F400618161806959
:1011900005A900F400600690684600F0C9F900F067
:1011A000FDF90D490D4AB0FBF1F10D48491E0260F1
:1011B000416040F2E7320021C0E90321816000F084
:1011C000FFFB10B1012007B000BD054800F034FC62
:1011D000F9E700000010024040420F00002C0140DF
:1011E00034020020214808B5816941F00101816184
:1011F000816901F001010091C16941F08051C16133
:10120000C06900F080500090032000F05FF80022D9
:1012100011466FF00B0000F039F8002211466FF014
:101220000A0000F033F8002211466FF0090000F0C8
:101230002DF800221146501F00F028F80022114618
:10124000101F00F023F800220F21901E00F01EF85E
:1012500000220F21501E00F019F80548416821F0C6
:10126000E06141F00071416008BD000000100240E3
:101270000000014000F01F02012191404009800060
:1012800000F1E020C0F8001170470000F0B40E4BF0
:101290001B680C46C3F30223C3F10705042D00D9D4
:1012A0000425191D072901D2002300E0DB1E0126B9
:1012B00006FA05F1491E214099409E40761E1640CF
:1012C0003143F0BC01F068B90CED00E0064900F0D4
:1012D000070208684FF6FF03184040EA0220034A5D
:1012E00010430860704700000CED00E00000FA05B4
:1012F0002DE9F84305460078354CC00754D0E06925
:101300000026C00008D4E06940F08050E061E06948
:10131000012600F0805000902E480168C90512D4C3
:101320000168804641F480710160FFF7A1FD074626
:1013300005E000BFFFF79CFDC01B642823D8D8F848
:101340000000C005F6D5206A10F4407021D0A988AD
:1013500001F4407181421CD0206A1F49012220F40F
:1013600040700A6000220A602062C00711D0FFF7B7
:101370007FFD074641F2883808E000BFFFF778FD9F
:10138000C11B414502D90320BDE8F883206A8007CC
:10139000F4D5206A696820F44070084320621EB1C9
:1013A000E06920F08050E0612878800705D560680A
:1013B000A96820F44040084360602878C00605D53D
:1013C0006068E96820F48000084360600020DBE783
:1013D0000010024000700040400442422DE9F047F6
:1013E000DFF83C8105460E46D8F8000000F0070003
:1013F000B0420CD2D8F8001021F007013143C8F8F0
:101400000010D8F8000000F00700B04263D128783F
:10141000444C800705D56068A96820F0F0000843B7
:1014200060602878C00745D06868012816D0216818
:10143000022816D0890700294DDA616821F00301DE
:1014400001436160FFF714FD6968074641F2883087
:1014500001290FD00229814619D027E0216889038C
:10146000E9E78901E7E700BFFFF702FDC11B494536
:1014700001D918E081466068C0F381000128F3D1EA
:1014800018E000BFFFF7F4FCC11B49450BD86068AA
:10149000C0F381000228F5D10CE000BFFFF7E8FCA3
:1014A000C11B494502D90320BDE8F087606810F0F0
:1014B0000C0FF3D1D8F80010404601F00701B142FB
:1014C0000BD9016821F0070131430160006800F089
:1014D0000700B04201D00120E6E72878400705D593
:1014E0006068E96820F4E0600843606028780007DD
:1014F00006D56068296920F4605040EAC100606048
:1015000000F05CF86168084AC1F30311515CC840FF
:10151000064908600020FFF72BFE0020C4E700000A
:101520000020024000100240D06E00086800002039
:101530000F2202600C4A536803F0030343605368B0
:1015400003F0F0038360536803F4E063C360526800
:101550004FF4E06303EAD20202610448006800F03D
:1015600007000860704700000010024000200240A1
:1015700001480068704700006800002004480549E1
:1015800000684968044AC1F30221515CC8407047B1
:101590006800002000100240E06E00080448054981
:1015A00000684968044AC1F3C221515CC8407047D1
:1015B0006800002000100240E06E000812A185B013
:1015C0000FC98DE80F0014A0144A006804905168F8
:1015D000134801F00C03042B10D0082B0ED1C1F3DB
:1015E0008343C9031DF803000AD5516804AAC1F357
:1015F0004041515C0A4A5043B0FBF1F005B07047DE
:1016000008494843FAE700000203040506070809F1
:101610000A0B0C0D0E0F101001020000001002400A
:1016200000127A0000093D002DE9F84F04460078C9
:10163000B94DC00748D06868C0F38100012807D0C1
:101640006868C0F38100022809D16868C00306D524
:101650002868800338D5606800286FD034E060685F
:10166000B0F5803F0BD010B1B0F5A02F11D0286895
:1016700020F480302860286820F4802002E0286868
:1016800040F480302860606888B1FFF7F1FB0646BF
:1016900009E0286840F480202860F0E7FFF7E8FBC5
:1016A000801B642875D828688003F7D50CE0FFF705
:1016B000DFFB064605E000BFFFF7DAFB801B64286E
:1016C000F0D828688003F7D42078944E80074FF034
:1016D00001094FF000083BD5686810F00C0F07D0E7
:1016E0006868C0F38100022809D16868C00306D485
:1016F0002868800714D5206901281FD110E02069CF
:10170000B0B1C6F80090FFF7B3FB074605E000BF95
:10171000FFF7AEFBC01B0228C4D828688007F7D5A6
:101720002868616920F0F80040EAC10028600FE0F5
:10173000C6F80080FFF79CFB074606E0E9E000BF23
:10174000FFF796FBC01B022823D828688007F7D430
:10175000207800072CD57248A169D9B1C0F8009053
:10176000FFF786FB074604E0FFF782FBC01B022859
:101770000FD8686A8007F7D56A484FF4FA510068B5
:10178000B0FBF1F0009000BF0098411E0091FAD22A
:101790000EE080E0C0F80080FFF76AFB074604E037
:1017A000FFF766FBC01B022875D8686A8007F7D46C
:1017B0002078400760D5E8690027C00008D4E869B0
:1017C00040F08050E861E869012700F08050009007
:1017D00055480168C90513D40168834641F48071F6
:1017E0000160FFF745FB824606E000BFFFF740FBC4
:1017F000A0EB0A0064284ED8DBF80000C005F5D540
:10180000E06801280AD008B1052813D0286A20F022
:1018100001002862286A20F0040002E0286A40F0F3
:1018200001002862E06841F2883B98B1FFF720FB95
:1018300082460BE0286A40F004002862EEE700BF11
:10184000FFF716FBA0EB0A0159455AD8286A800712
:10185000F6D50CE0FFF70CFB824605E0FFF708FB2E
:10186000A0EB0A0159454CD8286A8007F6D41FB16D
:10187000E86920F08050E861E06988B36968C1F3E5
:101880008101022945D00228C6F8608004D0FFF704
:10189000EFFA044638E034E0FFF7EAFA074604E0DE
:1018A000FFF7E6FAC01B02282BD828688001F7D47E
:1018B000206AB0F5803F05D16868A16820F4003047
:1018C00008436860D4E908010843696821F4741189
:1018D00008436860C6F86090FFF7CAFA044606E05D
:1018E00015E000BFFFF7C4FA001B022809D82868DA
:1018F0008001F7D50BE000BFFFF7BAFA001B022802
:1019000002D90320BDE8F88F28688001F4D40020B4
:10191000F8E70120F6E70000001002400000424214
:101920008004424268000020007000404FF0E02137
:101930000428086903D020F004000861704740F0D3
:101940000400FAE710B5401EB0F1807F01D30120FA
:1019500010BD4FF0E02460610F21601700F01CFE05
:101960000020A06107202061002010BD7047704753
:1019700030B590F83C20012A20D0012280F83C208C
:10198000022380F83D3003685C6824F070045C60DA
:1019900003685C680D682C435C6003689C6824F0F5
:1019A00080049C6003689C6849680C439C6080F8D4
:1019B0003D20002180F83C10084630BD022030BD9B
:1019C00010B5040003D094F83D0010B107E00120E9
:1019D00010BD002084F83C00204600F00DF80220E5
:1019E00084F83D00211D206800F056FE012084F897
:1019F0003D00002010BD000008B50C4A01680C48ED
:101A0000914207D1C16941F00201C161C06900F092
:101A1000020009E0074A914207D1C16941F004017F
:101A2000C161C06900F00400009008BD00040040DE
:101A300000100240000800400168CA6842F001023C
:101A4000CA600068016841F0010101600020704730
:101A500070B5044690F83C00012817D0012584F8A1
:101A60003C50022084F83D002068826822F0770212
:101A700022F47F4282600868502837D00DDC20288D
:101A800059D005DC88B3102841D151E0022070BD47
:101A9000302853D040283AD13FE060282ED070281B
:101AA0000BD0B0F5805F03D0B0F5005F2FD110E010
:101AB0002068816821F0070115E0CB68D1E9012198
:101AC000206800F02AFE2168886840F0770088606E
:101AD0001DE0CB68D1E90121206800F01EFE2068DE
:101AE000816841F48041816011E01EE0CA68496864
:101AF000206800F0C7FE5021206806E0CA684968E7
:101B0000206800F0D0FE6021206800F010FE84F80C
:101B10003D50002084F83C0070BDCA6849682068C8
:101B200000F0B0FE40212068EFE700212068ECE7DC
:101B300010212068E9E720212068E6E730212068AD
:101B4000E3E7704770B50446006801694FF000058F
:101B5000C943890715D4C168C943890711D4E91E4F
:101B6000016101202077206880698007204602D02B
:101B7000FFF7E7FF04E000F0BBF8204600F03DF976
:101B8000257720680169C943490717D4C168C9434B
:101B9000490713D46FF00401016102202077206807
:101BA000806910F4407F204602D0FFF7CAFF04E0AE
:101BB00000F09EF8204600F020F9257720680169A2
:101BC000C943090716D4C168C943090712D46FF085
:101BD00008010161042020772068C0698007204641
:101BE00002D0FFF7AEFF04E000F082F8204600F0DC
:101BF00004F9257720680169C943C90617D4C1686B
:101C0000C943C90613D46FF0100101610820207781
:101C10002068C06910F4407F204602D0FFF791FF92
:101C200004E000F065F8204600F0E7F8257720682A
:101C30000169C943C90708D1C168C943C90704D1AB
:101C4000891E0161204600F01BF920680169C94323
:101C5000090609D4C168C943090605D46FF080019B
:101C600001612046FFF782FE20680169C9434906E9
:101C700009D4C168C943490605D46FF04001016128
:101C8000204600F007F920680169C94389060BD492
:101C9000C168C943890607D46FF02001016120465D
:101CA000BDE87040FFF763BE70BD00001FB50C4A71
:101CB00001680220914206D1C021CDE900100390B5
:101CC0006946084809E0084A914208D14FF4E0719A
:101CD000CDE90010039069460448FEF7E1FF1FBDFF
:101CE000000400400008014000080040000C0140D2
:101CF000704770B5044690F83C000D4601280DD0A1
:101D0000012684F83C60022084F83D0042B1042A98
:101D100018D0082A2AD00C2A4DD139E0022070BDF3
:101D2000206800F00DFD2068816941F008018161A3
:101D30002068816921F004018161206881692A6934
:101D4000114311E0206800F023FD2068816941F40F
:101D5000006181612068816921F48061816120686E
:101D600081692A6941EA0221816124E0206800F04A
:101D70003BFD2068C16941F00801C1612068C1696B
:101D800021F00401C1612068C1692A69114311E091
:101D9000206800F055FD2068C16941F40061C1610F
:101DA0002068C16921F48061C1612068C1692A6924
:101DB00041EA0221C16184F83D60002084F83C00C2
:101DC00070BD10B5040003D094F83D0010B107E0D9
:101DD000012010BD002084F83C00204600F00CF8E3
:101DE000022084F83D00211D206800F055FC0120F0
:101DF00084F83D00002010BD7047704710B50446C0
:101E00000068012200F07EFC07492068884203D167
:101E1000416C41F4004141642068016841F00101D6
:101E20000160002010BD0000002C014010B50446E8
:101E30000068002200F066FC104B41F2111120688E
:101E40008A10984209D1036A0B4206D1036A1342F1
:101E500003D1436C23F4004343642068036A0B42BC
:101E600006D1016A114203D1016821F0010101602C
:101E7000012084F83D00002010BD0000002C01402E
:101E800000680349884201D1FFF758B97047000044
:101E9000002C0140704770B5040004D094F839005C
:101EA000002510B106E0012070BD84F838502046AE
:101EB00000F022F8242084F839002068C16821F459
:101EC0000051C160204600F001FD2068016921F445
:101ED000904101612068416921F02A014161206837
:101EE000C16841F40051C160E563202084F83900E5
:101EF00084F83A00002070BD10B50068114986B022
:101F000088421DD11048816941F480418161806916
:101F10000E4C00F4804004904FF4007000900220BA
:101F200001900320039069462046FEF7B9FE002188
:101F30002015CDE90001029169462046FEF7B0FE6A
:101F400006B010BD003801400010024000080140FA
:101F5000FEE701684A69D24352050CD46FF48062EF
:101F60004A6104210164002140F8301F202242739D
:101F70000173012070470020704700002DE9F843ED
:101F8000044600680D46DDE9089701689846164644
:101F900041F4807101604B4600224FF00111204650
:101FA000009700F062F8E8B9216805F0FE000861CA
:101FB0003B464A461849204600F088F828B1206C74
:101FC00004280FD10120BDE8F883206841698069A9
:101FD00000903A464946204600F0BCF820B1206CFB
:101FE000042813D00320EEE7F5B2B8F1010F09D0B1
:101FF0002168300A08613A464946204600F0AAF8AE
:102000000028ECD1206805610020DCE72068016829
:1020100041F400710160D5E70200010070B5164679
:102020000D4604461AE02046FFF793FF08B1012051
:1020300070BD681C12D025B1FEF71AFF801BA842A4
:102040000CD954F8400F40F0200044F8100900204B
:102050002060202161732073032070BD20684069D7
:10206000C0434007DFD4002070BD2DE9F0471E4675
:1020700090460D460446C1F30747DDF8209012E074
:10208000701C10D02EB1FEF7F3FEA0EB0900B04299
:1020900009D9002044F8300F20216173A073207308
:1020A0000320BDE8F0872068012F0AD0806925EA67
:1020B00000000004000C06D000214145E0D00020C3
:1020C000EFE74069F3E70121F7E700002DE9F0476A
:1020D0009A4691460D46044600264FF02008C1F36B
:1020E00007472AE020684069C043400512D42068B1
:1020F000016841F40071016021686FF480604861FB
:1021000004202064266384F83D8084F83C6001202C
:10211000BDE8F087B9F1FF3F0FD0B9F1000F05D04E
:10212000FEF7A6FEA0EB0A01494506D944F8306F38
:1021300084F80D8026730320EAE72068012F07D07A
:10214000D0F8180025EA00000004000CE0D0C9E730
:102150004069F7E770B516460D4604461AE020467A
:10216000FFF7F7FE08B1012070BD681C12D025B141
:10217000FEF77EFE801BA8420CD954F8400F40F0B9
:10218000200044F810090020206020216173207392
:10219000032070BD20684069C0430006DFD40020E2
:1021A00070BD00003EB51248002410498460C46030
:1021B00044610160012505614FF460214460C16103
:1021C000FEF7AAFC18B14D210AA000F038FC04204B
:1021D000CDE90005694602940548FEF71FFC00287A
:1021E00003D0572103A000F02AFC3EBD002401408B
:1021F000E40000202E2E2F5372632F6164632E6340
:102200000000000030B5244D97B0002228681590DA
:10221000012115A802F08EF9204C142205F11C01B1
:10222000A0616846FDF7DAFF0021684602F06AF90E
:102230002060142205F1300105A8FDF7CFFF002131
:1022400005A802F05FF96060142205F144010AA8B4
:10225000FDF7C4FF00210AA802F054F9A060D5E9F7
:102260000101CDE90F0100210FA802F0C2F8E060E2
:10227000D5E90301CDE91101002111A802F0B9F857
:102280002061D5E90501CDE91301002113A802F071
:10229000B0F8606117B030BD7C5E00082C000020F3
:1022A000F0B52C4885B0816941F0100181618169E8
:1022B00001F010010491816941F02001816181697F
:1022C00001F020010491816941F00401816181697B
:1022D00001F004010491816941F008018161806984
:1022E0001D4F00F008004FF4805604900022314644
:1022F0003846FEF7B8FDF500184800240095CDE9F2
:10230000010469461648FEF7CBFC40F20F10CDE9F8
:102310000004694613480294FEF7C2FC01200096AF
:10232000CDE901040220039069463846FEF7B8FC67
:10233000CDE90054694638460294FEF7B1FC00220C
:1023400005212820FEF7A2FF2820FEF793FF05B005
:10235000F0BD000000100240000C01400000111010
:1023600000100140000801400E4810B50C49016002
:102370000D49416000214FF480428160C0E90312A1
:1023800041618161C1610162FEF778FD002805D0DD
:10239000BDE810404C2105A000F051BB10BD00006D
:1023A0000058004020010020A08601002E2E2F534F
:1023B00072632F6932632E630000000010B5294854
:1023C0008EB02749016003210024C0E90114FF21D8
:1023D000C0E903148461FFF7F3FA18B14B2122A07E
:1023E00000F02DFB4FF48050079007A91D48FFF720
:1023F0002FFB18B151211CA000F021FB1948FFF759
:10240000E0FC18B1562118A000F019FB0B940BA9A1
:1024100014480C94FFF7ACFA18B15D2112A000F03B
:102420000EFB6020CDE900040294002269460D48AD
:102430000494FFF75EFC18B166210BA000F0FFFAD0
:10244000042269460748FFF754FC18B16B2106A027
:1024500000F0F5FA0348FFF729FC0EB010BD0000AC
:1024600000040040740100202E2E2F5372632F743D
:10247000696D2E630000000010B52E488EB02C4907
:10248000016003210024C0E90114FF21C0E9031405
:102490008461FFF795FA18B1802127A000F0CFFAE8
:1024A0004FF48050079007A92248FFF7D1FA18B1DE
:1024B000862121A000F0C3FA1E48FFF782FC18B164
:1024C0008B211DA000F0BBFA0B940BA919480C94AA
:1024D000FFF74EFA18B1922117A000F0B0FA602071
:1024E000CDE9000402940022694612480494FFF7E3
:1024F00000FC18B19B2110A000F0A1FA042269464B
:102500000C48FFF7F6FB18B1A0210BA000F097FADA
:10251000082269460748FFF7ECFB18B1A52106A081
:1025200000F08DFA0348FFF7C1FB0EB010BD0000AC
:1025300000080040B40100202E2E2F5372632F7428
:10254000696D2E63000000000D4810B50B49016055
:102550004FF4E1314160002181600C22C160C0E98B
:1025600004128161C161FFF796FC002805D0BDE827
:1025700010404C2103A000F062BA10BD00380140A9
:10258000F40100202E2E2F5372632F757361727425
:102590002E630000FEE770470907090E002806DADF
:1025A00000F00F0000F1E02080F8141D704700F1EA
:1025B000E02080F80014704702F0DEFC012001F0FA
:1025C0000CFFFBE701F094BF30B593B00121080484
:1025D000CDE900100025029502240491CDE90740C1
:1025E0004FF4E01009906846FFF71EF800B1FEE7CF
:1025F0000AA90F2081E831004FF48060CDE90D0574
:1026000002210AA8FEF7EAFE00B1FEE74FF40040FF
:1026100011900F940FA8FEF76BFE00B1FEE7FEF7D6
:10262000A7FF4FF47A71B0FBF1F0FFF78BF90420AC
:10263000FFF77CF900220F21501EFEF727FE13B092
:1026400030BD00000D48016841F0010101604168A2
:102650000B4A1140416001680A4A1140016001685B
:1026600021F480210160416821F4FE0141604FF4B2
:102670001F0181600449C0030860704700100240D8
:102680000000FFF8FFFFF6FE08ED00E00148FFF74D
:1026900059BA000034020020F0B50268164B174CFE
:1026A000174D4FF08047984205D0B84203D0A04262
:1026B00001D0A84203D122F070064A683243984202
:1026C00005D0B84203D0A04201D0A84203D122F4E1
:1026D0004074CA68224322F080044A69224302609F
:1026E0008A68C2620A688262984201D109690163FC
:1026F00001214161F0BD0000002C014000040040B8
:102700000008004010B50123046A8B409C4304621A
:10271000036A8A401343036210BD10B5846842EA1D
:10272000032224F47F440A432243826010BD82685E
:1027300022F070020A4342F00701816070470000F6
:1027400030B5026A22F001020262026A43688469BB
:1027500024F073050C682C4322F002058A682A4392
:102760000A4DA8420BD122F00805CA6823F4407331
:102770002A434D6922F004021D438B692B434360B9
:10278000846149684163026230BD0000002C014051
:1027900030B5026A22F010020262026A436884695C
:1027A0000D6824F4E64444EA05248D6822F02002F2
:1027B00042EA05120B4DA8420ED1CD6822F08002EC
:1027C00042EA05124D6923F4406343EA85038D69AB
:1027D00022F0400243EA85034360846149688163D3
:1027E000026230BD002C014030B5026A22F48072D2
:1027F0000262036A4268C46923F4007324F073051B
:102800000C682C438D6843EA05230C4DA8420ED179
:10281000CD6823F4006343EA05234D6922F4405256
:1028200042EA05128D6923F4806342EA0512426090
:10283000C4614968C163036230BD0000002C0140DF
:1028400030B5026A22F480520262046A4268C369A7
:102850000D6823F4E64343EA05238D6824F400540D
:1028600044EA0534064DA84204D14D6922F4804261
:1028700042EA85124260C36149680164046230BD66
:10288000002C014010B5036A046A24F001040462BC
:10289000846924F0F00444EA021423F00A020A4393
:1028A0008461026210BD10B5036A23F01003036255
:1028B0008369046A23F4704343EA023224F0A003DC
:1028C00043EA01118261016210BD00002DE9F0416F
:1028D000044600680169E26821F440511143016136
:1028E0002169A0680843616908432168CA6841F208
:1028F0000C639A430243CA6020684169A26921F4CB
:102900004071114341614C49206864253226884258
:102910003CD1FEF743FE00EBC00101EB0010616803
:102920008900B0FBF1F7FEF739FE00EBC00101EBC7
:1029300000106168B0468900B0FBF1F0B0FBF5F023
:102940006FF01801484307EB800106EB0110B0FB64
:10295000F5F000F0F006FEF721FE00EBC00101EB00
:10296000001061688900B0FBF1F0B0FBF5F006EBF8
:102970000016FEF713FE00EBC00101EB00106168CA
:102980008900B0FBF1F7FEF709FE3BE0FEF7F6FD2C
:1029900000EBC00101EB001061688900B0FBF1F7AA
:1029A000FEF7ECFD00EBC00101EB00106168B046E2
:1029B0008900B0FBF1F0B0FBF5F06FF0180148436F
:1029C00007EB800106EB0110B0FBF5F000F0F0061C
:1029D000FEF7D4FD00EBC00101EB00106168890037
:1029E000B0FBF1F0B0FBF5F006EB0016FEF7C6FD0C
:1029F00000EBC00101EB001061688900B0FBF1F74A
:102A0000FEF7BCFD00EBC00101EB0010616889001E
:102A1000B0FBF1F0B0FBF5F06FF01801484307EBA5
:102A2000800108EB0110B0FBF5F0216800F00F0009
:102A300030448860BDE8F08100380140FEE7FEE7E1
:102A40000FB4054B10B503A9044A029800F0ECF846
:102A500010BC5DF814FB0000E13D0008E000002020
:102A600037B514460846064B6A46214600F0DCF8A6
:102A700004466946002000F06EFC20463EBD000082
:102A80005733000802E008C8121F08C1002AFAD113
:102A900070477047002001E001C1121F002AFBD1DE
:102AA000704700002DE9FF5F82B00021DDE90430AE
:102AB000020DDDF840B0034318D044F61050A2F2E6
:102AC000FF3242431514119801281FD0A5EB0B00CB
:102AD000401C5FEA000A4FF000064E4FDFF83891C5
:102AE000B046504615D5CAF1000413E011980124F0
:102AF0004AA3012801D16FEA0B010298119AC0E99B
:102B00000031C0E9024206B0BDE8F09FCBF1000001
:102B1000DFE704460021404A491842EB0450CDE962
:102B2000001012E0E00707D032463B4640464946D7
:102B3000FDF7A7FD8046894632463B4610461946BA
:102B4000FDF79FFD06460F466410002CEAD1DDE933
:102B50000401DDE90023BAF1000F06DAFDF791FD6B
:102B600042464B46FDF78DFD05E0FDF7FCFD424674
:102B70004B46FDF7F8FD04460E460022284BFDF7B4
:102B800079FE03D84FF0FF30014607E00022254BC5
:102B900020463146FDF7CEFCFDF754FE102409E037
:102BA000002C0ADB0A220023FDF75CFC039B303279
:102BB0001A55641E50EA0102F2D1641C039AC4F152
:102BC00011031444119A012A03D0012208430DD1A4
:102BD0000AE0084304D000204FF0110B119072E777
:102BE000A3EB0B056D1E0DE05B4504DD4FF000020D
:102BF00005F1010504E003DA4FF00002A5F101053B
:102C0000002AECD002981199C0E90231C0E90045D0
:102C100079E70000000014400000F03F30000000A1
:102C20000000F0430000E03F2DE9FF4F95B09B46C8
:102C30008946064600250FE2252877D1002427463D
:102C4000F84A0121059400E0044316F8013F203BB7
:102C500001FA03F01042F7D130782A2811D06FF032
:102C60002F033078A0F13002092A16D8059A44F0D3
:102C7000020402EB820203EB42021044761C059030
:102C8000EFE759F8042B0592002A03DA504244F486
:102C90000054059044F00204761C30782E2816D19A
:102CA00016F8010F44F004042A280DD06FF02F020B
:102CB0003078A0F13003092B09D807EB870302EB2A
:102CC0004303C718761CF3E759F8047B761C307869
:102CD0006C280FD006DC4C2817D068280DD06A2845
:102CE00014D104E0742810D07A280FD10DE044F4F8
:102CF00000140AE044F4801401E044F440147278B3
:102D0000824202D104F58014761C761C3078662845
:102D10000BD013DC582877D009DC002875D0452863
:102D2000F6D04628F4D047281AD19DE118E0632850
:102D300035D0642879D0652812D195E1702873D0F8
:102D400008DC6728F1D069286FD06E280DD06F2875
:102D500006D1B5E073282CD0752875D0782874D0AA
:102D60005A46179990476D1C75E1C4F3025002282A
:102D700009D003280DD0D9F8001004280DD00D601B
:102D800009F1040967E1D9F80010EA17C1E9005216
:102D9000F6E7D9F800100D80F2E70D70F0E719F8AA
:102DA000041B8DF8001000208DF80100EA46012078
:102DB00003E059F804AB4FF0FF3061074FF000011A
:102DC00002D40DE008F101018846B9420FDA8045CE
:102DD000F8DB1AF808100029F4D108E008F1010125
:102DE00088468142FADB1AF808100029F6D10598C6
:102DF0005B46A0EB080721463846179A00F094FA84
:102E0000284400EB080507E04DE029E10DE01AF841
:102E1000010B5A4617999047B8F10108F7D25B4663
:102E200021463846179A13E142E00A220092C4F381
:102E300002524FF0000A022A08D059F804CB032AA4
:102E40004FEAEC710AD00DE029E02AE009F1070110
:102E500021F00702F2E802C1914609E00FFA8CFC6A
:102E60004FEAEC71042A03D14FFA8CFC4FEAEC7163
:102E7000002907DA0A460021DCF1000C61EB0201AF
:102E80002D2202E0220504D52B228DF804200122F8
:102E900003E0E20701D02022F7E7904659E00A213B
:102EA00002E010220DE010214FF0000A00910BE02B
:102EB00010224FF0000A44F004040827009203E0B7
:102EC00008224FF0000A0092C4F30252022A05D0F1
:102ED00059F804CB0021032A08D009E009F10701C1
:102EE00021F00702F2E802C1914605E01FFA8CFCCE
:102EF000042A01D10CF0FF0C4FF00008220728D55E
:102F0000702806D0009B83F0100353EA0A0305D013
:102F10000EE040228DF80420012208E05CEA010264
:102F200006D030228DF804208DF80500022290464C
:102F3000009B83F0080353EA0A030AD15CEA01020A
:102F400001D1620705D530228DF804204FF0010829
:102F50007F1E582804D034A003900EA802900DE0E4
:102F600036A0F9E753466046009AFDF77BFA84469F
:102F70000398825C0298401E029002705CEA010095
:102F8000F0D1029806A9081A00F1200A600702D5BC
:102F900024F4803400E00127574502DDA7EB0A0046
:102FA00000E0002000EB0A01009005984144401A1F
:102FB0000590E00306D45B462146179A059800F079
:102FC000B3F90544002706E001A85A46C05D1799E9
:102FD00090476D1C7F1C4745F6DBE0030CD55B4634
:102FE0002146179A059800F09FF9054404E0302027
:102FF0005A46179990476D1C0099481E0090002969
:10300000F5DC08E0029802995A460078491C0291C2
:10301000179990476D1CBAF10001AAF1010AF1DC81
:1030200065E100000928010030313233343536378C
:103030003839616263646566000000003031323304
:1030400034353637383941424344454600000000A4
:1030500000F058F90544761C307800287FF4ECAD78
:1030600019B02846BDE8F08F620700D4062709F1A1
:10307000070222F0070CFCE80223E14603F00048B7
:103080005FEA080C02D00FF2702C0DE05FEA045CDE
:1030900002D50FF2682C07E05FEAC47C02D00FF281
:1030A000602C01E0AFF2700C4FF0FF3823F00043CA
:1030B000CDF850C065280CD006DC452809D046283C
:1030C0001DD047283DD13DE0662818D067287ED125
:1030D00038E00021112F01DB112000E0781CCDE940
:1030E000000106A90EA8FFF7DDFCDDE90F010E9A2D
:1030F00003910021009207F1010A04914DE04FF085
:1031000000400097CDE9011006A90EA8FFF7CAFC00
:10311000DDE90F0203920E9B11990022DDF80CA04D
:103120000093049211B9791C00EB010AB7EB0A0075
:1031300004D4C0F1FF3007F1010A0490AAEB0700A4
:10314000019044E0012F00DA01270021112F01DD59
:10315000112000E03846CDE9000106A90EA8FFF7CE
:10316000A1FCDDE90F010E9A039100210491009268
:10317000BA4621070CD40399514500DA8A46BAF1C0
:10318000010F05DD009AAAF10101515C302908D038
:10319000B84202DA10F1040F06DA0121CDE901107C
:1031A00015E0AAF10101E9E7002805DC04990144D2
:1031B0000491AAEB000102E0411C514500DD8A4662
:1031C0000499401A401C01904FF0004002902007E3
:1031D00004D40198504501DBCDF8048000208DF81F
:1031E0004F0002980DF14F07B0F1004F25D02B2072
:1031F0000E9002984FF0020800280CDA404202902C
:103200002D200E9007E00A210298FDF715F93031C4
:10321000029007F8011DB8F10001A8F10108F2DCE5
:1032200002980028EFD1791E0E980870307800F0CF
:10323000200040F0450007F8020D12A8C01B00F165
:1032400007081498007800B1012000EB0A010198EA
:1032500001EBE07105984144401A401E0590E003DF
:1032600006D45B462146179A059800F05DF80544A0
:103270001498007818B15A46179990476D1CE003CE
:1032800024D55B462146179A059800F04DF8054471
:103290001CE00498002807DBDDE90301884203DD18
:1032A0000098405C179901E0179930205A469047E2
:1032B000049805F10105401C04900198401E0190FE
:1032C00004D12E205A46179990476D1CBAF100017F
:1032D000AAF1010ADDDC05E017F8010B5A4617993F
:1032E00090476D1CB8F10001A8F10108F4DC5B46C1
:1032F0002146179A0598ABE62D0000002B00000030
:10330000200000002DE9F041044600251E46174626
:10331000880404D405E039462020B0476D1C641EA3
:10332000F9D52846BDE8F0812DE9F0410446002595
:103330001E469046C80301D5302700E020278804A8
:1033400004D505E041463846B0476D1C641EF9D5EA
:103350002846BDE8F0810A68531C0B601070704766
:103360000FB4F0B587B00DAA68460C99FFF778FB4B
:103370006D460C4E0EE02038C0B2002400EB400039
:1033800006EB40076D1C385D01F0C4FD641CE4B21F
:10339000062CF8D328780028EDD107B0F0BC5DF8F2
:1033A00014FB0000FC5E00080FB400B587B009AA4A
:1033B00068460899FFF754FB6946012000F0F6FAC9
:1033C00007B05DF814FB0FB400B587B009AA6846D2
:1033D0000899FFF745FB6946002000F0E7FA07B0BF
:1033E0005DF814FB2DE9F0410546002460212046DC
:1033F00000F05CFA0D480E4E00EB85175FF00005FB
:1034000005EB4410385C01F085FD6D1CEDB2202DFC
:10341000F6D330787178401CC0B200F047FA641CD3
:10342000E4B2022CEAD3BDE8F0810000306100086C
:103430004800002010B5002001F0C8FCBDE8104095
:1034400001F04CBD0021017041704180017141715A
:1034500040F6B832C28001724172012181720521A9
:10346000C172704710B504460821002000F01EFA12
:103470007CB1012C18D0022C1BD10EA0FFF7A3FFAA
:103480005FF0000000F05CF8BDE81040012000F0A3
:1034900023B80BA0FFF797FF002000F01DF8BDE850
:1034A0001040012000F04CB808A0FFF78CFF01206D
:1034B000E8E710BD53434E204D4F44450000000047
:1034C000524742204D4F44450000000043265720FC
:1034D0004D4F44450000000070B5002405462146CC
:1034E000204600F0E3F99DB1144E002505EBC40021
:1034F000305C01F00FFD6D1CEDB2082DF6D30021FC
:10350000012000F0D3F9641CE4B2022CEDD370BDAD
:103510000A4E10365FF0000505EBC400305C01F088
:10352000F9FC6D1CEDB2082DF6D30021012000F04E
:10353000BDF9641CE4B2022CECD370BDA06E00088F
:1035400070B5054600244821204600F0AFF99DB132
:10355000144E002505EBC400305C01F0DBFC6D1C53
:10356000EDB2082DF6D34821012000F09FF9641C2C
:10357000E4B2022CEDD370BD0A4E103E5FF00005A0
:1035800005EBC400305C01F0C5FC6D1CEDB2082DEC
:10359000F6D34821012000F089F9641CE4B2022C22
:1035A000ECD370BDC06E000810B50446022813D8D5
:1035B0000021022000F07AF92BA0FFF704FF002180
:1035C000042000F073F92BA0FFF7FDFE0021062078
:1035D00000F06CF92AA015E0E01E022814D80021A2
:1035E000022000F063F929A0FFF7EDFE002104207E
:1035F00000F05CF928A0FFF7E6FE0021062000F0AD
:1036000055F928A0FFF7DFFE062C2BD2DFE804F0E7
:1036100003090F151B210021022000F047F912A019
:103620001CE00021042000F041F912A016E0002166
:10363000062000F03BF912A010E00021022000F06B
:1036400035F912A00AE00021042000F02FF912A0A1
:1036500004E00021062000F029F912A0BDE8104086
:10366000FFF7A2BE10BD00004E4F4E452020202087
:1036700020200000504F4C494345202020200000CE
:10368000414D42554C49454E434500004C49474841
:10369000544E494E472020004649524520202020C4
:1036A00020202000434F4C4F5243484153452000B7
:1036B0002DE9FC5F044605200027CDE900704FF09E
:1036C000020B4FF02009032C08D204EB8400C00643
:1036D000060E04EB840109EBC10005E0A001C0382F
:1036E000C6B2702000EB841000F0FF083146584647
:1036F00000F0DCF8DFF8B0A1002500BF1AF80500E3
:1037000001F008FC6D1CEDB2082DF7D3314601988D
:1037100000F0CCF8644E00250836705D01F0FAFB2D
:103720006D1CEDB2082DF8D34146584600F0BEF8A6
:103730005D4E00251036705D01F0ECFB6D1CEDB2A6
:10374000082DF8D34146019800F0B0F8564E0025F8
:103750001836705D01F0DEFB6D1CEDB2082DF8D35C
:10376000514E022101202036F4B3012C51D0022CFD
:1037700054D0032C57D0042C58D0032C59D20025F8
:103780004FEA0D0A1AF8050000EB8001C9060F0E7A
:1037900000EB800109EBC10000F0FF0839465846F4
:1037A00000F084F80024305D01F0B4FB641CE4B246
:1037B000082CF8D33946019800F078F80024305DE1
:1037C00001F0A8FB641CE4B2082CF8D3414658462B
:1037D00000F06CF80024305D01F09CFB641CE4B246
:1037E000082CF8D3414600E010E0019800F05EF8A4
:1037F0000024305D01F08EFB641CE4B2082CF8D389
:103800006D1CEDB2022DBDD3BDE8FC9F8DF800000C
:1038100001E08DF800708DF80110B0E78DF80070B0
:103820008DF80100ABE78DF8000039E08DF80070ED
:1038300003E09DF80000012832D0002530272946FA
:10384000584600F033F80024305D01F063FB641C3F
:10385000E4B2082CF8D32946019800F027F8002498
:10386000305D01F057FB641CE4B2082CF8D33946F4
:10387000584600F01BF80024305D01F04BFB641C3F
:10388000E4B2082CF8D33946019800F00FF8002470
:10389000305D01F03FFB641CE4B2082CF8D3B3E7C1
:1038A00040257027CBE70000D45E000870B50546C0
:1038B000B0300C46C0B201F03FFB102040EA1410BB
:1038C00001F03AFB04F00F0040F0010001F034FB7E
:1038D00001480570447070BD480000202DE9F0419A
:1038E00000242038144EC7B204EB0710305C01F0FE
:1038F00011FB641CE4B2082CF6D3104C2078401C59
:10390000C0B220706178FFF7D1FF002505EB0710EA
:103910003044007A01F0FEFA6D1CEDB2082DF5D3AB
:1039200060780830C1B261702078401EC0B220704B
:10393000BDE8F041FFF7BABFB068000848000020BA
:103940002DE9F04100242038164EC7B204EB0710D1
:10395000305CC043C0B201F0DDFA641CE4B2082C54
:10396000F4D3114C2078401CC0B220706178FFF76E
:103970009DFF002505EB07103044007AC043C0B21C
:1039800001F0C8FA6D1CEDB2082DF3D36078083051
:10399000C1B261702078401EC0B22070BDE8F04115
:1039A000FFF784BFB06800084800002010B50C463F
:1039B00018B109E0641CFFF791FF20780028F9D1C5
:1039C00010BD641CFFF7BCFF20780028F9D110BDA2
:1039D0002DE9F047944D0446DFF85082A87820B1D5
:1039E0000020A870032188F80010207830B1012849
:1039F00079D0022876D0032846D1D0E098F800008C
:103A00004546002841D0FFF715FD0020FFF72AFDAD
:103A100008210320FFF74AFF618885A0FFF7D3FC48
:103A200030210320FFF742FF217981A0FFF7CBFC73
:103A300058210320FFF73AFF61797DA0FFF7C3FC0F
:103A400000210620FFF732FF7AA0FFF789FC28212A
:103A50000620FFF72BFF79A0FFF782FC50210620FC
:103A6000FFF724FF77A0FFF77BFCE07AFFF7BAFCB3
:103A70006078FFF71DFE62792179608800F068FCAC
:103A8000297872A0FEF7DCFFADE068886188884283
:103A900005D008210320FFF709FF618812E028798B
:103AA0002179884205D030210320FFF7FFFE2179DC
:103AB00008E068796179884207D058210320FFF730
:103AC000F5FE61795AA0FFF77EFC69786078814243
:103AD00001D0FFF7EDFD62792179608800F038FCB4
:103AE00081E000E04FE098F800004546012827D02B
:103AF000FFF7A0FC0120FFF7B5FCE07AFFF772FCAE
:103B000008210320FFF7D2FEE18855A0FFF75BFCF8
:103B100048210320FFF7CAFE217A53A0FFF753FC88
:103B200000210620FFF7C2FE51A0FFF719FC482133
:103B30000620FFF7BBFE50A0FFF712FC60781BE0E9
:103B4000E888E188884207D008210320FFF7AEFE0D
:103B5000E18843A0FFF737FC287A217A884207D012
:103B600048210320FFF7A2FE217A3FA0FFF72BFC9C
:103B700069786078814201D0FFF79AFD217AE08868
:103B800000F02AFB2FE0FFF755FC0220FFF76AFC4C
:103B9000E07AFFF727FC607AFFF706FD23E0A07AC2
:103BA000D8B3FFF747FC0026E77A31460220FFF73B
:103BB0007DFE3348A94600EB0727002505EB86105C
:103BC000385C01F0A7F96D1CEDB2402DF6D399F8E1
:103BD0000010491CC8B299F80110FFF767FE761C67
:103BE000F6B2042EE9D3217888F800106188A8F88D
:103BF0000210217988F80410617988F80510E188AD
:103C0000A8F80610217A88F80810617888F8011061
:103C1000E17A88F80B10BDE8F087FFE7FFF70AFCB0
:103C200000F064FBDFE70000480000207402002081
:103C30002533640020204875650000002020536172
:103C400074000000202056616C0000005041474580
:103C5000204348414E4745443F2025640D0A00005B
:103C60002534644B00000000253464252500000045
:103C7000202054656D70000042726967687400000E
:103C8000B06200080EB51D4E002425461421B0690F
:103C900000F062FC01F0AAF81948FFF7D3FB1848BE
:103CA000FFF796FE4FF480774FF480580122684664
:103CB000316900F0A3FBDDE90001102806D11048AE
:103CC00000F0AAF904460E48FFF782FE15F0010F36
:103CD00005F101050ED16CB1012C02D0022C02D0ED
:103CE00005E0394600E04146054800F095F90448F2
:103CF000FFF76EFE012000F070FBD7E72C000020DC
:103D0000140100202DE9F041C1F30A52A2F2FF365E
:103D10002F4A304B0D460446142E2FDA002E12DAAD
:103D2000FCF708FC00221346FCF7A4FD4CD2002D42
:103D3000A4BF0024254647DA25F00040204318BFE1
:103D4000254D41D018E0DFF894C02CFA06F705EABB
:103D5000070C5CEA040C08BFBDE8F081FCF7EAFB45
:103D600000221346FCF786FD2ED2002D03DA4FF415
:103D70008010F0400544BD43002425E0332EC8BF29
:103D8000BDE8F081A6F1140C4FF0FF3727FA0CF7CD
:103D90003C4208BFBDE8F081FCF770FC00221346EE
:103DA000FCF768FD10D2002D0DDA142E08BF6D1C33
:103DB00009D0C6F13400012101FA00F02044A042EC
:103DC00038BF6D1C0446BC4329462046BDE8F0813F
:103DD0009C7500883CE4377E0000F0BFFFFF0F00B9
:103DE00003490A685206FCD50149091D086070475D
:103DF000003801402DE9FC5F06468A460088FCF742
:103E0000D0FA4449FCF786FA0746B078FCF7C9FABD
:103E1000DFF804914946FCF77DFA0090F078FCF752
:103E2000C0FA4946FCF776FA06463C493846FCF7A4
:103E30003FFA0746FCF7EDFAFFF764FFFCF7CAFA12
:103E40000190FCF7A5FA01463846FCF72BFA8346A9
:103E50004FF07E500099FCF725FA3146FCF728FA1E
:103E6000074658460099FCF723FA4FF07E51FCF7BD
:103E70001CFA3146FCF71CFA814659464FF07E5039
:103E8000FCF710FA0099FCF713FA4FF07E51FCF79B
:103E90000CFA3146FCF70CFA0199062291FBF2F379
:103EA00002FB1311062919D2DFE801F003060A0EFE
:103EB0001115B046054601E0C84635463C460DE0C2
:103EC000B8463546044609E0B8464D4601E080460E
:103ED0003D46344602E0B0463D464C46104E404614
:103EE0003146FCF7E5F9FCF761FA8AF80000314643
:103EF0002846FCF7DDF9FCF759FA8AF8010031464B
:103F00002046FCF7D5F9FCF751FA8AF80200BDE823
:103F1000FC9F00000000B4430000C8420000C04005
:103F200000007F43EFF30580002800D00120704798
:103F3000012000F052FAFBE7F0B5184B02460125CC
:103F400000208D40A3F10804154234F811200646E4
:103F50004FF6FF7710D0BA4202D2521C24F811203B
:103F600092B2052A02D0322A02D002E0012000E0FB
:103F7000032023F81160F0BD33F81150BD4202D286
:103F80006D1C23F81150531F2D2B01D2022002E08B
:103F9000322A00D3042024F81160F0BD1400002060
:103FA0002DE9F04700201A4D064604462F1D05F165
:103FB0001C084FF00109286037F8141058F8240045
:103FC000FCF74CFF012803D009FA04F0304386B215
:103FD000641CE4B2042CEFD3002421463046FFF7E2
:103FE000ABFF20B1A1008840296808432860641C09
:103FF000E4B2042CF1D32968002906D00548002238
:104000000068BDE8F04700F045BABDE8F087000061
:10401000000000203C0000202DE9F04F00252C4638
:104020004FF4B47B41F6583A4FF0640940F6B83685
:104030004FF0050C2A460127A30021FA03F303F0F1
:104040000F0334B1012C20D0022C26D0032C04D134
:104050006BE0012B02D0032B05D0A7E04378002BA7
:1040600012D05B1E17E00378032B02D003230370EA
:104070009CE002704270428002714271C6800272FE
:104080004272877280F80BC093E0012B04D1437811
:10409000052B01D85B1C437088E0012B02D0032B59
:1040A00041D046E04378062B3ED2DFE803F0030E12
:1040B00017202B3443885B1C1FFA83F8A0F802807A
:1040C000D84576D9A0F802B073E003795B1CDBB267
:1040D0000371642B6DD980F804906AE043795B1C0E
:1040E000DBB24371642B64D980F8059061E0C3882A
:1040F00032331FFA83F8A0F80680D04568D9A0F8BB
:1041000006A065E0037A5B1CDBB20372642B5FD907
:1041100080F808905CE0437A5B1CDBB24372062BAC
:104120004CD142724AE0012540E0012B04D0032B20
:1041300039D0042B39D039E04378062B36D2DFE86A
:1041400003F0030B131B232BB0F80280B8F101031B
:1041500043802ED242802CE00379B3F1010880F82D
:10416000048026D2027124E04379B3F1010880F87B
:1041700005801ED242711CE0C388323B9BB2C380D3
:10418000B34225D8C68023E0037AB3F1010880F852
:1041900008801DD202721BE0437A5B1E43720DD26F
:1041A00080F809C00AE0022500E000254378032BCF
:1041B00001D2027004E00BD0042B09D0022303705B
:1041C000641CE4B2042CFFF437AF2846BDE8F08F3E
:1041D0000770F5E7FFF7E4BE2DE9FC470D46804682
:1041E00000212E48FDF722FE04212C48FDF71EFE7B
:1041F00008212A48FDF71AFEA8F6B830B0F57A6F04
:104200004AD8FCF7C5F8264910F0FF4F03D0FCF759
:1042100081F8044600E0002421464FF07E50FCF770
:1042200041F881462846FCF7BCF81E49FCF772F8B5
:10423000064601462046FCF73BF81B4F3946FCF783
:1042400037F8FCF7B3F8194D3146E8704846FCF7EB
:104250002FF83946FCF72CF8FCF7A8F828714146EE
:1042600013A0FEF7EDFB4846FCF7D3F806460F46D1
:104270002046FCF7CEF802460B4611A0CDE90067B8
:10428000FEF7DEFB2A79E97814A0FEF7D9FB284671
:10429000BDE8FC4700F046B8BDE8FC87B40100204B
:1042A00000007A450000C84200007F43550000200E
:1042B000636F6C6F725F746D703A2025640D0A0035
:1042C000636F6C645F7063742025662C2077617265
:1042D0006D5F7063742025660D0A0000633A202527
:1042E000642C20773A2025640D0A000010B50021C7
:1042F0000A48FDF79BFD04210848FDF797FD0021C2
:104300000748FDF793FD04210548FDF78FFDBDE843
:10431000104008210248FDF789BD0000740100200B
:10432000B4010020084902790B685A630968C27811
:104330008A63064982780B685A630B6842789A63ED
:1043400009680078C863704774010020B401002038
:10435000114B10B518809970DA7000210F48FDF7E5
:1043600065FD04210D48FDF761FD0B49091D081F7E
:10437000FFF740FD0848001DFFF7D4FF0021084863
:10438000FDF73CFD04210648FDF738FDBDE810406F
:1043900008210348FDF732BD4C00002074010020C5
:1043A000B4010020FCF7D2FEFEF70EF9FDF778FF0E
:1043B000FDF7F8FEFEF702F8FEF75EF8FDF7D4FF12
:1043C000FEF7C2F8FDF71EFF00F00EF8FEE701460B
:1043D0000020842900D0C81C704710B500B9012006
:1043E00000F022FF002010BD10B500F0D1FF00202A
:1043F00010BD03C8002201F089B800002DE9FF417B
:104400000D004FF00006CDE9016507461ED00024DF
:104410000396501C1FD002B11446FFF783FD694676
:104420004FF01008E8B103AA2846091D01F09AFAD6
:10443000012813D000960398F0B115494FF0805031
:104440000860BFF34F8FBFF36F8F15E080203146B8
:104450002A46009012E04FF0FF34DEE7CDF80080EE
:10446000E9E7002322462846091D01F073F80128D8
:1044700008D054B1402000909DE8070087E807006D
:10448000BDE8FF81CDF80080F6E70020F3E70000EB
:1044900004ED00E037B5054682B00020009014001E
:1044A00000D10124FFF73EFD4FF0000388B16A46BA
:1044B00003A9284601F0F8F9012811D1009890B11C
:1044C0000A494FF080500860BFF34F8FBFF36F8FE2
:1044D00009E0224603A9284601F036F9012802D056
:1044E000FF2005B030BD0020FBE7000004ED00E038
:1044F00010B501F0E7FA012803D0BDE8104000F044
:10450000EFBF10BD3EB504460D46B0F90800FFF7F9
:104510005EFF02A9CDE90001208A2B4682B2D4E9D0
:10452000001001F0A3FA012801D000203EBD02983E
:104530003EBD000008B500680090012907D00020AA
:1045400013460246012103A001F01CFC08BD012016
:10455000F6E70000000000002DE9FC4100250746B9
:104560002E4601950C0000D10124FFF7DBFC0096DC
:1045700090B101AB22460921384601F04FFC0128D9
:1045800012D1019888B10A494FF080500860BFF3FA
:104590004F8FBFF36F8F08E0002322460421384677
:1045A00001F03CFC012800D0FF252846BDE8FC8135
:1045B00004ED00E02DE9F041184C0F460546E66891
:1045C0002068001D00F01AFD38B9206890F82C1002
:1045D00001208840216981432161681C07D137B1DE
:1045E0002168BDE8F0410E48091D00F03FBD20687C
:1045F0003544B5424560216805D2A06BBDE8F04165
:10460000091D00F01BBD606B091D00F017FDA06ABD
:10461000854200D2A562BDE8F08100009000002034
:104620009C2F00202DE9F041054600F02BFD2E4C7B
:10463000A068401CA06020682C4F10B1606940B396
:104640002DE02560A068012829D1002606EB860010
:1046500007EB800000F0E4FC761C072EF6D323481D
:104660008C3000F0DDFC2148A03000F0D9FC1F4860
:10467000B43000F0D5FC1D48C83000F0D1FC1B4818
:10468000DC3000F0CDFC19488C3060631430A0633E
:1046900005E02068E96AC06A884200D82560606A3F
:1046A000401C6062E96A0120226988401043206151
:1046B00001EB810007EB8000291D00F0D7FC00F022
:1046C00001FD606900280CD02068E96AC06A884250
:1046D00007D207494FF080500860BFF34F8FBFF3F8
:1046E0006F8FBDE8F081000090000020C02E0020F8
:1046F00004ED00E010B500F0C5FC0E4C2068A0B938
:104700000D4800F08DFC0C48143000F089FC0A487C
:10471000E0601430206100220C210A2000F0F6FE37
:10472000206010B105A100F049FDBDE8104000F087
:10473000C9BC0000CC000020B02F0020546D725185
:104740000000000070B5114E114C17E000F058FE4B
:104750003068B8B101F0B4FA00F094FCF068C568B4
:10476000281D00F04BFCA068401EA0606068401E41
:10477000606000F0A7FC284600F055F8606800284B
:10478000E4D170BD01F09CFAF8E70000882F00200A
:104790009000002030B4026C0B46002A0BD0C16898
:1047A0001144C1604468A14201D30168C16030BCBA
:1047B0001846FBF713BD30BC70472DE9F041856BFF
:1047C000174604460026026C82B1C7B1E068FBF7C9
:1047D00005FDE168206C091AE1602268914202D26D
:1047E0006168081AE060022F16D017E02068A8B9A7
:1047F000606801F0DFF90646002060600EE0A06806
:10480000FBF7ECFC216CA0680844A060616888425A
:1048100004D32068A06001E005B16D1E6D1CA56386
:104820003046BDE8F08110B50446006B00F05EFC38
:104830002046BDE8104000F059BC000010484FF47D
:104840002051420706D0C01D0D4920F00700411A33
:10485000C1F520510B4A00230144C2E90003083985
:10486000103A21F0070111604B600B600B1AC0E990
:10487000001393604FF000405360D0607047000019
:10488000800600207C000020074C4FF08056074D2A
:10489000FFF758FF20680128FAD92E60BFF34F8F29
:1048A000BFF36F8FF4E70000C02E002004ED00E09E
:1048B0002DE9F0479A46DDE9098481466FF003034C
:1048C000206B03EB82021044089D20F0070670075E
:1048D00007D0502080F31188BFF34F8FBFF36F8F45
:1048E000FEE723180A5C83F834200A5C12B1401CEE
:1048F0001028F6D3002784F84370072D00D306252F
:10490000E562C4E91157201D00F095FB04F1180081
:1049100000F091FB2461C5F107006462A061E764C7
:1049200084F8507052464946304600F03DFA206007
:10493000B8F1000F01D0C8F80040BDE8F0870000D2
:1049400030B5114900E011460A688242FBD34B683A
:104950005C18844203D140681844486008464368A4
:104960001C18944209D1084C103C2468A24209D07A
:1049700052681A4442600A6812680260814200D09C
:10498000086030BD0460F9E77C00002070B50024A9
:1049900041600B4D0061914206D8D11A8269914263
:1049A00006D2011D286907E09A4203D2994201D339
:1049B000012403E0011DE86800F040FB204670BDC3
:1049C000CC00002010B5044600F05CFBA06B28B1C1
:1049D0005FF0000400F076FB204610BD0124F9E7EB
:1049E00030B587B02B4D4BE00498002848DB069C7F
:1049F000606910B1201D00F001FB02A800F0B6F8BC
:104A0000024604980A283BD2DFE800F00505053A83
:104A1000263705053A260598A16903460144204634
:104A2000FFF7B4FF00B3616A20468847E0690128B8
:104A300026D1002000900598A1690023421819464C
:104A4000204601F0EBF978B9502080F31188BFF3CC
:104A50004F8FBFF36F8FFEE70598A06128B18118D3
:104A600013462046FFF792FF0AE0502080F311889A
:104A7000BFF34F8FBFF36F8FFEE7204600F036FB8A
:104A800000231A4604A9286800F064FD0028ABD171
:104A900007B030BDCC0000202DE9FC410F46054693
:104AA00000F0AEFC01A800F061F80446019818B1CE
:104AB00001F006F9BDE8FC81224EAFB13069006813
:104AC000A8B30027291B3A46306800F08BFB01F0A1
:104AD000F7F80028EED11C494FF080500860BFF372
:104AE0004F8FBFF36F8FE5E7A542EBD801F0E8F8F1
:104AF000F0682746C068C468201D00F07FFAE069AE
:104B0000012810D1A0692B4641193A462046FFF7EB
:104B10003DFF40B100200346014600902A46204652
:104B200001F07CF920B1616A20468847C2E707E0BE
:104B3000502080F31188BFF34F8FBFF36F8FFEE7D4
:104B40000127BFE7CC00002004ED00E00648416BE0
:104B5000096829B1416BC968C968496881627047B1
:104B60004FF0FF31FAE700009000002070B50546D5
:104B700000F0B6FF064E0446B068844203D200F04F
:104B800009F8012000E0002028602046B46070BDD4
:104B9000CC000020F8B5194D1FE0C068C468066855
:104BA000201D00F02BFA616A20468847E069012841
:104BB00013D1A0693044B04206D924616060211D40
:104BC000E86800F03BFA08E0002003460146009048
:104BD0003246204601F022F938B1E8680168002920
:104BE000DBD12969C5E90310F8BD502080F3118895
:104BF000BFF34F8FBFF36F8FFEE70000CC000020A4
:104C000008484068401C4FF0500080F3118804D0E1
:104C1000BFF34F8FBFF36F8FFEE7BFF34F8FBFF32D
:104C20006F8FFEE784000020074CE068016841B107
:104C3000C0680021D0F80000FFF72EFFFFF7D0FE7C
:104C4000F3E701210020F7E7CC0000202DE9F04137
:104C5000044600F017FA94F9455004F1240609E0DF
:104C6000606A48B1304600F0F1FF08B100F002FB85
:104C70006D1E6DB2002DF3DC4FF0FF3684F84560F9
:104C800000F020FA00F0FEF994F9445004F1100706
:104C900009E0206948B1384600F0D8FF08B100F0BB
:104CA000E9FA6D1E6DB2002DF3DC84F84460BDE8B6
:104CB000F04100F007BA00002DE9F0410546002759
:104CC00000F09EFB314E306808B9FFF7B7FDF06881
:104CD00005424BD1C5B3083568070ED005F0070073
:104CE000C0F108000544680707D0502080F3118800
:104CF000BFF34F8FBFF36F8FFEE72DB37068854210
:104D000034D82248103001460C6801E020460C4699
:104D10006168A94202D221680029F7D131688C422A
:104D200024D007682168016060680837411B10299A
:104D30000FD96019420708D0502080F31188BFF3C3
:104D40004F8FBFF36F8FFEE710E041606560FFF7A4
:104D5000F7FD61687068401A7060B268904200D2D6
:104D6000B060F06801430020C4E9000100F0A8FF32
:104D7000780707D0502080F31188BFF34F8FBFF31F
:104D80006F8FFEE73846BDE8F08100006C00002020
:104D90000449086818B10868826C521C826408686B
:104DA000704700009000002010B5031F4FF0807482
:104DB0001C601B1F21F001011960191F024B0B60C1
:104DC000143940380A6010BD014C000810B5064A7D
:104DD00000214FF4806328B1FF245454491C9942A8
:104DE000F9D310BD0024F8E78002002010B500F0D0
:104DF0005FF86420FFF7F1FAAE2000F09DF8202064
:104E000000F09AF8102000F097F8B02000F094F825
:104E1000C82000F091F8002000F08EF8102000F07B
:104E20008BF8402000F088F8812000F085F8FF2002
:104E300000F082F8A12000F07FF8A62000F07CF8B6
:104E4000A82000F079F83F2000F076F8A42000F0C8
:104E500073F8D32000F070F8002000F06DF8D52032
:104E600000F06AF8F02000F067F8D92000F064F84C
:104E7000222000F061F8DA2000F05EF8122000F045
:104E80005BF8DB2000F058F8202000F055F88D206A
:104E900000F052F8142000F04FF8AF2000F04CF86A
:104EA0000020FFF793FFBDE8104000F017B80000A6
:104EB00070B5094D4FF48054002221462846FBF777
:104EC000D2FF4FF44870FFF788FA21462846BDE824
:104ED00070400122FBF7C7BF000C014070B50C4DBC
:104EE000002400BF04F1B000C0B200F025F800209B
:104EF00000F022F8102000F01FF805EBC41080210C
:104F000000F02CF8641CE4B2082CEBD370BD000058
:104F10008002002001B584B00121642204A88DE83C
:104F200007000B46402278210248FCF747F805B0FD
:104F300000BD00002001002001B584B001210A223B
:104F400004A88DE807000B46002278210248FCF7F0
:104F500035F805B000BD0000200100200EB5642228
:104F60008DE807000123402278210248FCF726F84B
:104F70000EBD00002001002010B508A0FDF760FD67
:104F80000CA20FA111A0FDF75BFD01230022BDE8DB
:104F90001040114612A0FDF753BD000073797374E1
:104FA000656D207374617274696E672E2E2E0D0A02
:104FB0000000000032333A31353A3135000000004C
:104FC0004175672031382032303230004657206238
:104FD00075696C64202573202025730D0A0000007C
:104FE00076657273696F6E2025642E25642E2564A4
:104FF0005F616C7068610D0A00000000D0E9013249
:1050000001699A60D0E901235A604A68824201D15D
:1050100082684A60002202610868401E086070478A
:1050200000F108014FF0FF32C0E90112C1600161D7
:1050300000210160704700210161704730B50B68A5
:105040005A1C02D000F1080202E0026904E0224684
:10505000546825689D42FAD953684B6099608A600C
:10506000516008610168491C016030BD42684A60B6
:1050700093688B6093685960916008610168491C6E
:1050800001607047502080F31188BFF34F8FBFF34A
:105090006F8F0A494868401C486001280CD10848B5
:1050A000006810F0FF0F07D0502080F31188BFF385
:1050B0004F8FBFF36F8FFEE7704700008400002022
:1050C00004ED00E00849486828B1401E486001D15D
:1050D00080F311887047502080F31188BFF34F8F01
:1050E000BFF36F8FFEE700008400002070B500283A
:1050F00027D0144DA0F108046168E868014207D187
:10510000502080F31188BFF34F8FBFF36F8FFEE7FE
:1051100022683AB1502080F31188BFF34F8FBFF35C
:105120006F8FFEE78143616000F06AF9606869682B
:10513000084468602046FFF703FCBDE8704000F0BB
:10514000BFBD70BD6C00002006484FF47A71006846
:10515000B0FBF1F14FF0E020491E416107210161F0
:10516000704700006800002010B5FBF711F81149E6
:1051700010280ED300F1E02090F8F0030A78904256
:1051800007D2502080F31188BFF34F8FBFF36F8F8A
:10519000FEE709480068896800F4E060884207D9A2
:1051A000502080F31188BFF34F8FBFF36F8FFEE75E
:1051B00010BD0000840000200CED00E010B5084B8D
:1051C000002200BF53F832401CB1521C082AF9D308
:1051D00010BD43F8321003EBC201486010BD00005F
:1051E000802E002070B515460E460446FFF74AFF94
:1051F00094F944100020491C01D184F8440094F92A
:105200004510491C01D184F84500FFF75BFFA06BF6
:1052100028B92A46314604F1240000F049F8204616
:10522000BDE87040FFF712BD10B5020014D00F4862
:10523000006B38B1502080F31188BFF34F8FBFF35C
:105240006F8FFEE700F0DCF800211046FFF7B2F99F
:1052500000F036FD002807D105494FF08050086066
:10526000BFF34F8FBFF36F8F10BD00009000002081
:1052700004ED00E001490120C86170479000002062
:1052800010B50C4650B1094909681831FFF7D6FE30
:105290002046BDE810400121FFF78CB9502080F373
:1052A0001188BFF34F8FBFF36F8FFEE79000002090
:1052B00070B514460D4668B10A4909681831FFF700
:1052C000D5FE0CB14FF0FF3521462846BDE87040B1
:1052D000FFF770B9502080F31188BFF34F8FBFF3F1
:1052E0006F8FFEE79000002070B5040039D01D4D8F
:1052F000E06A2968C96A884233D2A069002804DBC1
:105300002868C06AC0F10700A061E16A164E01EB8F
:105310008101606906EB810188421FD1201DFFF7E2
:105320006DFE012150B9E06A00EB800256F82220A0
:1053300022B92A6901FA00F082432A612868C06A0A
:10534000E0622A6981401143296100EB800006EB8D
:105350008000211DBDE87040FFF788BE2868C06A44
:10536000E06270BD90000020C02E002028B10749E7
:105370000A6A0260C96841607047502080F3118852
:10538000BFF34F8FBFF36F8FFEE700009000002048
:105390001CB517480024CDE900402346402215A142
:1053A000164800F063FB012803D100F013FD01282B
:1053B00009D0401C1AD1502080F31188BFF34F8FC1
:1053C000BFF36F8FFEE7502080F31188BFF34F8F3C
:1053D000BFF36F8F06484FF0FF312C3881620121F7
:1053E0004161C460BDE81C4000F040B81CBD000035
:1053F000BC00002049444C450000000089480008DA
:105400000248016B491C01637047000090000020B6
:105410001448016B11B10121C16170470021C161C4
:105420000169B1FA81F1C1F11F0101EB81020E495D
:1054300051F822306BB101EB820101F108034A6897
:1054400052684A609A4201D152684A60D16801604C
:105450007047502080F31188BFF34F8FBFF36F8FD9
:10546000FEE7000090000020C02E00201CB5194966
:1054700008780190FF20087008788DF800009DF8EA
:105480000000154A00F0500010700720906005E001
:105490009DF800305B008DF80030401E9DF8003014
:1054A0001B06F5D4000200F4E060906001980870DB
:1054B0000A48016841F470010160016841F07041DF
:1054C0000160FFF741FE00205060FAF72BFE00203C
:1054D0001CBD000000E400E08400002020ED00E09E
:1054E00010B5502080F31188BFF34F8FBFF36F8F3B
:1054F00000F0FCFA18B104494FF080500860002019
:1055000080F3118810BD000004ED00E070B50E4678
:10551000050013D0D6B105FB06F04830FFF7CCFBF1
:10552000040009D004F1480120468EB10160C0E9B1
:105530000F56012100F0C4F8204670BD502080F3C2
:105540001188BFF34F8FBFF36F8FFEE70020E4E7B2
:105550000060ECE72DE9FF4F002683B09B468A46AA
:10556000040003D0BAF1000F08D011E0502080F3FE
:105570001188BFF34F8FBFF36F8FFEE7206C38B1F8
:10558000502080F31188BFF34F8FBFF36F8FFEE77A
:1055900000F098FADFF824814FF000094FF08057AF
:1055A00048B9059838B1502080F31188BFF34F8F68
:1055B000BFF36F8FFEE7FFF765FDA56B45B351465F
:1055C0002046E668FFF7E6F8BBF1000F13D0E6606F
:1055D000606A50B104F1240000F038FB28B1C8F82B
:1055E0000070BFF34F8FBFF36F8FFFF76BFD01208C
:1055F00007B0BDE8F08F6D1EA563206810B9FFF7F6
:10560000C7FB606020690028EFD004F11000E3E7D9
:10561000059808B11EB106E0FFF754FD27E0684683
:10562000FFF7A4FE0126FFF74DFDFFF7E9FEFFF7A8
:1056300029FD94F94400401C01D184F8449094F968
:105640004500401C01D184F84590FFF73BFD05A9BA
:10565000684600F0D5F9002820460AD0FFF7F6FA90
:1056600000F02EFB2046FFF7ADF90028A3D0002064
:10567000BEE7FFF7A7F9D8B1206830B9FFF702FD00
:105680006068FFF731FEFFF71DFD04F12400059966
:10569000FFF7F6FD2046FFF7D9FA00F011FB0028CE
:1056A00089D1C8F80070BFF34F8FBFF36F8F82E7C7
:1056B0002046FFF7CBFA00F003FB7CE704ED00E0A7
:1056C00070B50D46040025D0FFF7DCFCD4E90F20AF
:1056D000216802FB001161600021A1632168A160C3
:1056E0000A46D4E90F01401E00FB0121E16021467A
:1056F0004FF0FF3001F8440F487004F110008DB1F5
:10570000FFF78EFC04F12400FFF78AFCFFF7DAFCB8
:10571000012070BD502080F31188BFF34F8FBFF37D
:105720006F8FFEE721690029F0D000F08FFA002882
:10573000ECD004494FF080500860BFF34F8FBFF3A7
:105740006F8FE3E704ED00E02DE9FF4782B01D46CF
:105750008A464FF00008040003D0BAF1000F08D0C9
:1057600011E0502080F31188BFF34F8FBFF36F8F8C
:10577000FEE7206C38B1502080F31188BFF34F8FC3
:10578000BFF36F8FFEE7022D0AD1E06B012807D02F
:10579000502080F31188BFF34F8FBFF36F8FFEE768
:1057A00000F090F93F4F4FF000094FF0805648B994
:1057B000049838B1502080F31188BFF34F8FBFF3A6
:1057C0006F8FFEE7FFF75EFCA06BE16B884207D3AB
:1057D000022D05D00498D0B1B8F1000F1AD01EE008
:1057E0002A4651462046FEF7E8FF616A19B104F1E6
:1057F000240000F02BFA20B13E60BFF34F8FBFF3BF
:105800006F8FFFF75FFC012006B0BDE8F087FFF760
:1058100059FC22E06846FFF7A9FD4FF00108FFF7A9
:1058200051FCFFF7EDFDFFF72DFC94F94400401CFF
:1058300001D184F8449094F94500401C01D184F8CA
:105840004590FFF73FFC04A9684600F0D9F830B155
:105850002046FFF7FBF900F033FA0020D4E7FFF70A
:1058600011FCA06BE16B884213D1FFF72BFC04F114
:1058700010000499FFF704FD2046FFF7E7F900F058
:105880001FFA00289ED13E60BFF34F8FBFF36F8F8A
:1058900098E7FFF717FC2046FFF7D8F900F010FA59
:1058A00090E7000004ED00E02DE9F0471F46904628
:1058B0008946040003D0B9F1000F08D011E0502050
:1058C00080F31188BFF34F8FBFF36F8FFEE7206C1B
:1058D00038B1502080F31188BFF34F8FBFF36F8F23
:1058E000FEE7022F0AD1E06B012807D0502080F399
:1058F0001188BFF34F8FBFF36F8FFEE7FFF734FCC4
:105900005020EFF3118680F31188BFF34F8FBFF360
:105910006F8FA06BE16B884206D3022F04D000206A
:1059200086F31188BDE8F08794F945503A46494618
:105930002046FEF742FF681C04D06D1C84F84550D9
:105940000120EDE7606A0028FAD004F1240000F09D
:105950007DF90028F4D0B8F1000FF1D00121C8F88A
:105960000010EDE72DE9F04790468946040003D08A
:10597000B9F1000F08D011E0502080F31188BFF377
:105980004F8FBFF36F8FFEE7206C38B1502080F34C
:105990001188BFF34F8FBFF36F8FFEE7FFF7E4FB74
:1059A0005020EFF3118680F31188BFF34F8FBFF3C0
:1059B0006F8FA76BF7B194F9445049462046FEF724
:1059C000E9FE7F1EA763681C04D06D1C84F8445058
:1059D000012010E020690028FAD004F1100000F046
:1059E00035F90028F4D0B8F1000FF1D00121C8F842
:1059F0000010EDE7002086F31188BDE8F087000075
:105A000070B50D46040019D005B3FFF73BFB164AED
:105A1000D1682868431C0FD02368126A934202D0D1
:105A200062688A421AD96268891A814216D2401A7B
:105A300028602046FFF79AFC002410E0502080F3F5
:105A40001188BFF34F8FBFF36F8FFEE7502080F3B5
:105A50001188BFF34F8FBFF36F8FFEE70124FFF76D
:105A600031FB204670BD0000900000202DE9FF5F53
:105A70008346DDE90E87994616468A469000FFF771
:105A80001BF905001AD05420FFF716F9040012D0B4
:105A900025630021CDE90241CDE900874B4632461E
:105AA00051465846FEF704FF2046FEF7BBFD012095
:105AB00004B0BDE8F09F2846FFF718FB4FF0FF3019
:105AC000F6E700000548416919B1006B18B10020E4
:105AD00070470120704702207047000090000020AE
