:020000040800F2
:10000000B0330020990100085B220008291C000879
:10001000592200086D070008E926000800000000CA
:1000200000000000000000000000000001010008C6
:100030006F07000800000000450100088922000841
:10004000B3010008B3010008B3010008B3010008C0
:10005000B3010008B3010008B3010008B3010008B0
:10006000B3010008B3010008B3010008B3010008A0
:10007000B3010008B3010008B3010008B301000890
:10008000B3010008B3010008B3010008B301000880
:10009000B3010008B3010008B3010008B301000870
:1000A000B301000851230008B3010008B3010008A0
:1000B000B3010008B3010008B3010008B301000850
:1000C000B3010008B3010008B3010008B301000840
:1000D000B3010008B3010008B3010008B301000830
:1000E00071070008B3010008B3010008DFF80CD065
:1000F00000F086FA0048004711330008B0330020B2
:10010000224B19680868B0E8F00F80F30988BFF344
:100110006F8F4FF0000080F311884EF00D0E704786
:100120000000000006480068006880F3088862B696
:1001300061B6BFF34F8FBFF36F8F00DF00BF00BF0B
:1001400008ED00E0EFF30980BFF36F8F0F4B1A68E3
:1001500020E9F00F106008B54FF0500080F31188CF
:10016000BFF34F8FBFF36F8F04F0F6F84FF000002E
:1001700080F31188BDE8084019680868B0E8F00FFE
:1001800080F30988BFF36F8F704700BF7C000020A9
:10019000EFF3058070470000064880470648004797
:1001A000FEE7FEE7FEE7FEE7FEE7FEE7FEE7FEE727
:1001B000FEE7FEE709230008ED000008202A04DB23
:1001C000203A21FA02F00021704721FA02F3D040D0
:1001D000C2F12002914008431946704740EA0103EA
:1001E0009B0703D009E008C9121F08C0042AFAD2ED
:1001F00003E011F8013B00F8013B521EF9D27047B1
:1002000030B50B46014600202022012409E021FAE6
:1002100002F59D4205D303FA02F5491B04FA02F5E3
:100220002844151EA2F10102F1DC30BD2DE9F05F7A
:100230000546002092469B46884606468146402455
:100240001BE02846414647462246FFF7B7FF534684
:100250005A46C01A914110D311461846224600F062
:10026000E1F92D1A67EB01084F46224601200021D3
:1002700000F0D8F917EB00094E41201EA4F101044B
:10028000DFDC484631462A464346BDE8F09F2DE96B
:10029000FE4F804681EA0300C00F0C46009021F01B
:1002A000004123F00045B8EB0200A94105D24046C9
:1002B000214690461C460B46024623F00040104360
:1002C00047D0270DC7F30A00C3F30A510290401A22
:1002D000019040286BDAC3F3130040F4801B0098B0
:1002E000924620B10023D2EB030A63EB0B0B01987B
:1002F0005946C0F14002504600F094F906460D46BA
:1003000050465946019A00F09CF910EB08006141F3
:10031000002487EA115284EAE7731A4340D0009A16
:1003200062B3019A012A4FEA075215DC001B61EB08
:1003300002014FF0004202EA0752CDE90042001CE0
:1003400041F5801132462B4600F09CF903B0BDE820
:10035000F08F40462146F9E7001B61EB0201001CCB
:1003600041F5801300185B412018A2F5001747EBF8
:10037000030140EAD570B6196D4111E06D084FEAEE
:10038000360645EAC0754FEA0752001B61EB0201D1
:10039000001C41F5801149084FEA30000019514115
:1003A00032462B4603B0BDE8F04F00F05CB9009830
:1003B000012240000023D0EB020263EBE0730098BF
:1003C00021464FEAE074B8EB000061EB0401E9E775
:1003D00083F000435BE781F0004158E72DE9FE4FD1
:1003E00081EA030404F0004421F0004100944FF03E
:1003F000000B23F0004350EA01045ED052EA0304EC
:100400005BD0C3F30A54C1F30A552C44A4F2F3346D
:100410000194A0FB0254C1F3130141F48011C3F312
:10042000130343F4801301FB024400FB034E840AD0
:10043000970A44EA815447EA8357A4FB0768029568
:100440008D0A05FB07854FEA932C04FB0C54270506
:10045000029D4FEA065847EA1637B5EB08056EEBE2
:10046000070C870E920E47EA811742EA8312A7FB18
:100470000201B6EB0B0164EB00042B0D43EA0C33D5
:100480005E1844EB1C50DA465146E7FB0201C5F307
:1004900013044FEA0B3343EA14534FEA0432019C2E
:1004A00043EA0603A4F10C040294009CCDE900B4D5
:1004B00000F0E8F803B0BDE8F08F00200146F9E74E
:1004C0002DE9F04D81EA030404F0004B21F00045D2
:1004D00014464FF0000A23F0004150EA050220D0F4
:1004E00054EA01021DD0C5F30A570246C5F31303AF
:1004F000C1F31300C1F30A5640F4801543F480138E
:10050000A7EB0608101BD64608F2FD3873EB050072
:1005100002D308F1010801E092185B41B8F1000F25
:1005200003DA00200146BDE8F08D00204FF4801171
:10053000064684460EE0171B73EB050705D3121B16
:1005400063EB050306434CEA010C49084FEA30000F
:1005500092185B4150EA0107EDD152EA030012D034
:1005600082EA040083EA0501084305D0101BAB4171
:1005700006D20122002306E000224FF0004302E0F1
:100580006FF0010253101AEB06004CEB085110EB10
:100590000A0041EB0B01BDE8F04D00F064B8C1F377
:1005A0000A52C1F3130140F2FF3341F480119A4221
:1005B00002DA00200146704740F233439A42A2F229
:1005C000334202DC5242FFF7F9BD00F02BB80000C5
:1005D00030B5041E71F1000404DB4FF000444042CA
:1005E00064EB0101141E73F1000405DB1C464FF09F
:1005F0000043524263EB0403994208BF904230BD6E
:10060000064C074D06E0E06840F0010394E807005F
:1006100098471034AC42F6D3FFF76CFD1858000829
:1006200038580008202A04DB203A00FA02F10020A2
:1006300070479140C2F1200320FA03F31943904020
:100640007047202A06DBCB17203A41FA02F043EA32
:10065000E07306E041FA02F3D040C2F1200291407B
:1006600008431946704710B5141E73F1000408DAE8
:10067000401C41F1000192185B411A4301D120F066
:10068000010010BD2DE9F04D92469B4611B1B1FA23
:1006900081F202E0B0FA80F220329046FFF7C2FF0A
:1006A00004460F4640EA0A0041EA0B0153465A4607
:1006B000084313D0114653EA010019D0C8F1400293
:1006C0005046FFF77BFD05460E46504659464246CA
:1006D000FFF7A8FF084305D0012004E02046394673
:1006E000BDE8F08D0020054346EAE0762C43374311
:1006F0000A986305E40AA0EB08000022FD0A44EA18
:1007000047540A3002D500200146E9E701051019D7
:100710006941DDE9084500196941BDE8F04DA2E7EE
:1007200070B5044600688168C943C9071CD1816857
:1007300021F00101816000F049FA05460FE000BF99
:1007400000F044FA401B022809D9A06A40F01000CA
:10075000A062E06A40F00100E062012070BD206804
:100760008068C043C007EBD0002070BDFEE7704733
:100770004FF4004000F036B9F8B50024009490F82A
:1007800024202546012A12D0012280F824204A681C
:100790001F23072A0DD20668776B521E02EB8202D6
:1007A00093409F430B6893401F43776319E00220F7
:1007B000F8BD06680D2A0AD2376BD21F02EB8202FF
:1007C00093409F430B6893401F43376309E0F76AE8
:1007D0000D3A02EB820293409F430B6893401F4304
:1007E000F7620A68072306680A2A0AD3F7680A3AF2
:1007F00002EB420293409F438B6893401F43F76094
:1008000008E0376902EB420293409F438B689340B4
:100810001F4337610A68102A01D0112A20D1124BD8
:1008200002689A4217D193681B0219D4936843F463
:10083000000393600968102912D10C490C4A096819
:10084000B1FBF2F101EB8101490000E0491E00918A
:100850000029FBD104E0816A41F02001816201247A
:1008600080F824502046F8BD0024014054000020A8
:1008700040420F002DE9F0414FF0000704003D46D3
:100880007ED0A06A002628B9E66284F8246020465B
:1008900000F07EF82046FFF743FFA16AC90600D4A6
:1008A00020B1A06A40F01000A06269E0A16A21F4C2
:1008B000885141F00201A1626268E169E3680A437C
:1008C00047EA43010A43A1684FF48077B94209D04F
:1008D000012907D05FF00001D4F814C0BCF1010F6A
:1008E00002D00AE03946F7E7F3B1A36A43F02003E8
:1008F000A362E36A43F00103E3622368D3F804C010
:100900002CF4694C4CEA010CC3F804C021688B68D4
:10091000DFF870C003EA0C0313438B60A168B9428F
:100920000BD0012909D00CE0DFF85CC0A3690CEB07
:1009300043330B4343F40061DFE7218A0D05A5F53E
:1009400080152168CB6A23F470032B43CB622168A6
:1009500089680E4B1940914208D1E662A16A21F0E4
:10096000020141F00101A162BDE8F081A06A20F01E
:10097000020040F01000A062E06A40F00100E06276
:100980000120F1E7FDF7E1FF00E0FFFFFE0E1FFF92
:1009900010B500680E4986B0884217D10D488169AC
:1009A00041F4007181618069032400F400700490B7
:1009B0001020CDE900046946074800F01FF8022026
:1009C000CDE900046946054800F018F806B010BDEE
:1009D000002401400010024000080140000C0140CA
:1009E00070470000044910B50A68024202D008604E
:1009F000FFF7F6FF10BD0000140401402DE9F84F89
:100A0000DFF890A100220AF1040B144601274FF0F1
:100A10000F090BF1040E00BF0B6807FA04F52B4019
:100A2000AB4274D1DFF870C14E68A6EB0C08664586
:100A30002BD00DDC032E34D005DC36B3012E19D0BB
:100A4000022E2FD11BE0112E16D0122E2AD119E022
:100A5000B8F5881F19D006DCB8F5803F15D0B8F579
:100A6000801F1FD111E0B8F5001F0ED0B8F5041F8C
:100A700018D10AE0CA6815E0CA68121D12E0CA68F7
:100A800008320FE0CA680C320CE08A682AB1012AE9
:100A90004FF0080203D0456104E0042202E0056142
:100AA00000E00022FF2B01D8064601E000F1040619
:100AB0004FEA840501D9A5F12005D6F800C009FA4E
:100AC00005F82CEA080C02FA05F54CEA050CC6F804
:100AD00000C04D68ED0057D5304DAE6946F00106B7
:100AE000AE61AD6924F0030605F0010500952C4DBB
:100AF00006EB050CDCF80850A6074FEA167809FA51
:100B000008F6B543274EB04202D1002610E03BE084
:100B1000254EB04201D101260AE0244EB04201D157
:100B2000022605E0224EB04201D1032600E0042651
:100B300006FA08F62E43CCF808604D68DAF8006033
:100B4000ED03554601D51E4300E09E432E604D68DF
:100B5000DBF80060AD035D4601D51E4300E09E4317
:100B60002E604D68DEF80060ED02754601D51E432B
:100B700000E09E432E604D68AD020E4D2E6801D5FB
:100B80001E4300E09E432E60641C102CFFF444AF13
:100B9000BDE8F88F00040140000011100010024071
:100BA0000000014000080140000C0140001001401D
:100BB000001401400C0401408068084000D001206E
:100BC00070470AB1016170470904FBE7014880687A
:100BD000704700004800002070B504001BD094F856
:100BE0003D00002520B984F83C50204600F032F941
:100BF000242084F83D002068016821F00101016093
:100C000000F06AFB404A6168914201D83F4900E028
:100C10003F49884201D2012070BD3E492368B0FBA4
:100C2000F1F159606368934206D94FF496735943C2
:100C30004FF47A73B1FBF3F12368491C19626168C0
:100C4000914210D84900401EB0FBF1F2521CC2F391
:100C50000B02042A01D2042022E0B0FBF1F0401C78
:100C6000C0F30B001CE0A368CBB301EBC10202EBA5
:100C70000116421EB2FBF6F2521C42F480421205EB
:100C800036D06BB301EBC10202EB0111401EB0FB89
:100C9000F1F0401CC0F30B0040F4804040F40040F1
:100CA0002168C861D4E90701084321680860D4E9D4
:100CB0000310084321688860D4E9050108432168CE
:100CC000C8602068016841F00101016025642020AE
:100CD00084F83D00256384F83E50002070BD00E09C
:100CE00008E001EB4106421EB2FBF6F2521CC6E7D9
:100CF0000120D5E701EB4101401EB0FBF1F0401CA3
:100D0000C0F30B00CAE70000A086010080841E002B
:100D100000093D0040420F002DE9FF4F83B09A4685
:100D2000DDE9118793460446DDF84090FFF74EFF5A
:100D3000064694F83D0020287DD11923012243491D
:100D40002046009600F0FDFF00287CD194F83C007E
:100D5000012878D0012084F83C0020680168C90788
:100D600003D1016841F0010101602068016821F4AC
:100D700000610160212084F83D00402084F83E009D
:100D800000252564C4F82490A4F82A803048E06245
:100D9000608D2085CDE9007653465A462046049959
:100DA00000F058FF80B3206C84F83C50042848D0F1
:100DB00008E032463946204601F038F830B1206C60
:100DC000042839D0032007B0BDE8F08F606A411CC9
:100DD0006162216800780861208D401E80B2208504
:100DE000618D491E618521684A69D24352070BD43F
:100DF00068B1606A421C626200780861208D401E02
:100E00002085608D401E6085208D0028D1D132461E
:100E10003946204600F06EFF0028D0D154F83D0B33
:100E2000016841F400710160202004F81E09E57793
:100E300065770020C7E706E02068016841F400718B
:100E400001600120BFE70220BDE7000002001000A2
:100E50000000FFFF00B500680C4985B0884213D13F
:100E60004FF44060009012200190032003906946E7
:100E70000748FFF7C3FD0748C16941F48001C1611C
:100E8000C06900F48000049005B000BD0058004027
:100E9000000C0140001002400248816802781144B1
:100EA0008160704748000020074810B5016841F094
:100EB00010010160032000F0B7F8002000F006F8F0
:100EC00000F03EF8002010BD0020024000B50146B1
:100ED00087B00022192000F087F8192000F078F878
:100EE0001348816941F400618161806905A900F4BA
:100EF00000600690684600F0C9F900F0FDF90D4960
:100F00000D4AB0FBF1F10D48491E0260416040F20C
:100F1000E7320021C0E90321816000F0FFFB10B13E
:100F2000012007B000BD054800F034FCF9E70000DF
:100F30000010024040420F00002C0140140200202B
:100F4000214808B5816941F001018161816901F0A1
:100F500001010091C16941F08051C161C06900F097
:100F600080500090032000F05FF8002211466FF0DF
:100F70000B0000F039F8002211466FF00A0000F073
:100F800033F8002211466FF0090000F02DF800221E
:100F90001146501F00F028F800221146101F00F0E3
:100FA00023F800220F21901E00F01EF800220F21CE
:100FB000501E00F019F80548416821F0E06141F049
:100FC0000071416008BD00000010024000000140B7
:100FD00000F01F02012191404009800000F1E02053
:100FE000C0F8001170470000F0B40E4B1B680C46AF
:100FF000C3F30223C3F10705042D00D90425191DED
:10100000072901D2002300E0DB1E012606FA05F1C4
:10101000491E214099409E40761E16403143F0BC47
:1010200001F01CB90CED00E0064900F00702086869
:101030004FF6FF03184040EA0220034A10430860BD
:10104000704700000CED00E00000FA052DE9F843C0
:1010500005460078354CC00754D0E0690026C00032
:1010600008D4E06940F08050E061E069012600F0BA
:10107000805000902E480168C90512D4016880464E
:1010800041F480710160FFF7A1FD074605E000BF54
:10109000FFF79CFDC01B642823D8D8F80000C005CA
:1010A000F6D5206A10F4407021D0A98801F440716F
:1010B00081421CD0206A1F49012220F440700A603E
:1010C00000220A602062C00711D0FFF77FFD0746AB
:1010D00041F2883808E000BFFFF778FDC11B4145A9
:1010E00002D90320BDE8F883206A8007F4D5206A7E
:1010F000696820F44070084320621EB1E06920F066
:101100008050E0612878800705D56068A96820F4E0
:101110004040084360602878C00605D56068E968EB
:1011200020F48000084360600020DBE700100240EC
:1011300000700040400442422DE9F047DFF83C8156
:1011400005460E46D8F8000000F00700B0420CD269
:10115000D8F8001021F007013143C8F80010D8F882
:10116000000000F00700B04263D12878444C8007AB
:1011700005D56068A96820F0F00008436060287811
:10118000C00745D06868012816D02168022816D00B
:10119000890700294DDA616821F00301014361608C
:1011A000FFF714FD6968074641F2883001290FD026
:1011B0000229814619D027E021688903E9E78901DE
:1011C000E7E700BFFFF702FDC11B494501D918E061
:1011D00081466068C0F381000128F3D118E000BFA8
:1011E000FFF7F4FCC11B49450BD86068C0F38100D0
:1011F0000228F5D10CE000BFFFF7E8FCC11B494510
:1012000002D90320BDE8F087606810F00C0FF3D11D
:10121000D8F80010404601F00701B1420BD901682F
:1012200021F0070131430160006800F00700B0427F
:1012300001D00120E6E72878400705D56068E96815
:1012400020F4E060084360602878000706D56068F5
:10125000296920F4605040EAC100606000F05CF849
:101260006168084AC1F30311515CC840064908602F
:101270000020FFF72BFE0020C4E700000020024002
:1012800000100240E0570008540000200F220260C6
:101290000C4A536803F003034360536803F0F00300
:1012A0008360536803F4E063C36052684FF4E06303
:1012B00003EAD20202610448006800F007000860F7
:1012C0007047000000100240002002400148006802
:1012D0007047000054000020044805490068496830
:1012E000044AC1F30221515CC840704754000020F9
:1012F00000100240F057000804480549006849689A
:10130000044AC1F3C221515CC84070475400002018
:1013100000100240F057000812A185B00FC98DE8F7
:101320000F0014A0144A006804905168134801F09B
:101330000C03042B10D0082B0ED1C1F38343C90337
:101340001DF803000AD5516804AAC1F34041515C5D
:101350000A4A5043B0FBF1F005B0704708494843D2
:10136000FAE7000002030405060708090A0B0C0D42
:101370000E0F1010010200000010024000127A004F
:1013800000093D002DE9F84F04460078B94DC0072B
:1013900048D06868C0F38100012807D06868C0F3AE
:1013A0008100022809D16868C00306D52868800337
:1013B00038D5606800286FD034E06068B0F5803FB1
:1013C0000BD010B1B0F5A02F11D0286820F48030D8
:1013D0002860286820F4802002E0286840F48030EB
:1013E0002860606888B1FFF7F1FB064609E02868CD
:1013F00040F480202860F0E7FFF7E8FB801B6428BA
:1014000075D828688003F7D50CE0FFF7DFFB0646A8
:1014100005E000BFFFF7DAFB801B6428F0D82868DE
:101420008003F7D42078944E80074FF001094FF0E5
:1014300000083BD5686810F00C0F07D06868C0F34F
:101440008100022809D16868C00306D42868800793
:1014500014D5206901281FD110E02069B0B1C6F869
:101460000090FFF7B3FB074605E000BFFFF7AEFBB8
:10147000C01B0228C4D828688007F7D5286861698E
:1014800020F0F80040EAC10028600FE0C6F80080B4
:10149000FFF79CFB074606E0E9E000BFFFF796FB7D
:1014A000C01B022823D828688007F7D420780007BB
:1014B0002CD57248A169D9B1C0F80090FFF786FB1E
:1014C000074604E0FFF782FBC01B02280FD8686ABA
:1014D0008007F7D56A484FF4FA510068B0FBF1F085
:1014E000009000BF0098411E0091FAD20EE080E00B
:1014F000C0F80080FFF76AFB074604E0FFF766FBD1
:10150000C01B022875D8686A8007F7D42078400786
:1015100060D5E8690027C00008D4E86940F0805031
:10152000E861E869012700F08050009055480168A3
:10153000C90513D40168834641F480710160FFF747
:1015400045FB824606E000BFFFF740FBA0EB0A0028
:1015500064284ED8DBF80000C005F5D5E068012806
:101560000AD008B1052813D0286A20F001002862AB
:10157000286A20F0040002E0286A40F00100286296
:10158000E06841F2883B98B1FFF720FB82460BE010
:10159000286A40F004002862EEE700BFFFF716FB60
:1015A000A0EB0A0159455AD8286A8007F6D50CE005
:1015B000FFF70CFB824605E0FFF708FBA0EB0A01F2
:1015C00059454CD8286A8007F6D41FB1E86920F045
:1015D0008050E861E06988B36968C1F3810102293C
:1015E00045D00228C6F8608004D0FFF7EFFA044621
:1015F00038E034E0FFF7EAFA074604E0FFF7E6FADE
:10160000C01B02282BD828688001F7D4206AB0F5C7
:10161000803F05D16868A16820F400300843686005
:10162000D4E908010843696821F47411084368602B
:10163000C6F86090FFF7CAFA044606E015E000BF5E
:10164000FFF7C4FA001B022809D828688001F7D5E3
:101650000BE000BFFFF7BAFA001B022802D90320F3
:10166000BDE8F88F28688001F4D40020F8E7012055
:10167000F6E70000001002400000424280044242AF
:1016800054000020007000404FF0E0210428086959
:1016900003D020F004000861704740F00400FAE72E
:1016A00010B5401EB0F1807F01D3012010BD4FF076
:1016B000E02460610F21601700F0D0FD0020A061E0
:1016C00007202061002010BD7047704730B590F8AA
:1016D0003C20012A20D0012280F83C20022380F8FF
:1016E0003D3003685C6824F070045C6003685C68EB
:1016F0000D682C435C6003689C6824F080049C6047
:1017000003689C6849680C439C6080F83D20002178
:1017100080F83C10084630BD022030BD10B50400F2
:1017200003D094F83D0010B107E0012010BD002067
:1017300084F83C00204600F00DF8022084F83D00BB
:10174000211D206800F00AFE012084F83D000020E1
:1017500010BD000008B50C4A01680C48914207D141
:10176000C16941F00201C161C06900F0020009E0F5
:10177000074A914207D1C16941F00401C161C069C2
:1017800000F00400009008BD00040040001002407A
:10179000000800400168CA6842F00102CA6000689F
:1017A000016841F0010101600020704770B50446F6
:1017B00090F83C00012817D0012584F83C50022005
:1017C00084F83D002068826822F0770222F47F428C
:1017D00082600868502837D00DDC202859D005DCFD
:1017E00088B3102841D151E0022070BD302853D079
:1017F00040283AD13FE060282ED070280BD0B0F5B9
:10180000805F03D0B0F5005F2FD110E020688168C1
:1018100021F0070115E0CB68D1E90121206800F033
:10182000D3FD2168886840F0770088601DE0CB68B0
:10183000D1E90121206800F0C7FD2068816841F4EA
:101840008041816011E01EE0CA684968206800F0AC
:101850006FFE5021206806E0CA684968206800F0E1
:1018600078FE6021206800F0B9FD84F83D5000202A
:1018700084F83C0070BDCA684968206800F058FED2
:1018800040212068EFE700212068ECE71021206864
:10189000E9E720212068E6E730212068E3E7704788
:1018A00070B50446006801694FF00005C943890717
:1018B00015D4C168C943890711D4E91E016101200B
:1018C0002077206880698007204602D0FFF7E7FF75
:1018D00004E000F0BBF8204600F03DF925772068D1
:1018E0000169C943490717D4C168C943490713D4DB
:1018F0006FF004010161022020772068806910F4F4
:10190000407F204602D0FFF7CAFF04E000F09EF8B7
:10191000204600F020F9257720680169C9430907AE
:1019200016D4C168C943090712D46FF008010161D8
:10193000042020772068C0698007204602D0FFF786
:10194000AEFF04E000F082F8204600F004F92577AD
:1019500020680169C943C90617D4C168C943C906CB
:1019600013D46FF010010161082020772068C0694E
:1019700010F4407F204602D0FFF791FF04E000F012
:1019800065F8204600F0E7F8257720680169C9432B
:10199000C90708D1C168C943C90704D1891E0161BB
:1019A000204600F0D9F820680169C943090609D426
:1019B000C168C943090605D46FF080010161204662
:1019C000FFF782FE20680169C943490609D4C1684E
:1019D000C943490605D46FF040010161204600F07B
:1019E000C5F820680169C94389060BD4C168C94399
:1019F000890607D46FF0200101612046BDE87040E0
:101A0000FFF763BE70BD00001FB50C4A01680220DD
:101A1000914206D1C021CDE90010039069460848E3
:101A200009E0084A914208D14FF4E071CDE9001075
:101A3000039069460448FEF7E1FF1FBD0004004023
:101A40000008014000080040000C0140704770B5DC
:101A5000044690F83C000D4601280DD0012684F87C
:101A60003C60022084F83D0042B1042A18D0082AC4
:101A70002AD00C2A4DD139E0022070BD206800F038
:101A8000B5FC2068816941F00801816120688169A5
:101A900021F004018161206881692A69114311E004
:101AA000206800F0CBFC2068816941F4006181610D
:101AB0002068816921F480618161206881692A69D7
:101AC00041EA0221816124E0206800F0E3FC206803
:101AD000C16941F00801C1612068C16921F00401B8
:101AE000C1612068C1692A69114311E0206800F0D2
:101AF000FDFC2068C16941F40061C1612068C169D1
:101B000021F48061C1612068C1692A6941EA02212A
:101B1000C16184F83D60002084F83C0070BD10B5C0
:101B2000040003D094F83D0010B107E0012010BD7F
:101B3000002084F83C00204600F00CF8022084F8D5
:101B40003D00211D206800F009FC012084F83D00C3
:101B5000002010BD7047704700680349884201D1DA
:101B6000FFF79AB970470000002C0140704770B52C
:101B7000040004D094F83900002510B106E00120DB
:101B800070BD84F83850204600F022F8242084F8F4
:101B900039002068C16821F40051C160204600F07E
:101BA000EBFC2068016921F49041016120684169E2
:101BB00021F02A0141612068C16841F40051C160EF
:101BC000E563202084F8390084F83A00002070BDD5
:101BD00010B50068114986B088421DD1104881694E
:101BE00041F48041816180690E4C00F48040049092
:101BF0004FF400700090022001900320039069468A
:101C00002046FEF7FBFE00212015CDE900010291E0
:101C100069462046FEF7F2FE06B010BD00380140CE
:101C20000010024000080140FEE701684A69D24303
:101C300052050CD46FF480624A61042101640021D2
:101C400040F8301F202242730173012070470020AA
:101C5000704700002DE9F843044600680D46DDE9B1
:101C6000089701689846164641F4807101604B461A
:101C700000224FF001112046009700F062F8E8B909
:101C8000216805F0FE0008613B464A461849204697
:101C900000F088F828B1206C04280FD10120BDE89D
:101CA000F88320684169806900903A464946204699
:101CB00000F0BCF820B1206C042813D00320EEE71C
:101CC000F5B2B8F1010F09D02168300A08613A462F
:101CD0004946204600F0AAF80028ECD120680561AA
:101CE0000020DCE72068016841F400710160D5E75D
:101CF0000200010070B516460D4604461AE0204663
:101D0000FFF793FF08B1012070BD681C12D025B108
:101D1000FEF75CFF801BA8420CD954F8400F40F03E
:101D2000200044F8100900202060202161732073F6
:101D3000032070BD20684069C0434007DFD4002005
:101D400070BD2DE9F0471E4690460D460446C1F38E
:101D50000747DDF8209012E0701C10D02EB1FEF77E
:101D600035FFA0EB0900B04209D9002044F8300F3C
:101D700020216173A07320730320BDE8F0872068E1
:101D8000012F0AD0806925EA00000004000C06D06B
:101D900000214145E0D00020EFE74069F3E7012151
:101DA000F7E700002DE9F0479A4691460D460446B4
:101DB00000264FF02008C1F307472AE02068406959
:101DC000C043400512D42068016841F400710160ED
:101DD00021686FF48060486104202064266384F8E1
:101DE0003D8084F83C600120BDE8F087B9F1FF3FF9
:101DF0000FD0B9F1000F05D0FEF7E8FEA0EB0A0105
:101E0000494506D944F8306F84F80D8026730320C5
:101E1000EAE72068012F07D0D0F8180025EA000073
:101E20000004000CE0D0C9E74069F7E770B516463A
:101E30000D4604461AE02046FFF7F7FE08B10120E0
:101E400070BD681C12D025B1FEF7C0FE801BA842F1
:101E50000CD954F8400F40F0200044F8100900203D
:101E60002060202161732073032070BD20684069C9
:101E7000C0430006DFD4002070BD00003EB512480C
:101E8000002410498460C46044610160012505613B
:101E90004FF460214460C161FEF7ECFC18B14D21A4
:101EA0000AA000F022FC0420CDE900056946029456
:101EB0000548FEF761FC002803D0572103A000F07D
:101EC00014FC3EBD00240140D00000202E2E2F53D4
:101ED00072632F6164632E630000000030B5204DF3
:101EE00095B0002228681390012113A801F0D8FAB8
:101EF0001C4C142205F1140160616846FEF76EF96E
:101F00000021684601F0B4FA2060142205F128018E
:101F100005A8FEF763F9002105A801F0A9FA6060A1
:101F2000142205F13C010AA8FEF758F900210AA87D
:101F300001F09EFAA060D5E90101CDE90F01002171
:101F40000FA801F00CFAE060D5E90301CDE9110119
:101F5000002111A801F003FA206115B030BD000086
:101F6000C44D00082C000020F0B52B4885B08169D5
:101F700041F010018161816901F0100104918169D2
:101F800041F020018161816901F0200104918169A2
:101F900041F004018161816901F0040104918169CA
:101FA00041F0080181618069012200F008001B4FA7
:101FB0001603049031463846FEF703FEF500184834
:101FC00000240095CDE9010469461648FEF716FD88
:101FD00040F20F10CDE90004694613480294FEF761
:101FE0000DFD01200096CDE9010402200390694611
:101FF0003846FEF703FDCDE90054694638460294A1
:10200000FEF7FCFC002205212820FEF7EDFF28202A
:10201000FEF7DEFF05B0F0BD00100240000C0140ED
:102020000000111000100140000801400E4810B5DA
:102030000C4901600D49416000214FF480428160EC
:10204000C0E9031241618161C1610162FEF7C4FD13
:10205000002805D0BDE810404C2105A000F045BB8C
:1020600010BD00000058004000010020A0860100C3
:102070002E2E2F5372632F6932632E6300000000EF
:1020800010B529488EB02749016003210024C0E91A
:102090000114FF21C0E903148461FFF73FFB18B16D
:1020A0004B2122A000F021FB4FF48050079007A99C
:1020B0001D48FFF77BFB18B151211CA000F015FB58
:1020C0001948FFF72CFD18B1562118A000F00DFBA0
:1020D0000B940BA914480C94FFF7F8FA18B15D2182
:1020E00012A000F002FB6020CDE90004029400225F
:1020F00069460D480494FFF7AAFC18B166210BA0AD
:1021000000F0F3FA042269460748FFF7A0FC18B173
:102110006B2106A000F0E9FA0348FFF775FC0EB04A
:1021200010BD000000040040540100202E2E2F534B
:1021300072632F74696D2E630000000010B52E4885
:102140008EB02C49016003210024C0E90114FF2155
:10215000C0E903148461FFF7E1FA18B1802127A0D8
:1021600000F0C3FA4FF48050079007A92248FFF708
:102170001DFB18B1862121A000F0B7FA1E48FFF719
:10218000CEFC18B18B211DA000F0AFFA0B940BA967
:1021900019480C94FFF79AFA18B1922117A000F091
:1021A000A4FA6020CDE90004029400226946124896
:1021B0000494FFF74CFC18B19B2110A000F095FA95
:1021C000042269460C48FFF742FC18B1A0210BA07D
:1021D00000F08BFA082269460748FFF738FC18B16F
:1021E000A52106A000F081FA0348FFF70DFC0EB010
:1021F00010BD000000080040940100202E2E2F5337
:1022000072632F74696D2E63000000000D4810B5D5
:102210000B4901604FF4E1314160002181600C22E3
:10222000C160C0E904128161C161FFF7A0FC002810
:1022300005D0BDE810404C2103A000F056BA10BDF7
:1022400000380140D40100202E2E2F5372632F75C9
:10225000736172742E630000FEE770470907090E70
:10226000002806DA00F00F0000F1E02080F8141DCD
:10227000704700F1E02080F80014704701F020FE64
:10228000012001F060F8FBE701F0E8B830B593B049
:1022900001210804CDE900100025029502240491D3
:1022A000CDE907404FF4E01009906846FFF76AF85F
:1022B00000B1FEE70AA90F2081E831004FF48060E9
:1022C000CDE90D0502210AA8FEF736FF00B1FEE7B1
:1022D0004FF4004011900F940FA8FEF7B7FE00B125
:1022E000FEE7FEF7F3FF4FF47A71B0FBF1F0FFF772
:1022F000D7F90420FFF7C8F900220F21501EFEF77E
:1023000073FE13B030BD00000D48016841F00101BB
:10231000016041680B4A1140416001680A4A11405E
:102320000160016821F480210160416821F4FE010F
:1023300041604FF41F0181600449C0030860704789
:10234000001002400000FFF8FFFFF6FE08ED00E07D
:102350000148FFF7A5BA000014020020F0B502689A
:10236000164B174C174D4FF08047984205D0B84296
:1023700003D0A04201D0A84203D122F070064A68DF
:102380003243984205D0B84203D0A04201D0A842BF
:1023900003D122F44074CA68224322F080044A69BF
:1023A000224302608A68C2620A688262984201D14E
:1023B0000969016301214161F0BD0000002C014069
:1023C000000400400008004010B5846842EA03227F
:1023D00024F47F440A432243826010BD826822F0C5
:1023E00070020A4342F007018160704730B5026A0B
:1023F00022F001020262026A4368846924F07305D4
:102400000C682C4322F002058A682A430A4DA84230
:102410000BD122F00805CA6823F440732A434D69A2
:1024200022F004021D438B692B4343608461496899
:102430004163026230BD0000002C014030B5026AE9
:1024400022F010020262026A436884690D6824F473
:10245000E64444EA05248D6822F0200242EA05128F
:102460000B4DA8420ED1CD6822F0800242EA05123F
:102470004D6923F4406343EA85038D6922F04002ED
:1024800043EA85034360846149688163026230BD29
:10249000002C014030B5026A22F480720262036AA5
:1024A0004268C46923F4007324F073050C682C435C
:1024B0008D6843EA05230C4DA8420ED1CD6823F464
:1024C000006343EA05234D6922F4405242EA0512B3
:1024D0008D6923F4806342EA05124260C461496851
:1024E000C163036230BD0000002C014030B5026AB8
:1024F00022F480520262046A4268C3690D6823F4C0
:10250000E64343EA05238D6824F4005444EA053485
:10251000064DA84204D14D6922F4804242EA851258
:102520004260C36149680164046230BD002C01400F
:1025300010B5036A046A24F001040462846924F07B
:10254000F00444EA021423F00A020A43846102629E
:1025500010BD10B5036A23F0100303628369046A97
:1025600023F4704343EA023224F0A00343EA01114A
:102570008261016210BD00002DE9F041044600684F
:102580000169E26821F44051114301612169A068A9
:102590000843616908432168CA6841F20C639A43A1
:1025A0000243CA6020684169A26921F44071114365
:1025B00041614C4920686425322688423CD1FEF7AF
:1025C0009BFE00EBC00101EB001061688900B0FBCD
:1025D000F1F7FEF791FE00EBC00101EB001061681E
:1025E000B0468900B0FBF1F0B0FBF5F06FF01801D8
:1025F000484307EB800106EB0110B0FBF5F000F05B
:10260000F006FEF779FE00EBC00101EB00106168F7
:102610008900B0FBF1F0B0FBF5F006EB0016FEF719
:102620006BFE00EBC00101EB001061688900B0FB9C
:10263000F1F7FEF761FE3BE0FEF74EFE00EBC00156
:1026400001EB001061688900B0FBF1F7FEF744FE72
:1026500000EBC00101EB00106168B0468900B0FBDF
:10266000F1F0B0FBF5F06FF01801484307EB800183
:1026700006EB0110B0FBF5F000F0F006FEF72CFEC3
:1026800000EBC00101EB001061688900B0FBF1F0C4
:10269000B0FBF5F006EB0016FEF71EFE00EBC001E6
:1026A00001EB001061688900B0FBF1F7FEF714FE42
:1026B00000EBC00101EB001061688900B0FBF1F094
:1026C000B0FBF5F06FF01801484307EB800108EB11
:1026D0000110B0FBF5F0216800F00F003044886075
:1026E000BDE8F08100380140FEE7FEE70FB4054B7E
:1026F00010B503A9044A029800F0DAF810BC5DF89E
:1027000014FB0000E1310008CC00002002E008C802
:10271000121F08C1002AFAD170477047002001E05B
:1027200001C1121F002AFBD1704700002DE9FF5F95
:1027300082B00021DDE90430020DDDF840B0034332
:1027400018D044F61050A2F2FF32424315141198EB
:1027500001281FD0A5EB0B00401C5FEA000A4FF0D8
:1027600000064E4FDFF83891B046504615D5CAF1F5
:10277000000413E0119801244AA3012801D16FEA53
:102780000B010298119AC0E90031C0E9024206B07B
:10279000BDE8F09FCBF10000DFE704460021404A8E
:1027A000491842EB0450CDE9001012E0E00707D0D1
:1027B00032463B4640464946FDF710FE8046894674
:1027C00032463B4610461946FDF708FE06460F46C0
:1027D0006410002CEAD1DDE90401DDE90023BAF13F
:1027E000000F06DAFDF7FAFD42464B46FDF7F6FD0F
:1027F00005E0FDF765FE42464B46FDF761FE0446E7
:102800000E460022284BFDF7E3FE03D84FF0FF30C1
:10281000014607E00022254B20463146FDF737FDF3
:10282000FDF7BDFE102409E0002C0ADB0A2200237C
:10283000FDF7FCFC039B30321A55641E50EA01027E
:10284000F2D1641C039AC4F111031444119A012AB1
:1028500003D0012208430DD10AE0084304D0002030
:102860004FF0110B119072E7A3EB0B056D1E0DE0FD
:102870005B4504DD4FF0000205F1010504E003DAD9
:102880004FF00002A5F10105002AECD00298119941
:10289000C0E90231C0E9004579E7000000001440BA
:1028A0000000F03F300000000000F0430000E03F77
:1028B0002DE9FF4F95B09B468946064600250FE25D
:1028C000252877D100242746F84A0121059400E005
:1028D000044316F8013F203B01FA03F01042F7D100
:1028E00030782A2811D06FF02F033078A0F1300211
:1028F000092A16D8059A44F0020402EB820203EB7F
:1029000042021044761C0590EFE759F8042B05921B
:10291000002A03DA504244F40054059044F00204C3
:10292000761C30782E2816D116F8010F44F00404D6
:102930002A280DD06FF02F023078A0F13003092B38
:1029400009D807EB870302EB4303C718761CF3E7AC
:1029500059F8047B761C30786C280FD006DC4C28A4
:1029600017D068280DD06A2814D104E0742810D03C
:102970007A280FD10DE044F400140AE044F48014E6
:1029800001E044F440147278824202D104F58014CC
:10299000761C761C307866280BD013DC582877D04C
:1029A00009DC002875D04528F6D04628F4D0472801
:1029B0001AD19DE118E0632835D0642879D06528C4
:1029C00012D195E1702873D008DC6728F1D069280E
:1029D0006FD06E280DD06F2806D1B5E073282CD0AB
:1029E000752875D0782874D05A46179990476D1C71
:1029F00075E1C4F30250022809D003280DD0D9F89C
:102A0000001004280DD00D6009F1040967E1D9F820
:102A10000010EA17C1E90052F6E7D9F800100D805E
:102A2000F2E70D70F0E719F8041B8DF80010002094
:102A30008DF80100EA46012003E059F804AB4FF09D
:102A4000FF3061074FF0000102D40DE008F10101F1
:102A50008846B9420FDA8045F8DB1AF808100029D9
:102A6000F4D108E008F1010188468142FADB1AF846
:102A700008100029F6D105985B46A0EB080721460F
:102A80003846179A00F094FA284400EB080507E04E
:102A90004DE029E10DE01AF8010B5A4617999047CD
:102AA000B8F10108F7D25B4621463846179A13E180
:102AB00042E00A220092C4F302524FF0000A022AB6
:102AC00008D059F804CB032A4FEAEC710AD00DE084
:102AD00029E02AE009F1070121F00702F2E802C12A
:102AE000914609E00FFA8CFC4FEAEC71042A03D1FD
:102AF0004FFA8CFC4FEAEC71002907DA0A460021F4
:102B0000DCF1000C61EB02012D2202E0220504D56C
:102B10002B228DF80420012203E0E20701D02022BD
:102B2000F7E7904659E00A2102E010220DE010215B
:102B30004FF0000A00910BE010224FF0000A44F021
:102B400004040827009203E008224FF0000A0092D4
:102B5000C4F30252022A05D059F804CB0021032AFB
:102B600008D009E009F1070121F00702F2E802C1EB
:102B7000914605E01FFA8CFC042A01D10CF0FF0CF1
:102B80004FF00008220728D5702806D0009B83F05C
:102B9000100353EA0A0305D00EE040228DF804200A
:102BA000012208E05CEA010206D030228DF8042000
:102BB0008DF8050002229046009B83F0080353EA3B
:102BC0000A030AD15CEA010201D1620705D530226D
:102BD0008DF804204FF001087F1E582804D034A03F
:102BE00003900EA802900DE036A0F9E75346604628
:102BF000009AFDF71BFB84460398825C0298401EF6
:102C0000029002705CEA0100F0D1029806A9081A4D
:102C100000F1200A600702D524F4803400E0012787
:102C2000574502DDA7EB0A0000E0002000EB0A0197
:102C3000009005984144401A0590E00306D45B4695
:102C40002146179A059800F0B3F90544002706E0DD
:102C500001A85A46C05D179990476D1C7F1C4745D7
:102C6000F6DBE0030CD55B462146179A059800F089
:102C70009FF9054404E030205A46179990476D1C8F
:102C80000099481E00900029F5DC08E0029802999E
:102C90005A460078491C0291179990476D1CBAF169
:102CA0000001AAF1010AF1DC65E100000928010038
:102CB00030313233343536373839616263646566B2
:102CC0000000000030313233343536373839414274
:102CD000434445460000000000F058F90544761CC6
:102CE000307800287FF4ECAD19B02846BDE8F08FAD
:102CF000620700D4062709F1070222F0070CFCE85E
:102D00000223E14603F000485FEA080C02D00FF20C
:102D1000702C0DE05FEA045C02D50FF2682C07E02E
:102D20005FEAC47C02D00FF2602C01E0AFF2700CBD
:102D30004FF0FF3823F00043CDF850C065280CD089
:102D400006DC452809D046281DD047283DD13DE066
:102D5000662818D067287ED138E00021112F01DBCA
:102D6000112000E0781CCDE9000106A90EA8FFF7AC
:102D7000DDFCDDE90F010E9A03910021009207F1BD
:102D8000010A04914DE04FF000400097CDE9011099
:102D900006A90EA8FFF7CAFCDDE90F0203920E9BFD
:102DA00011990022DDF80CA00093049211B9791C4E
:102DB00000EB010AB7EB0A0004D4C0F1FF3007F1C1
:102DC000010A0490AAEB0700019044E0012F00DA09
:102DD00001270021112F01DD112000E03846CDE947
:102DE000000106A90EA8FFF7A1FCDDE90F010E9A6C
:102DF0000391002104910092BA4621070CD4039953
:102E0000514500DA8A46BAF1010F05DD009AAAF1B0
:102E10000101515C302908D0B84202DA10F1040FE8
:102E200006DA0121CDE9011015E0AAF10101E9E777
:102E3000002805DC049901440491AAEB000102E09A
:102E4000411C514500DD8A460499401A401C0190FE
:102E50004FF000400290200704D40198504501DB58
:102E6000CDF8048000208DF84F0002980DF14F0737
:102E7000B0F1004F25D02B200E9002984FF00208A1
:102E800000280CDA404202902D200E9007E00A2123
:102E90000298FDF7B5F93031029007F8011DB8F13D
:102EA0000001A8F10108F2DC02980028EFD1791E98
:102EB0000E980870307800F0200040F0450007F8C8
:102EC000020D12A8C01B00F107081498007800B189
:102ED000012000EB0A01019801EBE07105984144E3
:102EE000401A401E0590E00306D45B462146179A1F
:102EF000059800F05DF805441498007818B15A461A
:102F0000179990476D1CE00324D55B462146179A1C
:102F1000059800F04DF805441CE00498002807DBF4
:102F2000DDE90301884203DD0098405C179901E068
:102F3000179930205A469047049805F10105401C26
:102F400004900198401E019004D12E205A461799F2
:102F500090476D1CBAF10001AAF1010ADDDC05E021
:102F600017F8010B5A46179990476D1CB8F10001EC
:102F7000A8F10108F4DC5B462146179A0598ABE6F8
:102F80002D0000002B000000200000002DE9F04182
:102F9000044600251E461746880404D405E0394639
:102FA0002020B0476D1C641EF9D52846BDE8F0818D
:102FB0002DE9F041044600251E469046C80301D580
:102FC000302700E02027880404D505E04146384634
:102FD000B0476D1C641EF9D52846BDE8F08110B5D8
:102FE000002000F0A9FEBDE8104000F01BBF00006B
:102FF0002DE9FC5F054602200026CDE9006005EBC7
:103000008500C0064FEA106905EB8500202707EB15
:10301000C00000F0FF0A4FF0050B4946019800F090
:103020009FF8DFF83881002418F8040000F016FF3C
:10303000641CE4B2082CF7D34946584600F090F8D7
:10304000DFF81881002408F1080800BF18F8040010
:1030500000F004FF641CE4B2082CF7D35146019839
:1030600000F07EF8DFF8F480002408F1100800BFBB
:1030700018F8040000F0F2FE641CE4B2082CF7D348
:103080005146584600F06CF8DFF8D080002408F173
:10309000180800BF18F8040000F0E0FE641CE4B259
:1030A000082CF7D30220012125B1012D05D0022DD6
:1030B00008D00BE08DF8001001E08DF800608DF86D
:1030C000010003E08DF800608DF80110234C00260C
:1030D000EA46B94614F120041AF8060000EB800114
:1030E000C9060F0E00EB800109EBC10000F0FF08DC
:1030F0003946019800F034F80025605D00F0AEFE1E
:103100006D1CEDB2082DF8D33946584600F028F86A
:103110000025605D00F0A2FE6D1CEDB2082DF8D315
:103120004146019800F01CF80025605D00F096FE15
:103130006D1CEDB2082DF8D34146584600F010F84A
:103140000025605D00F08AFE6D1CEDB2082DF8D3FD
:10315000761CF6B2022EBFD3BDE8FC9F144E0008C9
:1031600070B50546B0300C46C0B200F089FE1020A4
:1031700040EA141000F084FE04F00F0040F001005B
:1031800000F07EFE01480570447070BD44000020D0
:1031900010B5FFF724FF0020FFF72AFF0120FFF7FB
:1031A00027FFBDE810400220FFF722BF0EB50B4CF1
:1031B0001421606900F086F94FF4FA6000F0C3F85A
:1031C00000F0CAFDFFF7E4FF01226846216900F024
:1031D000CBF8012000F0B7F8F6E700002C00002043
:1031E00003490A685206FCD50149091D0860704769
:1031F00000380140EFF30580002800D0012070471F
:10320000012000F0A0F8FBE7F0B5184B02460125BD
:1032100000208D40A3F10804154234F81120064621
:103220004FF6FF7710D0BA4202D2521C24F8112078
:1032300092B2052A02D04B2A02D002E0012000E01F
:10324000032023F81160F0BD33F81150BD4202D2C3
:103250006D1C23F81150531F462B01D2022002E0AF
:103260004B2A00D3042024F81160F0BD1400002084
:103270002DE9F04700201D4D074604462E1D05F19F
:103280001C084FF00109286036F8141058F8240083
:10329000FDF792FC18B909FA04F0384387B2641CB0
:1032A000E4B2042CF0D3002421463846FFF7ACFFEB
:1032B00006000AD0024621460DA0FFF717FA04EBDC
:1032C00044008640286806432E60641CE4B2042C47
:1032D000EAD32968002906D00B4800220068BDE81F
:1032E000F04700F08DB8BDE8F08700000000002036
:1032F000627574746F6E2025643A207374613A208D
:1033000025640D0A000000003C000020FFF7B0BF5C
:10331000FDF7CAFDFEF7BAFFFEF726FEFEF7AEFD8B
:10332000FEF7AEFEFEF70AFFFEF780FEFEF76EFF29
:10333000FEF7D4FD00F00EF8FEE7014600208429D8
:1033400000D0C81C704710B500B9012000F010FF74
:10335000002010BD10B500F0BFFF002010BD03C855
:10336000002201F077B800002DE9FF410D004FF079
:103370000006CDE9016507461ED000240396501CC7
:103380001FD002B11446FFF735FF69464FF0100811
:10339000E8B103AA2846091D01F088FA012813D0D4
:1033A00000960398F0B115494FF080500860BFF3C4
:1033B0004F8FBFF36F8F15E0802031462A46009073
:1033C00012E04FF0FF34DEE7CDF80080E9E700239C
:1033D00022462846091D01F061F8012808D054B1A1
:1033E000402000909DE8070087E80700BDE8FF81C6
:1033F000CDF80080F6E70020F3E7000004ED00E0E0
:1034000037B5054682B000200090140000D1012499
:10341000FFF7F0FE4FF0000388B16A4603A9284683
:1034200001F0E6F9012811D1009890B10A494FF056
:1034300080500860BFF34F8FBFF36F8F09E02246C3
:1034400003A9284601F024F9012802D0FF2005B085
:1034500030BD0020FBE7000004ED00E010B501F0F6
:10346000D5FA012803D0BDE8104000F0DDBF10BD43
:103470003EB504460D46B0F90800FFF75EFF02A90D
:10348000CDE90001208A2B4682B2D4E9001001F078
:1034900091FA012801D000203EBD02983EBD0000F7
:1034A00008B500680090012907D0002013460246A5
:1034B000012103A001F00AFC08BD0120F6E700008D
:1034C000000000002DE9FC41002507462E4601952D
:1034D0000C0000D10124FFF78DFE009690B101ABE6
:1034E00022460921384601F03DFC012812D10198FD
:1034F00088B10A494FF080500860BFF34F8FBFF387
:103500006F8F08E0002322460421384601F02AFC90
:10351000012800D0FF252846BDE8FC8104ED00E02D
:103520002DE9F041184C0F460546E6682068001D5D
:1035300000F008FD38B9206890F82C100120884070
:10354000216981432161681C07D137B12168BDE839
:10355000F0410E48091D00F02DBD20683544B542EC
:103560004560216805D2A06BBDE8F041091D00F05F
:1035700009BD606B091D00F005FDA06A854200D2FF
:10358000A562BDE8F08100007C000020702F0020C3
:103590002DE9F041054600F019FD2E4CA068401CB5
:1035A000A06020682C4F10B1606940B32DE0256009
:1035B000A068012829D1002606EB860007EB8000D1
:1035C00000F0D2FC761C072EF6D323488C3000F096
:1035D000CBFC2148A03000F0C7FC1F48B43000F0FD
:1035E000C3FC1D48C83000F0BFFC1B48DC3000F0B5
:1035F000BBFC19488C3060631430A06305E0206880
:10360000E96AC06A884200D82560606A401C60622E
:10361000E96A0120226988401043206101EB8100A2
:1036200007EB8000291D00F0C5FC00F0EFFC60698D
:1036300000280CD02068E96AC06A884207D207498E
:103640004FF080500860BFF34F8FBFF36F8FBDE81E
:10365000F08100007C000020942E002004ED00E0AA
:1036600010B500F0B3FC0E4C2068A0B90D4800F076
:103670007BFC0C48143000F077FC0A48E060143002
:10368000206100220C210A2000F0E4FE206010B12D
:1036900005A100F037FDBDE8104000F0B7BC000008
:1036A000B8000020842F0020546D725100000000EB
:1036B00070B5114E114C17E000F046FE3068B8B1FD
:1036C00001F0A2FA00F082FCF068C568281D00F045
:1036D00039FCA068401EA0606068401E606000F079
:1036E00095FC284600F055F860680028E4D170BDCC
:1036F00001F08AFAF8E700005C2F00207C0000202F
:1037000030B4026C0B46002A0BD0C1681144C16072
:103710004468A14201D30168C16030BC1846FCF77F
:103720005DBD30BC70472DE9F041856B17460446FE
:103730000026026C82B1C7B1E068FCF74FFDE1687A
:10374000206C091AE1602268914202D26168081A6D
:10375000E060022F16D017E02068A8B9606801F079
:10376000CDF90646002060600EE0A068FCF736FD4B
:10377000216CA0680844A0606168884204D3206876
:10378000A06001E005B16D1E6D1CA5633046BDE86B
:10379000F08110B50446006B00F04CFC2046BDE8FB
:1037A000104000F047BC000010484FF42051420781
:1037B00006D0C01D0D4920F00700411AC1F5205167
:1037C0000B4A00230144C2E900030839103A21F0F2
:1037D000070111604B600B600B1AC0E90013936086
:1037E0004FF000405360D060704700005406002046
:1037F00068000020074C4FF08056074DFFF758FF38
:1038000020680128FAD92E60BFF34F8FBFF36F8F66
:10381000F4E70000942E002004ED00E02DE9F047CD
:103820009A46DDE9098481466FF00303206B03EBC0
:1038300082021044089D20F00706700707D0502030
:1038400080F31188BFF34F8FBFF36F8FFEE723180C
:103850000A5C83F834200A5C12B1401C1028F6D3AD
:10386000002784F84370072D00D30625E562C4E9DC
:103870001157201D00F083FB04F1180000F07FFBBE
:103880002461C5F107006462A061E76484F85070A8
:1038900052464946304600F03DFA2060B8F1000F2C
:1038A00001D0C8F80040BDE8F087000030B51149EC
:1038B00000E011460A688242FBD34B685C188442E0
:1038C00003D1406818444860084643681C18944275
:1038D00009D1084C103C2468A24209D052681A440D
:1038E00042600A6812680260814200D0086030BD00
:1038F0000460F9E76800002070B5002441600B4DBA
:103900000061914206D8D11A8269914206D2011D06
:10391000286907E09A4203D2994201D3012403E0C7
:10392000011DE86800F02EFB204670BDB8000020A5
:1039300010B5044600F04AFBA06B28B15FF000040C
:1039400000F064FB204610BD0124F9E730B587B0D4
:103950002B4D4BE00498002848DB069C606910B1B1
:10396000201D00F0EFFA02A800F0B6F80246049815
:103970000A283BD2DFE800F00505053A26370505A1
:103980003A260598A169034601442046FFF7B4FF93
:1039900000B3616A20468847E069012826D10020EB
:1039A00000900598A169002342181946204601F0AD
:1039B000D9F978B9502080F31188BFF34F8FBFF346
:1039C0006F8FFEE70598A06128B181181346204645
:1039D000FFF792FF0AE0502080F31188BFF34F8F6A
:1039E000BFF36F8FFEE7204600F024FB00231A464A
:1039F00004A9286800F052FD0028ABD107B030BD03
:103A0000B80000202DE9FC410F46054600F09CFC63
:103A100001A800F061F80446019818B101F0F4F82B
:103A2000BDE8FC81224EAFB130690068A8B3002721
:103A3000291B3A46306800F079FB01F0E5F80028D0
:103A4000EED11C494FF080500860BFF34F8FBFF399
:103A50006F8FE5E7A542EBD801F0D6F8F06827466E
:103A6000C068C468201D00F06DFAE069012810D11B
:103A7000A0692B4641193A462046FFF73DFF40B169
:103A800000200346014600902A46204601F06AF9CC
:103A900020B1616A20468847C2E707E0502080F3E2
:103AA0001188BFF34F8FBFF36F8FFEE70127BFE78A
:103AB000B800002004ED00E00648416B096829B118
:103AC000416BC968C9684968816270474FF0FF312E
:103AD000FAE700007C00002070B5054600F0A4FF66
:103AE000064E0446B068844203D200F009F8012073
:103AF00000E0002028602046B46070BDB8000020BF
:103B0000F8B5194D1FE0C068C4680668201D00F0B4
:103B100019FA616A20468847E069012813D1A06933
:103B20003044B04206D924616060211DE86800F08D
:103B300029FA08E00020034601460090324620465C
:103B400001F010F938B1E86801680029DBD1296972
:103B5000C5E90310F8BD502080F31188BFF34F8FE3
:103B6000BFF36F8FFEE70000B800002008484068F0
:103B7000401C4FF0500080F3118804D0BFF34F8FEA
:103B8000BFF36F8FFEE7BFF34F8FBFF36F8FFEE77B
:103B900070000020074CE068016841B1C068002156
:103BA000D0F80000FFF72EFFFFF7D0FEF3E701216A
:103BB0000020F7E7B80000202DE9F041044600F0AE
:103BC00005FA94F9455004F1240609E0606A48B109
:103BD000304600F0DFFF08B100F0F0FA6D1E6DB264
:103BE000002DF3DC4FF0FF3684F8456000F00EFA4C
:103BF00000F0ECF994F9445004F1100709E0206951
:103C000048B1384600F0C6FF08B100F0D7FA6D1E83
:103C10006DB2002DF3DC84F84460BDE8F04100F0A3
:103C2000F5B900002DE9F0410546002700F08CFBB6
:103C3000314E306808B9FFF7B7FDF06805424BD147
:103C4000C5B3083568070ED005F00700C0F10800BD
:103C50000544680707D0502080F31188BFF34F8FC9
:103C6000BFF36F8FFEE72DB37068854234D82248CA
:103C7000103001460C6801E020460C466168A942FC
:103C800002D221680029F7D131688C4224D007681C
:103C90002168016060680837411B10290FD960193D
:103CA000420708D0502080F31188BFF34F8FBFF335
:103CB0006F8FFEE710E041606560FFF7F7FD616818
:103CC0007068401A7060B268904200D2B060F068CC
:103CD00001430020C4E9000100F096FF780707D0F7
:103CE000502080F31188BFF34F8FBFF36F8FFEE733
:103CF0003846BDE8F08100005800002004490868FB
:103D000018B10868826C521C826408687047000011
:103D10007C00002010B5031F4FF080741C601B1F37
:103D200021F001011960191F024B0B601439403852
:103D30000A6010BD6D3B000810B5064A00214FF423
:103D4000806328B1FF245454491C9942F9D310BD13
:103D50000024F8E75402002010B500F05BF8AE2014
:103D600000F08EF8202000F08BF8102000F088F88A
:103D7000B02000F085F8C82000F082F8002000F0A4
:103D80007FF8102000F07CF8402000F079F88120C6
:103D900000F076F8FF2000F073F8A12000F070F832
:103DA000A62000F06DF8A82000F06AF83F2000F08F
:103DB00067F8A42000F064F8D32000F061F8002038
:103DC00000F05EF8D52000F05BF8F02000F058F825
:103DD000D92000F055F8222000F052F8DA2000F047
:103DE0004FF8122000F04CF8DB2000F049F82020BA
:103DF00000F046F88D2000F043F8142000F040F861
:103E0000AF2000F03DF80020FFF796FFBDE810401E
:103E100000F008B800224FF480510148FCF7D1BEF1
:103E2000000C014070B50C4D002400BF04F1B0003F
:103E3000C0B200F025F8002000F022F8102000F0B9
:103E40001FF805EBC410802100F02CF8641CE4B2CC
:103E5000082CEBD370BD00005402002001B584B0E3
:103E60000121642204A88DE807000B464022782136
:103E70000248FCF751FF05B000BD00000001002022
:103E800001B584B001210A2204A88DE807000B4681
:103E9000002278210248FCF73FFF05B000BD00007A
:103EA000000100200EB564228DE8070001234022A6
:103EB00078210248FCF730FF0EBD00000001002011
:103EC00010B508A0FEF712FC0CA20FA111A0FEF77E
:103ED0000DFC01230022BDE81040114612A0FEF7A0
:103EE00005BC000073797374656D2073746172741E
:103EF000696E672E2E2E0D0A0000000031393A300F
:103F0000343A3030000000004175672031332032F0
:103F1000303230004657206275696C64202573206A
:103F20002025730D0A00000076657273696F6E209C
:103F300025642E25642E25645F616C7068610D0A0E
:103F400000000000D0E9013201699A60D0E9012344
:103F50005A604A68824201D182684A600022026146
:103F60000868401E0860704700F108014FF0FF32FA
:103F7000C0E90112C16001610021016070470021A8
:103F80000161704730B50B685A1C02D000F108027D
:103F900002E0026904E02246546825689D42FAD98D
:103FA00053684B6099608A60516008610168491CE0
:103FB000016030BD42684A6093688B6093685960C5
:103FC000916008610168491C01607047502080F3CE
:103FD0001188BFF34F8FBFF36F8F0A494868401CA9
:103FE000486001280CD10848006810F0FF0F07D086
:103FF000502080F31188BFF34F8FBFF36F8FFEE720
:10400000704700007000002004ED00E00849486897
:1040100028B1401E486001D180F3118870475020BC
:1040200080F31188BFF34F8FBFF36F8FFEE700005F
:104030007000002070B5002827D0144DA0F10804AE
:104040006168E868014207D1502080F31188BFF30E
:104050004F8FBFF36F8FFEE722683AB1502080F395
:104060001188BFF34F8FBFF36F8FFEE7814361600D
:1040700000F06AF960686968084468602046FFF7E4
:1040800015FCBDE8704000F0BFBD70BD58000020B9
:1040900006484FF47A710068B0FBF1F14FF0E02070
:1040A000491E416107210161704700005400002052
:1040B00010B5FCF76DF8114910280ED300F1E0207F
:1040C00090F8F0030A78904207D2502080F31188CC
:1040D000BFF34F8FBFF36F8FFEE709480068896811
:1040E00000F4E060884207D9502080F31188BFF3C4
:1040F0004F8FBFF36F8FFEE710BD000070000020F0
:104100000CED00E010B5084B002200BF53F8324020
:104110001CB1521C082AF9D310BD43F8321003EB2E
:10412000C201486010BD0000542E002070B5154635
:104130000E460446FFF74AFF94F944100020491C3C
:1041400001D184F8440094F94510491C01D184F848
:104150004500FFF75BFFA06B28B92A46314604F102
:10416000240000F049F82046BDE87040FFF724BD68
:1041700010B5020014D00F48006B38B1502080F306
:104180001188BFF34F8FBFF36F8FFEE700F0DCF8AD
:1041900000211046FFF7C4F900F036FD002807D1D2
:1041A00005494FF080500860BFF34F8FBFF36F8F0A
:1041B00010BD00007C00002004ED00E0014901205A
:1041C000C86170477C00002010B50C4650B1094909
:1041D00009681831FFF7D6FE2046BDE810400121DE
:1041E000FFF79EB9502080F31188BFF34F8FBFF3C4
:1041F0006F8FFEE77C00002070B514460D4668B155
:104200000A4909681831FFF7D5FE0CB14FF0FF35A8
:1042100021462846BDE87040FFF782B9502080F360
:104220001188BFF34F8FBFF36F8FFEE77C00002034
:1042300070B5040039D01D4DE06A2968C96A88420A
:1042400033D2A069002804DB2868C06AC0F10700E7
:10425000A061E16A164E01EB8101606906EB810104
:1042600088421FD1201DFFF76DFE012150B9E06A81
:1042700000EB800256F8222022B92A6901FA00F0E8
:1042800082432A612868C06AE0622A69814011433A
:10429000296100EB800006EB8000211DBDE8704025
:1042A000FFF788BE2868C06AE06270BD7C0000200D
:1042B000942E002028B107490A6A0260C96841604B
:1042C0007047502080F31188BFF34F8FBFF36F8F7B
:1042D000FEE700007C0000201CB517480024CDE953
:1042E00000402346402215A1164800F063FB012838
:1042F00003D100F013FD012809D0401C1AD1502031
:1043000080F31188BFF34F8FBFF36F8FFEE750200C
:1043100080F31188BFF34F8FBFF36F8F06484FF0C4
:10432000FF312C38816201214161C460BDE81C402D
:1043300000F040B81CBD0000A800002049444C45D6
:1043400000000000F53700080248016B491C0163BA
:10435000704700007C0000201448016B11B101215E
:10436000C16170470021C1610169B1FA81F1C1F1F8
:104370001F0101EB81020E4951F822306BB101EBB4
:10438000820101F108034A6852684A609A4201D1E9
:1043900052684A60D16801607047502080F31188EC
:1043A000BFF34F8FBFF36F8FFEE700007C0000204C
:1043B000942E00201CB5194908780190FF20087040
:1043C00008788DF800009DF80000154A00F05000B4
:1043D00010700720906005E09DF800305B008DF8BC
:1043E0000030401E9DF800301B06F5D4000200F49A
:1043F000E0609060019808700A48016841F470011B
:104400000160016841F070410160FFF741FE00204A
:104410005060FBF787FE00201CBD000000E400E0B8
:104420007000002020ED00E010B5502080F31188CE
:10443000BFF34F8FBFF36F8F00F0FCFA18B1044940
:104440004FF080500860002080F3118810BD0000FC
:1044500004ED00E070B50E46050013D0D6B105FBA3
:1044600006F04830FFF7DEFB040009D004F14801F4
:1044700020468EB10160C0E90F56012100F0C4F85A
:10448000204670BD502080F31188BFF34F8FBFF3DB
:104490006F8FFEE70020E4E70060ECE72DE9FF4FB7
:1044A000002683B09B468A46040003D0BAF1000F71
:1044B00008D011E0502080F31188BFF34F8FBFF375
:1044C0006F8FFEE7206C38B1502080F31188BFF366
:1044D0004F8FBFF36F8FFEE700F098FADFF824816B
:1044E0004FF000094FF0805748B9059838B1502077
:1044F00080F31188BFF34F8FBFF36F8FFEE7FFF795
:1045000065FDA56B45B351462046E668FFF7F8F810
:10451000BBF1000F13D0E660606A50B104F12400D3
:1045200000F038FB28B1C8F80070BFF34F8FBFF31D
:104530006F8FFFF76BFD012007B0BDE8F08F6D1E98
:10454000A563206810B9FFF7D9FB606020690028D7
:10455000EFD004F11000E3E7059808B11EB106E0C2
:10456000FFF754FD27E06846FFF7A4FE0126FFF79A
:104570004DFDFFF7E9FEFFF729FD94F94400401CCB
:1045800001D184F8449094F94500401C01D184F88D
:104590004590FFF73BFD05A9684600F0D5F90028D6
:1045A00020460AD0FFF708FB00F02EFB2046FFF75D
:1045B000BFF90028A3D00020BEE7FFF7B9F9D8B1B2
:1045C000206830B9FFF702FD6068FFF731FEFFF7A2
:1045D0001DFD04F124000599FFF7F6FD2046FFF7C5
:1045E000EBFA00F011FB002889D1C8F80070BFF386
:1045F0004F8FBFF36F8F82E72046FFF7DDFA00F0A1
:1046000003FB7CE704ED00E070B50D46040025D007
:10461000FFF7DCFCD4E90F20216802FB0011616088
:104620000021A1632168A1600A46D4E90F01401E60
:1046300000FB0121E16021464FF0FF3001F8440FFB
:10464000487004F110008DB1FFF78EFC04F12400D6
:10465000FFF78AFCFFF7DAFC012070BD502080F3E1
:104660001188BFF34F8FBFF36F8FFEE721690029D9
:10467000F0D000F08FFA0028ECD004494FF08050C1
:104680000860BFF34F8FBFF36F8FE3E704ED00E0E7
:104690002DE9FF4782B01D468A464FF0000804000E
:1046A00003D0BAF1000F08D011E0502080F3118838
:1046B000BFF34F8FBFF36F8FFEE7206C38B15020F0
:1046C00080F31188BFF34F8FBFF36F8FFEE7022D8A
:1046D0000AD1E06B012807D0502080F31188BFF386
:1046E0004F8FBFF36F8FFEE700F090F93F4F4FF011
:1046F00000094FF0805648B9049838B1502080F333
:104700001188BFF34F8FBFF36F8FFEE7FFF75EFC9B
:10471000A06BE16B884207D3022D05D00498D0B17D
:10472000B8F1000F1AD01EE02A4651462046FEF787
:10473000FAFF616A19B104F1240000F02BFA20B1EC
:104740003E60BFF34F8FBFF36F8FFFF75FFC012019
:1047500006B0BDE8F087FFF759FC22E06846FFF796
:10476000A9FD4FF00108FFF751FCFFF7EDFDFFF742
:104770002DFC94F94400401C01D184F8449094F934
:104780004500401C01D184F84590FFF73FFC04A987
:10479000684600F0D9F830B12046FFF70DFA00F076
:1047A00033FA0020D4E7FFF711FCA06BE16B8842DD
:1047B00013D1FFF72BFC04F110000499FFF704FD5F
:1047C0002046FFF7F9F900F01FFA00289ED13E605D
:1047D000BFF34F8FBFF36F8F98E7FFF717FC2046AB
:1047E000FFF7EAF900F010FA90E7000004ED00E0AE
:1047F0002DE9F0471F4690468946040003D0B9F1E1
:10480000000F08D011E0502080F31188BFF34F8FC4
:10481000BFF36F8FFEE7206C38B1502080F3118812
:10482000BFF34F8FBFF36F8FFEE7022F0AD1E06B0C
:10483000012807D0502080F31188BFF34F8FBFF3BA
:104840006F8FFEE7FFF734FC5020EFF3118680F303
:104850001188BFF34F8FBFF36F8FA06BE16B88425E
:1048600006D3022F04D0002086F31188BDE8F0871C
:1048700094F945503A4649462046FEF754FF681CD5
:1048800004D06D1C84F845500120EDE7606A0028D3
:10489000FAD004F1240000F07DF90028F4D0B8F13A
:1048A000000FF1D00121C8F80010EDE72DE9F04725
:1048B00090468946040003D0B9F1000F08D011E0FA
:1048C000502080F31188BFF34F8FBFF36F8FFEE747
:1048D000206C38B1502080F31188BFF34F8FBFF3A5
:1048E0006F8FFEE7FFF7E4FB5020EFF3118680F3B4
:1048F0001188BFF34F8FBFF36F8FA76BF7B194F998
:10490000445049462046FEF7FBFE7F1EA763681C05
:1049100004D06D1C84F84450012010E02069002868
:10492000FAD004F1100000F035F90028F4D0B8F105
:10493000000FF1D00121C8F80010EDE7002086F348
:104940001188BDE8F087000070B50D46040019D04D
:1049500005B3FFF73BFB164AD1682868431C0FD00C
:104960002368126A934202D062688A421AD9626846
:10497000891A814216D2401A28602046FFF79AFC15
:10498000002410E0502080F31188BFF34F8FBFF355
:104990006F8FFEE7502080F31188BFF34F8FBFF376
:1049A0006F8FFEE70124FFF731FB204670BD00004A
:1049B0007C0000202DE9FF5F8346DDE90E879946E4
:1049C00016468A469000FFF72DF905001AD05420AC
:1049D000FFF728F9040012D025630021CDE9024138
:1049E000CDE900874B46324651465846FEF716FF42
:1049F0002046FEF7CDFD012004B0BDE8F09F28461B
:104A0000FFF718FB4FF0FF30F6E70000054841695B
:104A100019B1006B18B100207047012070470220C7
:104A2000704700007C0000200148C068704700000B
:104A30007C0000202DE9F0412E4C0027206B40B176
:104A4000A069401CA061E06900B101273846BDE8BB
:104A5000F081E668761CE66013D1606B006838B1BF
:104A6000502080F31188BFF34F8FBFF36F8FFEE7A5
:104A7000606BA16B6163A063206A401C2062FFF73A
:104A80001BF8A06ADFF87080864209D3606B00686B
:104A900080B1606BC068C568686886420DD2A0624C
:104AA0002068C06A00EB800158F821000128CAD9AB
:104AB0000127C8E74FF0FF30F1E7281DFFF742FA62
:104AC000A86A18B105F11800FFF73CFAE86A01215D
:104AD000226981401143216100EB800108EB8100D4
:104AE000291DFFF767FAE86A2168C96A8842CDD3B1
:104AF0000127CBE77C000020942E002070B5040035
:104B00004FF0000140D0214D2868844207D050204A
:104B100080F31188BFF34F8FBFF36F8FFEE7A06C58
:104B200038B1401EA064636CE26A9A422CD040B156
:104B30002AE0502080F31188BFF34F8FBFF36F8FAF
:104B4000FEE7201DFFF7FEF9114A012150B9E06A86
:104B500000EB800352F8233023B92B6901FA00F0EF
:104B600083432B61606CE062C0F10700A061E06AE2
:104B70002B6981401943296100EB800002EB800022
:104B8000211DFFF717FA0121084670BD7C000020A7
:104B9000942E00202DE9F041C068C468ACB104F146
:104BA00018000746FFF7CEF9154D286B0126A0B176
:104BB00039461448FFF7FEF9E06A2968C96A884255
:104BC0001CD90120EE61BDE8F081502080F31188EE
:104BD000BFF34F8FBFF36F8FFEE7201DFFF7B2F9D2
:104BE000E16A2A6906FA01F01043286101EB8100AD
:104BF0000449B43901EB8000211DDBE70020E2E726
:104C00007C000020482F00202DE9F0472C4D002487
:104C10002746286B38B1FFF7D9F9286B401E286367
:104C2000286B40B146E0502080F31188BFF34F8FCE
:104C3000BFF36F8FFEE7A968224E0120D1B3A6F122
:104C4000B40980463068E8B1F068C46804F118001F
:104C5000FFF778F9201DFFF775F9E06A2A6908FA6D
:104C600000F11143296100EB800109EB8100211D56
:104C7000FFF7A0F9E06A2968C96A8842E2D3C5F85B
:104C80001C80DFE70CB1FEF717FFAC6944B1464664
:104C9000FFF7D0FE00B1EE61641EF9D10020A861DB
:104CA000E86938B10849012738070860BFF34F8F1A
:104CB000BFF36F8FFFF7AAF93846BDE8F087000011
:104CC0007C000020482F002004ED00E02DE9F04793
:104CD0000746994616460D462820DDF820A0FEF727
:104CE000A1FF04000ED0B8464F46D1466DB1FEF785
:104CF000B7FC04F11801C4F8008081E8E002201D2F
:104D0000FFF73DF92046BDE8F087502080F3118879
:104D1000BFF34F8FBFF36F8FFEE700001CB5FEF7A8
:104D20009FFC0C48006860B10A490220091DCDE9CA
:104D300000010023402208A10948FFF73BFE00289C
:104D400007D1502080F31188BFF34F8FBFF36F8FCF
:104D5000FEE71CBDB8000020546D7220537663003E
:104D6000953B0008FEB51E4613460200089D4FF015
:104D7000000014D0124C2768002F0FD0CDE900138B
:104D80000292062915DAFFF741FE02284FF00003D0
:104D90000DD0002269462068FFF77AFCFEBD502046
:104DA00080F31188BFF34F8FBFF36F8FFEE72A4662
:104DB000F0E70023324669463846FFF719FDFEBD8D
:104DC000B80000200D330008400000000200000081
:104DD00010000000040000000C5800087D220008AC
:104DE000000000000000000040000000045800081F
:104DF00001320008FDFF00000000000080000000FC
:104E0000F8570008AD310008FDFF00000000000069
:104E10000001000000FE7E0606060602007F7E609E
:104E20006060604002060606067EFE00406060602C
:104E3000607E7F0000000000000000000000000015
:104E400000000000002F0000000007000700001411
:104E50007F147F1400242A7F2A120062640813231F
:104E600000364955225000000503000000001C22B6
:104E70004100000041221C000014083E08140008F4
:104E8000083E0808000000A06000000808080808A4
:104E9000000060600000002010080402003E51493C
:104EA000453E0000427F40000042615149460021DA
:104EB00041454B31001814127F10002745454539F4
:104EC000003C4A494930000171090503003649494F
:104ED000493600064949291E000036360000000008
:104EE0005636000000081422410000141414141453
:104EF00000004122140800020151090600324959FC
:104F0000513E007C1211127C007F49494936003E17
:104F100041414122007F4141221C007F49494941D2
:104F2000007F09090901003E4149497A007F0808CC
:104F3000087F0000417F4100002040413F01007F89
:104F400008142241007F40404040007F020C027F55
:104F5000007F0408107F003E4141413E007F090967
:104F60000906003E4151215E007F0919294600468D
:104F7000494949310001017F0101003F4040403F64
:104F8000001F2040201F003F4038403F00631408AE
:104F90001463000708700807006151494543000089
:104FA0007F41410000552A552A55000041417F00AC
:104FB00000040201020400404040404000000102A1
:104FC0000400002054545478007F4844443800388A
:104FD0004444442000384444487F00385454541812
:104FE00000087E0901020018A4A4A47C007F080424
:104FF00004780000447D4000004080847D00007FF4
:10500000102844000000417F4000007C0418047810
:10501000007C0804047800384444443800FC24240C
:1050200024180018242418FC007C080404080048F4
:105030005454542000043F444020003C4040207C15
:10504000001C2040201C003C4030403C0044281004
:105050002844001CA0A0A07C004464544C441414B8
:10506000141414140002023C4242000303708888A6
:1050700000000000C0C0FC04040404040404040490
:1050800004040404040404040404040404FC0000F0
:105090000000000007077F40404040404040404043
:1050A000404040404040404040404040407F000041
:1050B00000000000C0C0FC04040404040404040450
:1050C0000404040404040404F4F4F4F404FC0000F0
:1050D0000000000007077F40404040404040404003
:1050E00040404040404040405F5F5F5F407F000085
:1050F00000000000C0C0FC04040404040404040410
:1051000004040404F4F4F4F4F4F4F4F404FC0000EF
:105110000000000007077F404040404040404040C2
:10512000404040405F5F5F5F5F5F5F5F407F0000C8
:1051300000000000C0C0FC040404040404040404CF
:10514000F4F4F4F4F4F4F4F4F4F4F4F404FC0000EF
:105150000000000007077F40404040404040404082
:105160005F5F5F5F5F5F5F5F5F5F5F5F407F00000C
:1051700000000000C0C0FC0404040404F4F4F4F4CF
:10518000F4F4F4F4F4F4F4F4F4F4F4F404FC0000AF
:105190000000000007077F40404040405F5F5F5FC6
:1051A0005F5F5F5F5F5F5F5F5F5F5F5F407F0000CC
:1051B00000000000C0C0FC04F4F4F4F4F4F4F4F4CF
:1051C000F4F4F4F4F4F4F4F4F4F4F4F404FC00006F
:1051D0000000000007077F405F5F5F5F5F5F5F5F0A
:1051E0005F5F5F5F5F5F5F5F5F5F5F5F407F00008C
:1051F00000000000000000000000000000000000AF
:10520000000000F800000000000000333000000043
:1052100000100C06100C060000000000000000004A
:1052200040C07840C0784000043F04043F040400BC
:10523000007088FC08300000001820FF211E0000CC
:10524000F008F000E018000000211C031E211E00E1
:1052500000F00888700000001E2123241927211067
:1052600010160E000000000000000000000000000A
:10527000000000E0180402000000000718204000B1
:1052800000020418E00000000040201807000000A1
:10529000404080F0804040000202010F0102020005
:1052A000000000F0000000000101011F01010100E9
:1052B000000000000000000080B07000000000004E
:1052C00000000000000000000001010101010101D7
:1052D000000000000000000000303000000000006E
:1052E0000000000080601804006018060100000043
:1052F00000E010080810E000000F102020100F0040
:10530000001010F8000000000020203F20200000C6
:10531000007008080888700000302824222130001E
:1053200000300888884830000018202020110E0026
:105330000000C02010F8000000070424243F2400CF
:1053400000F80888880808000019212020110E00A4
:1053500000E0108888180000000F112020110E00B6
:1053600000380808C83808000000003F00000000AE
:105370000070880808887000001C222121221C006F
:1053800000E010080810E0000000312222110F0098
:10539000000000C0C000000000000030300000002D
:1053A000000000800000000000008060000000009D
:1053B00000008040201008000001020408102000B6
:1053C0004040404040404000040404040404040001
:1053D0000008102040800000002010080402010096
:1053E000007048080808F000000000303601000096
:1053F000C030C828E810E0000718272423140B0049
:105400000000C038E0000000203C230202273820C2
:1054100008F8888888700000203F202020110E00A6
:10542000C03008080808380007182020201008009D
:1054300008F808080810E000203F202020100F0086
:1054400008F88888E8081000203F20202320180052
:1054500008F88888E8081000203F200003000000BA
:10546000C03008080838000007182020221E02005B
:1054700008F808000008F808203F210101213F201A
:10548000000808F8080800000020203F2020000045
:1054900000000808F8080800C08080807F00000035
:1054A00008F888C028180800203F2001263820006E
:1054B00008F8080000000000203F202020203000D5
:1054C00008F8F800F8F80800203F003F003F2000EF
:1054D00008F830C00008F808203F200007183F00F7
:1054E000E01008080810E0000F10202020100F0026
:1054F00008F808080808F000203F21010101000019
:10550000E01008080810E0000F18242438504F005D
:1055100008F8888888887000203F2000030C30201D
:1055200000708808080838000038202121221C005B
:10553000180808F8080818000000203F20000000A4
:1055400008F808000008F808001F202020201F008D
:105550000878880000C83808000007380E010000ED
:10556000F80800F80008F800033C0700073C0300B7
:10557000081868808068180820302C03032C30201D
:105580000838C800C83808000000203F200000008C
:1055900010080808C83808002038262120201800E4
:1055A000000000FE020202000000007F40404000B8
:1055B000000C30C000000000000000010638C000F0
:1055C00000020202FE000000004040407F00000098
:1055D00000000402020204000000000000000000BD
:1055E00000000000000000008080808080808080BB
:1055F00000020204000000000000000000000000A3
:1056000000008080808000000019242222223F2098
:1056100008F8008080000000003F112020110E00DB
:105620000000008080800000000E1120202011006A
:10563000000000808088F800000E112020103F201C
:105640000000808080800000001F222222221300A0
:10565000008080F0888888180020203F20200000EB
:105660000000808080808000006B949494936000A0
:1056700008F8008080800000203F210000203F20AB
:1056800000809898000000000020203F20200000AB
:10569000000000809898000000C08080807F00009B
:1056A00008F8000080808000203F24022D30200078
:1056B000000808F8000000000020203F2020000023
:1056C0008080808080808000203F20003F20003F3D
:1056D0008080008080800000203F210000203F204B
:1056E0000000808080800000001F202020201F00FC
:1056F000808000808000000080FFA12020110E002B
:105700000000008080808000000E112020A0FF801B
:10571000808080008080800020203F2120000100C8
:10572000000080808080800000332424242419001D
:10573000008080E0808000000000001F202000002A
:105740008080000000808000001F202020103F206B
:10575000808080000080808000010E3008060100FB
:1057600080800080008080800F300C030C300F00A0
:1057700000808000808080000020312E0E312000CB
:10578000808080000080808080818E7018060100FB
:1057900000808080808080000021302C2221300019
:1057A00000000000807C020200000000003F40403A
:1057B00000000000FF00000000000000FF000000EB
:1057C0000002027C800000000040403F000000001A
:1057D00000060101020204040000000000000000B5
:1057E0000000000000000000010203040607080991
:1057F0000000000001020304646973705461736B5C
:105800000000000069725461736B0000646566619A
:10581000756C745461736B003858000800000020E8
:10582000D00000000C27000808590008D000002014
:10583000E03200001C270008000000000100080002
:105840000400020000000000000000000000000052
:10585000000000000008014000080140000801406D
:1058600000080140000000000000000000000000EF
:105870000000000000000000000000000000000028
:1058800001000000100000000000000000A24A0417
:105890000000000000000000000000000000000008
:1058A000000000000000000000000000AAAAAAAA50
:1058B00000000000000000000000000000000000E8
:1058C00000000000000000000000000000000000D8
:1058D00000000000000000000000000000000000C8
:1058E00000000000000000000000000000000000B8
:1058F00000000000000000000000000000000000A8
:0859000000000000000000009F
:04000005080000ED02
:00000001FF
