:020000040800F2
:100000008835002099010008EF2B0008852400089E
:10001000ED2B0008890B00089D300008000000004F
:1000200000000000000000000000000001010008C6
:100030008B0B00080000000045010008272C000879
:10004000B3010008B3010008B3010008B3010008C0
:10005000B3010008B30100088D0B0008B3010008CC
:10006000B3010008B3010008B3010008B3010008A0
:10007000B3010008B3010008B3010008B301000890
:10008000B3010008B3010008B3010008B301000880
:10009000B3010008B3010008B3010008B301000870
:1000A000B3010008ED2C0008B3010008B3010008FB
:1000B000B3010008B3010008B3010008B301000850
:1000C000B3010008B3010008B3010008B301000840
:1000D000B3010008B3010008B3010008B301000830
:1000E000930B0008B3010008B3010008DFF80CD03F
:1000F00000F08EFC004800471D54000888350020A1
:10010000224B19680868B0E8F00F80F30988BFF344
:100110006F8F4FF0000080F311884EF00D0E704786
:100120000000000006480068006880F3088862B696
:1001300061B6BFF34F8FBFF36F8F00DF00BF00BF0B
:1001400008ED00E0EFF30980BFF36F8F0F4B1A68E3
:1001500020E9F00F106008B54FF0500080F31188CF
:10016000BFF34F8FBFF36F8F06F036FB4FF00000E9
:1001700080F31188BDE8084019680868B0E8F00FFE
:1001800080F30988BFF36F8F704700BFE80000203D
:10019000EFF3058070470000064880470648004797
:1001A000FEE7FEE7FEE7FEE7FEE7FEE7FEE7FEE727
:1001B000FEE7FEE7A52C0008ED000008202A04DB7E
:1001C000203A21FA02F00021704721FA02F3D040D0
:1001D000C2F12002914008431946704740EA0103EA
:1001E0009B0703D009E008C9121F08C0042AFAD2ED
:1001F00003E011F8013B00F8013B521EF9D27047B1
:10020000F0B480EA0102D40F4200B2EB410F02D2F7
:100210000246084611464A0042D0C30DDDB2C1F382
:10022000C752AD1A202D35DAC1F3160141F4000290
:1002300004B15242C5F1200602FA06F12A411044E7
:10024000B3EBD05F23D0C4B1012DA0EBC35009DCC8
:10025000F0BC4FF0004202EAC352DBB200F50000EE
:1002600000F005BA400000F1807000EBC350A0F12F
:10027000807040EAD170490009E0490841EAC07144
:10028000A0EBC35000F50000400800EBC350F0BCE9
:1002900000F0E4B96142012202EB4101001BF6E7E4
:1002A000F0BC704781F00041AAE780F00040A7E76A
:1002B00080EA010210B502F00043400022D04A005B
:1002C0001FD0010E01EB1261C0F35600C2F35602BB
:1002D00040F4000042F40002A0FB022000047F3939
:1002E000140400D0401C50EA124001D44000491EC2
:1002F000C2B20C0604EBD010401C4008802A02D089
:1003000003E0002010BD20F00100002900DA0020E9
:10031000184310BD30B480EA010202F0004530F00D
:10032000004221F0004013D090B1C30DD40DC2F3B0
:100330001601C0F31600E41A41F4000140F4000273
:100340007D34914201D3641C00E04900002C02DAA4
:1003500030BC002070474FF400000023914201D3CD
:10036000891A034340084FEA4101F7D151B1914244
:1003700002D14FF0004105E002D24FF0010101E04F
:100380006FF0010103EBC450284430BC00F066B9A3
:100390002DE9FE4F81EA030404F0004421F00041FE
:1003A00000944FF0000B23F0004350EA01045ED0AC
:1003B00052EA03045BD0C3F30A54C1F30A552C4438
:1003C000A4F2F3340194A0FB0254C1F3130141F4ED
:1003D0008011C3F3130343F4801301FB024400FBB9
:1003E000034E840A970A44EA815447EA8357A4FBE0
:1003F000076802958D0A05FB07854FEA932C04FBDD
:100400000C542705029D4FEA065847EA1637B5EB0C
:1004100008056EEB070C870E920E47EA811742EA39
:100420008312A7FB0201B6EB0B0164EB00042B0D5A
:1004300043EA0C335E1844EB1C50DA465146E7FBA6
:100440000201C5F313044FEA0B3343EA14534FEA96
:100450000432019C43EA0603A4F10C040294009CBC
:10046000CDE900B400F040F903B0BDE8F08F002002
:100470000146F9E770B521F0004303430CD0C1F306
:100480000A550024D5EB040564EB0403D617AD1A16
:10049000B34102DB0020014670BD201841EB025140
:1004A00070BDC10F80EAE0700844CA07962300219E
:1004B00000F0DDB896230022114600F0D8B80EB542
:1004C00040F2334102910021CDE900110A460B466A
:1004D00000F00AF903B000BD20F00040C10DC0F3E8
:1004E000160040F400007F2901DA002070479629A9
:1004F00003DCC1F19601C8407047963988407047C7
:1005000070B5C1F30A5201F000450024C1F3130194
:1005100040F2FF3341F480119A4201DA002070BDAD
:1005200040F233439A42A2F2334203DC5242FFF7D5
:1005300045FE00E090402C43F1D0404270BDC1F335
:100540000A5210B5C1F3130140F2FF3341F4801198
:100550009A4201DA002010BD40F233439A42A2F2DF
:10056000334203DC5242FFF729FE10BD904010BD1C
:1005700000F0004230F000400AD0C10D01F560717A
:10058000C0F3160042EA0151C20840071143704708
:1005900000200146704701F0004330B421F00041D3
:1005A00050EA010206D00A0DA2F56072C1F31301F0
:1005B000002A02DC30BC00207047440F44EAC1042A
:1005C000C100E01830BC00EBC25000F047B830B5B5
:1005D0000B46014600202022012409E021FA02F501
:1005E0009D4205D303FA02F5491B04FA02F528449B
:1005F000151EA2F10102F1DC30BD2DE9F05F0546C8
:10060000002092469B4688460646814640241BE0D1
:100610002846414647462246FFF7D0FD53465A46F4
:10062000C01A914110D311461846224600F002FA32
:100630002D1A67EB01084F4622460120002100F0E9
:10064000F9F917EB00094E41201EA4F10104DFDC8B
:10065000484631462A464346BDE8F09F0029A8BFD8
:100660007047401C490008BF20F00100704710B4DB
:10067000B0FA80FC00FA0CF050EA010404BF10BC90
:10068000704749B1CCF1200421FA04F411FA0CF1BD
:1006900018BF012121430843A3EB0C01CB1D4FEAF6
:1006A00000614FEA102042BF002010BC704700EBF1
:1006B000C35010440029A4BF10BC7047401C49001F
:1006C00008BF20F0010010BC704710B5141E73F174
:1006D000000408DA401C41F1000192185B411A4302
:1006E00001D120F0010010BD2DE9F04D92469B464E
:1006F00011B1B1FA81F202E0B0FA80F220329046F4
:1007000000F098F904460F4640EA0A0041EA0B015E
:1007100053465A46084313D0114653EA010019D0F4
:10072000C8F140025046FFF749FD05460E465046C7
:100730005946424600F07EF9084305D0012004E006
:1007400020463946BDE8F08D0020054346EAE076B4
:100750002C4337430A986305E40AA0EB0800002203
:10076000FD0A44EA47540A3002D500200146E9E771
:10077000010510196941DDE9084500196941BDE825
:10078000F04DA2E72DE9FE4F804681EA0300C00F3D
:100790000C46009021F0004123F00045B8EB020028
:1007A000A94105D24046214690461C460B460246CA
:1007B00023F00040104347D0270DC7F30A00C3F3CE
:1007C0000A510290401A019040286BDAC3F31300DB
:1007D00040F4801B0098924620B10023D2EB030A1C
:1007E00063EB0B0B01985946C0F14002504600F0F4
:1007F00021F906460D4650465946019A00F029F95E
:1008000010EB08006141002487EA115284EAE77383
:100810001A4340D0009A62B3019A012A4FEA075264
:1008200015DC001B61EB02014FF0004202EA0752A7
:10083000CDE90042001C41F5801132462B46FFF7FE
:1008400053FF03B0BDE8F08F40462146F9E7001B97
:1008500061EB0201001C41F5801300185B41201878
:10086000A2F5001747EB030140EAD570B6196D41B8
:1008700011E06D084FEA360645EAC0754FEA0752A7
:10088000001B61EB0201001C41F5801149084FEA91
:1008900030000019514132462B4603B0BDE8F04FFD
:1008A000FFF713BF0098012240000023D0EB0202A3
:1008B00063EBE073009821464FEAE074B8EB000068
:1008C00061EB0401E9E783F000435BE781F000415D
:1008D00058E72DE9F04D81EA030404F0004B21F0C4
:1008E000004514464FF0000A23F0004150EA05028B
:1008F00020D054EA01021DD0C5F30A570246C5F3C1
:100900001303C1F31300C1F30A5640F4801543F4F6
:100910008013A7EB0608101BD64608F2FD3873EBD0
:10092000050002D308F1010801E092185B41B8F11B
:10093000000F03DA00200146BDE8F08D00204FF4DF
:100940008011064684460EE0171B73EB050705D39E
:10095000121B63EB050306434CEA010C49084FEAFE
:10096000300092185B4150EA0107EDD152EA0300D2
:1009700012D082EA040083EA0501084305D0101B67
:10098000AB4106D20122002306E000224FF00043D3
:1009900002E06FF0010253101AEB06004CEB085115
:1009A00010EB0A0041EB0B01BDE8F04DFFF78DBEE7
:1009B000C1F30A52C1F3130140F2FF3341F4801135
:1009C0009A4202DA00200146704740F233439A42CD
:1009D000A2F2334202DC5242FFF7F0BB00F02AB829
:1009E00030B5041E71F1000404DB4FF000444042B6
:1009F00064EB0101141E73F1000405DB1C464FF08B
:100A00000043524263EB0403994208BF904230BD59
:100A1000064C074D06E0E06840F0010394E807004B
:100A200098471034AC42F6D3FFF764FB9484000877
:100A3000B4840008202A04DB203A00FA02F10020E6
:100A400070479140C2F1200320FA03F3194390400C
:100A50007047202A06DBCB17203A41FA02F043EA1E
:100A6000E07306E041FA02F3D040C2F12002914067
:100A700008431946704770B58C1810F8015B15F0E3
:100A8000070301D110F8013B2A1106D110F8012B00
:100A900003E010F8016B01F8016B5B1EF9D12B0725
:100AA00005D40023521E0DD401F8013BFAE710F8DB
:100AB000013BCB1A921C03E013F8015B01F8015BC8
:100AC000521EF9D5A142D8D3002070BD70B504469E
:100AD00000688168C943C9071CD1816821F0010100
:100AE000816000F0A3FB05460FE000BF00F09EFB15
:100AF000401B022809D9A06A40F01000A062E06AF9
:100B000040F00100E062012070BD20688068C043B1
:100B1000C007EBD0002070BDF8B500260446009653
:100B200000688168C943C90728D0816841F0010184
:100B30008160134813490068B0FBF1F000E0401EEB
:100B400000900028FBD100F071FB054611E000BFCA
:100B500000F06CFB401B02280BD9A06A40F010008B
:100B6000A062E06A40F00100E06284F824600120A5
:100B7000F8BD20688068C043C007E9D10020F8BDF7
:100B8000C000002040420F00FEE77047012000F047
:100B900059BA4FF4004000F055BA0000F8B50024EF
:100BA000009490F824202546012A12D0012280F8D2
:100BB00024204A681F23072A0DD20668776B521E2D
:100BC00002EB820293409F430B6893401F4377637D
:100BD00019E00220F8BD06680D2A0AD2376BD21F31
:100BE00002EB820293409F430B6893401F4337639D
:100BF00009E0F76A0D3A02EB820293409F430B68CB
:100C000093401F43F7620A68072306680A2A0AD33B
:100C1000F7680A3A02EB420293409F438B68934085
:100C20001F43F76008E0376902EB420293409F439D
:100C30008B6893401F4337610A68102A01D0112A3C
:100C400020D1124B02689A4217D193681B0219D423
:100C5000936843F4000393600968102912D10C498A
:100C60000C4A0968B1FBF2F101EB8101490000E097
:100C7000491E00910029FBD104E0816A41F0200166
:100C80008162012480F824502046F8BD00240140F0
:100C9000C000002040420F000068C06C7047000098
:100CA0002DE9F0414FF0000704003D467ED0A06AD8
:100CB000002628B9E66284F82460204600F07EF819
:100CC0002046FFF703FFA16AC90600D420B1A06A3D
:100CD00040F01000A06269E0A16A21F4885141F05F
:100CE0000201A1626268E169E3680A4347EA4301DD
:100CF0000A43A1684FF48077B94209D0012907D08F
:100D00005FF00001D4F814C0BCF1010F02D00AE07A
:100D10003946F7E7F3B1A36A43F02003A362E36A1D
:100D200043F00103E3622368D3F804C02CF4694C58
:100D30004CEA010CC3F804C021688B68DFF870C06E
:100D400003EA0C0313438B60A168B9420BD001295D
:100D500009D00CE0DFF85CC0A3690CEB43330B4314
:100D600043F40061DFE7218A0D05A5F580152168B0
:100D7000CB6A23F470032B43CB62216889680E4B46
:100D80001940914208D1E662A16A21F0020141F0C6
:100D90000101A162BDE8F081A06A20F0020040F0EC
:100DA0001000A062E06A40F00100E0620120F1E77B
:100DB000FDF7E1FF00E0FFFFFE0E1FFF10B500682A
:100DC0000E4986B0884217D10D48816941F40071FF
:100DD00081618069032400F4007004901020CDE943
:100DE00000046946074800F039F90220CDE9000403
:100DF0006946054800F032F906B010BD00240140F4
:100E00000010024000080140000C01402DE9F843A9
:100E100000260D460446009600F008FA8046206839
:100E20008168C90508D5A06A40F02000A06284F856
:100E300024600120BDE8F8834168C90503D4C06A75
:100E400010F4700F26D0022000F05CFC38490968CD
:100E5000B1FBF0F72068036936490B424FEA6101A4
:100E60004FEAA1121BD1C3684FEA611C13EA0C0FB1
:100E700015D103690B4221D1C06810421ED1142044
:100E80001FE0681C06D045B300F0D0F9A0EB0800C5
:100E9000A84222D8206800688007F2D52AE00369BA
:100EA0000B4202D1C168114206D0026922490A42AE
:100EB00006D1C068084203D1542002E0292000E096
:100EC000FC204743009813E0681C0ED02DB100F0C1
:100ED000ADF9A0EB0800A84207D9A06A40F00400D1
:100EE000A06284F824600320A4E70098401C0090CE
:100EF000B842E9D321686FF012000860A06A40F49C
:100F00000070A06220688068C0F3424007280CD1BE
:100F1000E06850B9A06A20F48070A062A06AC004A2
:100F200003D4A06A40F00100A062002082E7000024
:100F3000C0000020244992244992240070B5044640
:100F400090F8240001280DD0012084F824002046C8
:100F5000FFF7E2FD02004FF0000005D084F8240006
:100F6000104670BD022070BDA16A40F20123994372
:100F700041F48071A1621F4D23681F49AB4218D113
:100F80000E6816F4702F14D0A66A46F48016A66276
:100F90000E68760505D5A66A26F4005646F48056F6
:100FA000A662A66AF6040AD5E66A26F00606E66296
:100FB00006E0A66A26F48016A6625E68E9E7E062AB
:100FC00084F824006FF00200186020688368C3F37F
:100FD0004243072B05D1A84208D1096811F4702FAC
:100FE00004D0816841F480118160B9E7816841F4DF
:100FF000A001F9E7002801400424014010B504468F
:1010000090F82400012807D0012084F8240020460D
:10101000FFF75CFD10B107E0022010BDA16A21F4CA
:10102000885141F00101A162002184F8241010BD13
:10103000B0F5004F03D0012803D105F0ADB903F09E
:1010400053BD7047044910B50A68024202D00860D7
:10105000FFF7EEFF10BD0000140401402DE9F84F2A
:10106000DFF890A100220AF1040B144601274FF08B
:101070000F090BF1040E00BF0B6807FA04F52B40B3
:10108000AB4274D1DFF870C14E68A6EB0C08664520
:101090002BD00DDC032E34D005DC36B3012E19D055
:1010A000022E2FD11BE0112E16D0122E2AD119E0BC
:1010B000B8F5881F19D006DCB8F5803F15D0B8F513
:1010C000801F1FD111E0B8F5001F0ED0B8F5041F26
:1010D00018D10AE0CA6815E0CA68121D12E0CA6891
:1010E00008320FE0CA680C320CE08A682AB1012A83
:1010F0004FF0080203D0456104E0042202E00561DC
:1011000000E00022FF2B01D8064601E000F10406B2
:101110004FEA840501D9A5F12005D6F800C009FAE7
:1011200005F82CEA080C02FA05F54CEA050CC6F89D
:1011300000C04D68ED0057D5304DAE6946F0010650
:10114000AE61AD6924F0030605F0010500952C4D54
:1011500006EB050CDCF80850A6074FEA167809FAEA
:1011600008F6B543274EB04202D1002610E03BE01E
:10117000254EB04201D101260AE0244EB04201D1F1
:10118000022605E0224EB04201D1032600E00426EB
:1011900006FA08F62E43CCF808604D68DAF80060CD
:1011A000ED03554601D51E4300E09E432E604D6879
:1011B000DBF80060AD035D4601D51E4300E09E43B1
:1011C0002E604D68DEF80060ED02754601D51E43C5
:1011D00000E09E432E604D68AD020E4D2E6801D595
:1011E0001E4300E09E432E60641C102CFFF444AFAD
:1011F000BDE8F88F0004014000001110001002400B
:101200000000014000080140000C014000100140B6
:10121000001401400C0401408068084000D0012007
:1012200070470AB1016170470904FBE70148806813
:1012300070470000B400002070B504001BD094F883
:101240003D00002520B984F83C50204600F032F9DA
:10125000242084F83D002068016821F0010101602C
:1012600000F0FAFB404A6168914201D83F4900E032
:101270003F49884201D2012070BD3E492368B0FB3E
:10128000F1F159606368934206D94FF4967359435C
:101290004FF47A73B1FBF3F12368491C196261685A
:1012A000914210D84900401EB0FBF1F2521CC2F32B
:1012B0000B02042A01D2042022E0B0FBF1F0401C12
:1012C000C0F30B001CE0A368CBB301EBC10202EB3F
:1012D0000116421EB2FBF6F2521C42F48042120585
:1012E00036D06BB301EBC10202EB0111401EB0FB23
:1012F000F1F0401CC0F30B0040F4804040F400408B
:101300002168C861D4E90701084321680860D4E96D
:101310000310084321688860D4E905010843216867
:10132000C8602068016841F0010101602564202047
:1013300084F83D00256384F83E50002070BD00E035
:1013400008E001EB4106421EB2FBF6F2521CC6E772
:101350000120D5E701EB4101401EB0FBF1F0401C3C
:10136000C0F30B00CAE70000A086010080841E00C5
:1013700000093D0040420F002DE9FF4F83B09A461F
:10138000DDE9118793460446DDF84090FFF74EFFF4
:10139000064694F83D0020287DD1192301224349B7
:1013A0002046009601F0FBF800287CD194F83C0020
:1013B000012878D0012084F83C0020680168C90722
:1013C00003D1016841F0010101602068016821F446
:1013D00000610160212084F83D00402084F83E0037
:1013E00000252564C4F82490A4F82A803048E062DF
:1013F000608D2085CDE9007653465A4620460499F3
:1014000001F056F880B3206C84F83C50042848D092
:1014100008E032463946204601F036F930B1206CFA
:10142000042839D0032007B0BDE8F08F606A411C62
:101430006162216800780861208D401E80B220859D
:10144000618D491E618521684A69D24352070BD4D8
:1014500068B1606A421C626200780861208D401E9B
:101460002085608D401E6085208D0028D1D13246B8
:101470003946204601F06CF80028D0D154F83D0BD5
:10148000016841F400710160202004F81E09E5772D
:1014900065770020C7E706E02068016841F4007125
:1014A00001600120BFE70220BDE70000020010003C
:1014B0000000FFFF00B500680C4985B0884213D1D9
:1014C0004FF4406000901220019003200390694681
:1014D0000748FFF7C3FD0748C16941F48001C161B6
:1014E000C06900F48000049005B000BD00580040C1
:1014F000000C01400010024002488168027811444B
:1015000081607047B4000020074810B5016841F0C1
:1015100010010160032000F0C1F8002000F006F87F
:1015200000F03EF8002010BD0020024000B501464A
:1015300087B00022192000F091F8192000F083F8FC
:101540001348816941F400618161806905A900F453
:1015500000600690684600F059FA00F08DFA0D49D7
:101560000D4AB0FBF1F10D48491E0260416040F2A6
:10157000E7320021C0E90321816000F0A3FC10B133
:10158000012007B000BD054800F0F1FCF9E70000BC
:101590000010024040420F00002C0140EC070020E8
:1015A000214808B5816941F001018161816901F03B
:1015B00001010091C16941F08051C161C06900F031
:1015C00080500090032000F069F8002211466FF06F
:1015D0000B0000F043F8002211466FF00A0000F003
:1015E0003DF8002211466FF0090000F037F80022A4
:1015F0001146501F00F032F800221146101F00F073
:101600002DF800220F21901E00F028F800220F2153
:10161000501E00F023F80548416821F0E06141F0D8
:101620000071416008BD0000001002400000014050
:1016300000F01F02012191404009800000F1E020EC
:10164000C0F88011704700F01F020121914040094D
:10165000800000F1E020C0F800117047F0B40E4B9C
:101660001B680C46C3F30223C3F10705042D00D900
:101670000425191D072901D2002300E0DB1E0126E5
:1016800006FA05F1491E214099409E40761E1640FB
:101690003143F0BC01F0ACBA0CED00E0064900F0BB
:1016A000070208684FF6FF03184040EA0220034A89
:1016B00010430860704700000CED00E00000FA05E0
:1016C0000E4A10B5136823F002031360136823F069
:1016D0000103034313600A4C206840F004002060BB
:1016E000012909D040BF01F093FA01F091FA206876
:1016F00020F00400206010BD30BFF8E7007000400B
:1017000010ED00E010B529A401461DCC86B08DE88F
:101710001D002AA02A4C006804900020012923D033
:1017200002293AD010291DD161682268D20119D549
:10173000C1F38342C9031DF8020009D5616804AAF8
:10174000C1F34041515C1F4AB2FBF1F1484301E053
:101750001D4948436168490204D440005FF0030119
:10176000B0FBF1F006B010BD226AC2F301210129DD
:1017700003D1920701D5C803F4E7022905D1626AB3
:10178000920702D549F64040ECE70329EAD12168E7
:101790008903E7D54FF22440E4E700F06DF9616872
:1017A000C1F38131491C4900DAE700000203040556
:1017B000060708090A0B0C0D0E0F1010010200009D
:1017C0000010024000127A0000093D002DE9F843A4
:1017D00005460078354CC00754D0E0690026C000AB
:1017E00008D4E06940F08050E061E069012600F033
:1017F000805000902E480168C90512D401688046C7
:1018000041F480710160FFF711FD074605E000BF5C
:10181000FFF70CFDC01B642823D8D8F80000C005D2
:10182000F6D5206A10F4407021D0A98801F44071E7
:1018300081421CD0206A1F49012220F440700A60B6
:1018400000220A602062C00711D0FFF7EFFC0746B4
:1018500041F2883808E000BFFFF7E8FCC11B4145B2
:1018600002D90320BDE8F883206A8007F4D5206AF6
:10187000696820F44070084320621EB1E06920F0DE
:101880008050E0612878800705D56068A96820F459
:101890004040084360602878C00605D56068E96864
:1018A00020F48000084360600020DBE70010024065
:1018B00000700040400442422DE9F047DFF83C81CF
:1018C00005460E46D8F8000000F00700B0420CD2E2
:1018D000D8F8001021F007013143C8F80010D8F8FB
:1018E000000000F00700B04263D12878444C800724
:1018F00005D56068A96820F0F0000843606028788A
:10190000C00745D06868012816D02168022816D083
:10191000890700294DDA616821F003010143616004
:10192000FFF784FC6968074641F2883001290FD02F
:101930000229814619D027E021688903E9E7890156
:10194000E7E700BFFFF772FCC11B494501D918E06A
:1019500081466068C0F381000128F3D118E000BF20
:10196000FFF764FCC11B49450BD86068C0F38100D8
:101970000228F5D10CE000BFFFF758FCC11B494518
:1019800002D90320BDE8F087606810F00C0FF3D196
:10199000D8F80010404601F00701B1420BD90168A8
:1019A00021F0070131430160006800F00700B042F8
:1019B00001D00120E6E72878400705D56068E9688E
:1019C00020F4E060084360602878000706D560686E
:1019D000296920F4605040EAC100606000F05CF8C2
:1019E0006168084AC1F30311515CC84006490860A8
:1019F0000020FFF79BFD0020C4E70000002002400C
:101A0000001002404C840008C00000200F22026039
:101A10000C4A536803F003034360536803F0F00378
:101A20008360536803F4E063C36052684FF4E0637B
:101A300003EAD20202610448006800F0070008606F
:101A4000704700000010024000200240014800687A
:101A500070470000C000002004480549006849683C
:101A6000044AC1F30221515CC8407047C000002005
:101A7000001002405C840008044805490068496879
:101A8000044AC1F3C221515CC8407047C000002025
:101A9000001002405C84000812A185B00FC98DE8D7
:101AA0000F0014A0144A006804905168134801F014
:101AB0000C03042B10D0082B0ED1C1F38343C903B0
:101AC0001DF803000AD5516804AAC1F34041515CD6
:101AD0000A4A5043B0FBF1F005B07047084948434B
:101AE000FAE7000002030405060708090A0B0C0DBB
:101AF0000E0F1010010200000010024000127A00C8
:101B000000093D002DE9F84F04460078B94DC007A3
:101B100048D06868C0F38100012807D06868C0F326
:101B20008100022809D16868C00306D528688003AF
:101B300038D5606800286FD034E06068B0F5803F29
:101B40000BD010B1B0F5A02F11D0286820F4803050
:101B50002860286820F4802002E0286840F4803063
:101B60002860606888B1FFF761FB064609E02868D5
:101B700040F480202860F0E7FFF758FB801B6428C2
:101B800075D828688003F7D50CE0FFF74FFB0646B1
:101B900005E000BFFFF74AFB801B6428F0D82868E7
:101BA0008003F7D42078944E80074FF001094FF05E
:101BB00000083BD5686810F00C0F07D06868C0F3C8
:101BC0008100022809D16868C00306D4286880070C
:101BD00014D5206901281FD110E02069B0B1C6F8E2
:101BE0000090FFF723FB074605E000BFFFF71EFB51
:101BF000C01B0228C4D828688007F7D52868616907
:101C000020F0F80040EAC10028600FE0C6F800802C
:101C1000FFF70CFB074606E0E9E000BFFFF706FB15
:101C2000C01B022823D828688007F7D42078000733
:101C30002CD57248A169D9B1C0F80090FFF7F6FA27
:101C4000074604E0FFF7F2FAC01B02280FD8686AC3
:101C50008007F7D56A484FF4FA510068B0FBF1F0FD
:101C6000009000BF0098411E0091FAD20EE080E083
:101C7000C0F80080FFF7DAFA074604E0FFF7D6FA6B
:101C8000C01B022875D8686A8007F7D420784007FF
:101C900060D5E8690027C00008D4E86940F08050AA
:101CA000E861E869012700F080500090554801681C
:101CB000C90513D40168834641F480710160FFF7C0
:101CC000B5FA824606E000BFFFF7B0FAA0EB0A00C3
:101CD00064284ED8DBF80000C005F5D5E06801287F
:101CE0000AD008B1052813D0286A20F00100286224
:101CF000286A20F0040002E0286A40F0010028620F
:101D0000E06841F2883B98B1FFF790FA82460BE019
:101D1000286A40F004002862EEE700BFFFF786FA69
:101D2000A0EB0A0159455AD8286A8007F6D50CE07D
:101D3000FFF77CFA824605E0FFF778FAA0EB0A018C
:101D400059454CD8286A8007F6D41FB1E86920F0BD
:101D50008050E861E06988B36968C1F381010229B4
:101D600045D00228C6F8608004D0FFF75FFA044629
:101D700038E034E0FFF75AFA074604E0FFF756FA76
:101D8000C01B02282BD828688001F7D4206AB0F540
:101D9000803F05D16868A16820F40030084368607E
:101DA000D4E908010843696821F4741108436860A4
:101DB000C6F86090FFF73AFA044606E015E000BF67
:101DC000FFF734FA001B022809D828688001F7D5EC
:101DD0000BE000BFFFF72AFA001B022802D90320FC
:101DE000BDE8F88F28688001F4D40020F8E70120CE
:101DF000F6E7000000100240000042428004424228
:101E0000C00000200070004003480068C16841F035
:101E10000101C16070470000EC0700204FF0E02195
:101E20000428086903D020F004000861704740F0DE
:101E30000400FAE710B5401EB0F1807F01D3012005
:101E400010BD4FF0E02460610F21601700F0D0FE5C
:101E50000020A06107202061002010BD0348006819
:101E6000C16821F00101C16070470000EC0700204B
:101E70007047704730B590F83C20012A20D00122ED
:101E800080F83C20022380F83D3003685C6824F031
:101E900070045C6003685C680D682C435C600368D8
:101EA0009C6824F080049C6003689C6849680C432B
:101EB0009C6080F83D20002180F83C10084630BD31
:101EC000022030BD10B5040003D094F83D0010B1DD
:101ED00007E0012010BD002084F83C00204600F0FF
:101EE0000DF8022084F83D00211D206800F004FF59
:101EF000012084F83D00002010BD000008B50168F5
:101F00001148B1F1804F0BD0104A914210D1C169F4
:101F100041F00201C161C06900F00200009008BDFB
:101F2000C16941F00101C161C06900F00100F5E73C
:101F3000074A9142F3D1C16941F00401C161C0690E
:101F400000F00400EAE70000001002400004004036
:101F500000080040022180F83D1001680A6842F044
:101F600001020A60012180F83D10002070470168DD
:101F7000CA6842F00102CA600068016841F00101CC
:101F800001600020704770B5044690F83C000128BD
:101F900017D0012584F83C50022084F83D002068C9
:101FA000826822F0770222F47F428260086850281B
:101FB00037D00DDC202859D005DC88B3102841D15A
:101FC00051E0022070BD302853D040283AD13FE084
:101FD00060282ED070280BD0B0F5805F03D0B0F50C
:101FE000005F2FD110E02068816821F0070115E023
:101FF000CB68D1E90121206800F0BFFE2168886824
:1020000040F0770088601DE0CB68D1E901212068AD
:1020100000F0B3FE2068816841F48041816011E0E6
:102020001EE0CA684968206800F05CFF5021206803
:1020300006E0CA684968206800F065FF60212068F2
:1020400000F0A5FE84F83D50002084F83C0070BDEF
:10205000CA684968206800F045FF40212068EFE722
:1020600000212068ECE710212068E9E720212068A2
:10207000E6E730212068E3E7704770B50446006862
:1020800001694FF00005C943890715D4C168C943E8
:10209000890711D4E91E0161012020772068806939
:1020A0008007204602D0FFF7E7FF04E000F0BAF80F
:1020B000204600F03CF9257720680169C9434907AB
:1020C00017D4C168C943490713D46FF004010161F3
:1020D000022020772068806910F4407F204602D0DB
:1020E000FFF7CAFF04E000F09DF8204600F01FF95A
:1020F000257720680169C943090716D4C168C94317
:10210000090712D46FF008010161042020772068CC
:10211000C0698007204602D0FFF7AEFF04E000F060
:1021200081F8204600F003F9257720680169C9434A
:10213000C90617D4C168C943C90613D46FF010018A
:102140000161082020772068C06910F4407F204694
:1021500002D0FFF791FF04E000F064F8204600F0A1
:10216000E6F8257720680169C943C90708D1C16825
:10217000C943C90704D1891E0161204600F01AF93C
:1021800020680169C943090609D4C168C943090621
:1021900005D46FF0800101612046FFF769FE2068D9
:1021A0000169C943490609D4C168C943490605D430
:1021B0006FF040010161204600F006F920680169D6
:1021C000C94389060BD4C168C943890607D46FF097
:1021D000200101612046BDE87040FFF74ABE70BD96
:1021E0001FB50C4A01680220914206D1C021CDE9F9
:1021F000001003906946084809E0084A914208D156
:102200004FF4E071CDE90010039069460448FEF7F1
:1022100025FF1FBD000400400008014000080040E9
:10222000000C0140704770B5044690F83C000D4624
:1022300001280DD0012684F83C60022084F83D007E
:1022400042B1042A18D0082A2AD00C2A4DD139E0EC
:10225000022070BD206800F0A3FD2068816941F074
:10226000080181612068816921F004018161206891
:1022700081692A69114311E0206800F0B9FD2068E6
:10228000816941F4006181612068816921F4806184
:102290008161206881692A6941EA0221816124E023
:1022A000206800F0D1FD2068C16941F00801C161DA
:1022B0002068C16921F00401C1612068C1692A69EF
:1022C000114311E0206800F0EBFD2068C16941F482
:1022D0000061C1612068C16921F48061C161206829
:1022E000C1692A6941EA0221C16184F83D60002088
:1022F00084F83C0070BD10B5040003D094F83D0094
:1023000010B107E0012010BD002084F83C002046F9
:1023100000F00CF8022084F83D00211D206800F038
:10232000EBFC012084F83D00002010BD7047704791
:1023300010B504460068012200F014FD074920682A
:10234000884203D1416C41F4004141642068016836
:1023500041F001010160002010BD0000002C01408F
:1023600010B504460068002200F0FCFC104B41F25E
:10237000111120688A10984209D1036A0B4206D1D4
:10238000036A134203D1436C23F40043436420687F
:10239000036A0B4206D1016A114203D1016821F0A0
:1023A00001010160012084F83D00002010BD000003
:1023B000002C014000680349884201D1FFF79CB816
:1023C00070470000002C0140704770B5040004D035
:1023D00094F83900002510B106E0012070BD84F8A2
:1023E0003850204600F022F8242084F83900206874
:1023F000C16821F40051C160204600F097FD2068BB
:10240000016921F4904101612068416921F02A01AC
:1024100041612068C16841F40051C160E56320203A
:1024200084F8390084F83A00002070BD10B50068C7
:10243000114986B088421DD11048816941F480411C
:10244000816180690E4C00F4804004904FF400706C
:102450000090022001900320039069462046FEF779
:10246000FDFD00212015CDE90001029169462046BD
:10247000FEF7F4FD06B010BD003801400010024028
:1024800000080140FEE701684A69D24352050CD4B6
:102490006FF480624A6104210164002140F8301F1A
:1024A0002022427301730120704700207047000012
:1024B0002DE9F843044600680D46DDE908970168F8
:1024C0009846164641F4807101604B4600224FF059
:1024D00001112046009700F062F8E8B9216805F084
:1024E000FE0008613B464A461849204600F088F83D
:1024F00028B1206C04280FD10120BDE8F8832068A2
:102500004169806900903A464946204600F0BCF88F
:1025100020B1206C042813D00320EEE7F5B2B8F107
:10252000010F09D02168300A08613A464946204621
:1025300000F0AAF80028ECD1206805610020DCE753
:102540002068016841F400710160D5E702000100D4
:1025500070B516460D4604461AE02046FFF793FF75
:1025600008B1012070BD681C12D025B1FEF75EFED7
:10257000801BA8420CD954F8400F40F0200044F8CA
:10258000100900202060202161732073032070BD9A
:1025900020684069C0434007DFD4002070BD2DE9AA
:1025A000F0471E4690460D460446C1F30747DDF846
:1025B000209012E0701C10D02EB1FEF737FEA0EB79
:1025C0000900B04209D9002044F8300F202161737E
:1025D000A07320730320BDE8F0872068012F0AD084
:1025E000806925EA00000004000C06D00021414566
:1025F000E0D00020EFE74069F3E70121F7E70000B2
:102600002DE9F0479A4691460D46044600264FF0C4
:102610002008C1F307472AE020684069C04340050D
:1026200012D42068016841F40071016021686FF4E0
:102630008060486104202064266384F83D8084F82B
:102640003C600120BDE8F087B9F1FF3F0FD0B9F140
:10265000000F05D0FEF7EAFDA0EB0A01494506D9B7
:1026600044F8306F84F80D8026730320EAE7206871
:10267000012F07D0D0F8180025EA00000004000C54
:10268000E0D0C9E74069F7E770B516460D46044645
:102690001AE02046FFF7F7FE08B1012070BD681C64
:1026A00012D025B1FEF7C2FD801BA8420CD954F808
:1026B000400F40F0200044F8100900202060202145
:1026C00061732073032070BD20684069C043000619
:1026D000DFD4002070BD00003EB51A48184901251E
:1026E0000160891581600021C1600224C0E90445B0
:1026F0004FF460224160C0E90652FEF7D1FA18B1EA
:102700004E2111A000F0CBFC0420CDE90005694664
:1027100002940C48FEF742FA18B158210AA000F0C2
:10272000BEFC0920CDE9000469460648FEF736FAEA
:10273000002803D0612104A000F0B1FC3EBD0000E0
:1027400000240140580600202E2E2F5372632F6163
:1027500064632E630000000030B53D4DA5B000223B
:1027600028682190012121A803F058F8394C002253
:102770000121A0626868229022A803F04FF8E0626D
:10278000142205F130016846FDF728FD0021684656
:1027900003F02CF82061142205F1440105A8FDF78F
:1027A0001DFD002105A803F021F86061142205F148
:1027B00058010AA8FDF712FD00210AA803F016F837
:1027C000A061142205F16C010FA8FDF707FD00219F
:1027D0000FA803F00BF8E061D5E90201CDE917017C
:1027E000002117A802F0FEFE2062D5E90401CDE920
:1027F0001901002119A802F0F5FE6062D5E9060171
:10280000CDE91B0100211BA802F0ECFE2060D5E9F8
:102810000801CDE91D0100211DA802F0E3FE606062
:10282000D5E90A01CDE91F0100211FA802F0DAFE57
:1028300005F18001A060D1E90001CDE9140123A8D0
:102840001690002114A802F021FEE06025B030BDF2
:10285000C0830008840000202DE9F043354885B08E
:10286000816941F010018161816901F010010491D9
:10287000816941F020018161816901F020010491A9
:10288000816941F004018161816901F004010491D1
:10289000816941F0080181618069012200F008002E
:1028A000DFF894901703049039464846FEF7B9FCC8
:1028B000FD00224800240095CDE901046946204826
:1028C000FEF7CCFB01261F480096CDE90104DFF896
:1028D000788069464046FEF7C1FB4FF48770CDE92A
:1028E0000004694640460294FEF7B8FB0220CDE999
:1028F0000240CDE9007669464846FEF7AFFBCDE9D8
:102900000054694648460294FEF7A8FB00220521C0
:102910000620FEF7A3FE0620FEF795FE0022052105
:102920002820FEF79BFE2820FEF78DFE05B0BDE8AF
:10293000F083000000100240000C01400000311044
:102940000010014000002110000801400E4810B5A1
:102950000C4901600D49416000214FF480428160C3
:10296000C0E9031241618161C1610162FEF764FC4B
:10297000002805D0BDE810404C2105A000F08FBB19
:1029800010BD00000058004098060020801A060084
:102990002E2E2F5372632F6932632E6300000000C6
:1029A00010B5174886B04FF08041016047210024E0
:1029B000C0E901144FF6FF71C0E903148461FFF709
:1029C00081FA18B14B210FA000F069FB4FF4805041
:1029D000009069460A48FFF7D6FA18B1512109A0BC
:1029E00000F05DFB049404A905480594FFF742FA42
:1029F000002803D0582103A000F051FB06B010BD01
:102A0000EC0600202E2E2F5372632F74696D2E63F7
:102A10000000000010B529488EB02749016003214D
:102A20000024C0E90114FF21C0E903148461FFF709
:102A300049FA18B16B2122A000F031FB4FF480500D
:102A4000079007A91D48FFF79EFA18B171211CA035
:102A500000F025FB1948FFF74EFC18B1762118A0AD
:102A600000F01DFB0B940BA914480C94FFF702FA1D
:102A700018B17D2112A000F012FB6020CDE9000406
:102A80000294002269460D480494FFF7CCFB18B16C
:102A900086210BA000F003FB042269460748FFF7DC
:102AA000C2FB18B18B2106A000F0F9FA0348FFF72A
:102AB00097FB0EB010BD0000000400402C07002062
:102AC0002E2E2F5372632F74696D2E630000000049
:102AD00010B52E488EB02C49016003210024C0E9B6
:102AE0000114FF21C0E903148461FFF7EBF918B169
:102AF000A02127A000F0D3FA4FF48050079007A937
:102B00002248FFF740FA18B1A62121A000F0C7FA29
:102B10001E48FFF7F0FB18B1AB211DA000F0BFFA73
:102B20000B940BA919480C94FFF7A4F918B1B22122
:102B300017A000F0B4FA6020CDE90004029400224E
:102B4000694612480494FFF76EFB18B1BB2110A030
:102B500000F0A5FA042269460C48FFF764FB18B19F
:102B6000C0210BA000F09BFA082269460748FFF736
:102B70005AFB18B1C52106A000F091FA0348FFF7EF
:102B80002FFB0EB010BD0000000800406C070020B5
:102B90002E2E2F5372632F74696D2E630000000078
:102BA0000D4810B50B4901604FF4E131416000213F
:102BB00081600C22C160C0E904128161C161FFF72C
:102BC00004FC002805D0BDE810404C2103A000F013
:102BD00066BA10BD00380140AC0700202E2E2F53DE
:102BE00072632F75736172742E630000FEE7704785
:102BF0000907090E002806DA00F00F0000F1E020B6
:102C000080F8141D704700F1E02080F80014704730
:102C100020BF00BF704703F081FB4FF47A74204659
:102C200002F022FCFBE702F0D7BD30B593B00121E2
:102C30000804CDE900100025029502240491CDE995
:102C400007404FF4E01009906846FEF75BFF00B1C3
:102C5000FEE70AA90F2081E831004FF48060CDE93A
:102C60000D0502210AA8FEF727FE00B1FEE74FF48A
:102C7000004011900F940FA8FEF7A8FD00B1FEE7E9
:102C8000FEF7E4FE4FF47A71B0FBF1F0FFF7D2F8F3
:102C90000420FFF7C3F800220F21501EFEF7DEFCD0
:102CA00013B030BD0D48016841F001010160416879
:102CB0000B4A1140416001680A4A114001600168F5
:102CC00021F480210160416821F4FE0141604FF44C
:102CD0001F0181600449C003086070470010024072
:102CE0000000FFF8FFFFF6FE08ED00E00148FFF7E7
:102CF000C4B90000EC070020F0B50268164B174C71
:102D0000174D4FF08047984205D0B84203D0A042FB
:102D100001D0A84203D122F070064A68324398429B
:102D200005D0B84203D0A04201D0A84203D122F47A
:102D30004074CA68224322F080044A692243026038
:102D40008A68C2620A688262984201D10969016395
:102D500001214161F0BD0000002C01400004004051
:102D60000008004010B50123046A8B409C430462B4
:102D7000036A8A401343036210BD10B5846842EAB7
:102D8000032224F47F440A432243826010BD8268F8
:102D900022F070020A4342F0070181607047000090
:102DA00030B5026A22F001020262026A4368846955
:102DB00024F073050C682C4322F002058A682A432C
:102DC0000A4DA8420BD122F00805CA6823F44073CB
:102DD0002A434D6922F004021D438B692B43436053
:102DE000846149684163026230BD0000002C0140EB
:102DF00030B5026A22F010020262026A43688469F6
:102E00000D6824F4E64444EA05248D6822F020028B
:102E100042EA05120B4DA8420ED1CD6822F0800285
:102E200042EA05124D6923F4406343EA85038D6944
:102E300022F0400243EA850343608461496881636C
:102E4000026230BD002C014030B5026A22F480726B
:102E50000262036A4268C46923F4007324F07305B4
:102E60000C682C438D6843EA05230C4DA8420ED113
:102E7000CD6823F4006343EA05234D6922F44052F0
:102E800042EA05128D6923F4806342EA051242602A
:102E9000C4614968C163036230BD0000002C014079
:102EA00030B5026A22F480520262046A4268C36941
:102EB0000D6823F4E64343EA05238D6824F40054A7
:102EC00044EA0534064DA84204D14D6922F48042FB
:102ED00042EA85124260C36149680164046230BD00
:102EE000002C014010B5036A046A24F00104046256
:102EF000846924F0F00444EA021423F00A020A432D
:102F00008461026210BD10B5036A23F010030362EE
:102F10008369046A23F4704343EA023224F0A00375
:102F200043EA01118261016210BD00002DE9F04108
:102F3000044600680169E26821F4405111430161CF
:102F40002169A0680843616908432168CA6841F2A1
:102F50000C639A430243CA6020684169A26921F464
:102F60004071114341614C492068642532268842F2
:102F70003CD1FEF781FD00EBC00101EB0010616860
:102F80008900B0FBF1F7FEF777FD00EBC00101EB24
:102F900000106168B0468900B0FBF1F0B0FBF5F0BD
:102FA0006FF01801484307EB800106EB0110B0FBFE
:102FB000F5F000F0F006FEF75FFD00EBC00101EB5D
:102FC000001061688900B0FBF1F0B0FBF5F006EB92
:102FD0000016FEF751FD00EBC00101EB0010616827
:102FE0008900B0FBF1F7FEF747FD3BE0FEF734FD4B
:102FF00000EBC00101EB001061688900B0FBF1F744
:10300000FEF72AFD00EBC00101EB00106168B0463D
:103010008900B0FBF1F0B0FBF5F06FF01801484308
:1030200007EB800106EB0110B0FBF5F000F0F006B5
:10303000FEF712FD00EBC00101EB00106168890092
:10304000B0FBF1F0B0FBF5F006EB0016FEF704FD67
:1030500000EBC00101EB001061688900B0FBF1F7E3
:10306000FEF7FAFC00EBC00101EB0010616889007B
:10307000B0FBF1F0B0FBF5F06FF01801484307EB3F
:10308000800108EB0110B0FBF5F0216800F00F00A3
:1030900030448860BDE8F08100380140FEE7FEE77B
:1030A0000FB4054B10B503A9044A029800F0ECF8E0
:1030B00010BC5DF814FB00004147000838010020F7
:1030C00037B514460846064B6A46214600F0DCF840
:1030D00004466946002000F06EFC20463EBD00001C
:1030E000B739000802E008C8121F08C1002AFAD147
:1030F00070477047002001E001C1121F002AFBD178
:10310000704700002DE9FF5F82B00021DDE9043047
:10311000020DDDF840B0034318D044F61050A2F27F
:10312000FF3242431514119801281FD0A5EB0B0064
:10313000401C5FEA000A4FF000064E4FDFF838915E
:10314000B046504615D5CAF1000413E01198012489
:103150004AA3012801D16FEA0B010298119AC0E934
:103160000031C0E9024206B0BDE8F09FCBF100009B
:10317000DFE704460021404A491842EB0450CDE9FC
:10318000001012E0E00707D032463B464046494671
:10319000FDF7FEF88046894632463B461046194602
:1031A000FDF7F6F806460F466410002CEAD1DDE97B
:1031B0000401DDE90023BAF1000F06DAFDF7E8F8B3
:1031C00042464B46FDF7E4F805E0FDF782FB424638
:1031D0004B46FDF77EFB04460E460022284BFDF7CA
:1031E000FFFB03D84FF0FF30014607E00022254BDC
:1031F00020463146FDF7C6FAFDF7DAFB102409E058
:10320000002C0ADB0A220023FDF7F7F9039B30327A
:103210001A55641E50EA0102F2D1641C039AC4F1EB
:1032200011031444119A012A03D0012208430DD13D
:103230000AE0084304D000204FF0110B119072E710
:10324000A3EB0B056D1E0DE05B4504DD4FF00002A6
:1032500005F1010504E003DA4FF00002A5F10105D4
:10326000002AECD002981199C0E90231C0E900456A
:1032700079E70000000014400000F03F300000003B
:103280000000F0430000E03F2DE9FF4F95B09B4662
:103290008946064600250FE2252877D100242746D7
:1032A000F84A0121059400E0044316F8013F203B51
:1032B00001FA03F01042F7D130782A2811D06FF0CC
:1032C0002F033078A0F13002092A16D8059A44F06D
:1032D000020402EB820203EB42021044761C0590CA
:1032E000EFE759F8042B0592002A03DA504244F420
:1032F0000054059044F00204761C30782E2816D134
:1033000016F8010F44F004042A280DD06FF02F02A4
:103310003078A0F13003092B09D807EB870302EBC3
:103320004303C718761CF3E759F8047B761C307802
:103330006C280FD006DC4C2817D068280DD06A28DE
:1033400014D104E0742810D07A280FD10DE044F491
:1033500000140AE044F4801401E044F4401472784C
:10336000824202D104F58014761C761C30786628DF
:103370000BD013DC582877D009DC002875D04528FD
:10338000F6D04628F4D047281AD19DE118E06328EA
:1033900035D0642879D0652812D195E1702873D092
:1033A00008DC6728F1D069286FD06E280DD06F280F
:1033B00006D1B5E073282CD0752875D0782874D044
:1033C0005A46179990476D1C75E1C4F302500228C4
:1033D00009D003280DD0D9F8001004280DD00D60B5
:1033E00009F1040967E1D9F80010EA17C1E90052B0
:1033F000F6E7D9F800100D80F2E70D70F0E719F844
:10340000041B8DF8001000208DF80100EA46012011
:1034100003E059F804AB4FF0FF3061074FF00001B3
:1034200002D40DE008F101018846B9420FDA804567
:10343000F8DB1AF808100029F4D108E008F10101BE
:1034400088468142FADB1AF808100029F6D105985F
:103450005B46A0EB080721463846179A00F094FA1D
:10346000284400EB080507E04DE029E10DE01AF8DB
:10347000010B5A4617999047B8F10108F7D25B46FD
:1034800021463846179A13E142E00A220092C4F31B
:1034900002524FF0000A022A08D059F804CB032A3E
:1034A0004FEAEC710AD00DE029E02AE009F10701AA
:1034B00021F00702F2E802C1914609E00FFA8CFC04
:1034C0004FEAEC71042A03D14FFA8CFC4FEAEC71FD
:1034D000002907DA0A460021DCF1000C61EB020149
:1034E0002D2202E0220504D52B228DF80420012292
:1034F00003E0E20701D02022F7E7904659E00A21D5
:1035000002E010220DE010214FF0000A00910BE0C4
:1035100010224FF0000A44F004040827009203E050
:1035200008224FF0000A0092C4F30252022A05D08A
:1035300059F804CB0021032A08D009E009F107015A
:1035400021F00702F2E802C1914605E01FFA8CFC67
:10355000042A01D10CF0FF0C4FF00008220728D5F7
:10356000702806D0009B83F0100353EA0A0305D0AD
:103570000EE040228DF80420012208E05CEA0102FE
:1035800006D030228DF804208DF8050002229046E6
:10359000009B83F0080353EA0A030AD15CEA0102A4
:1035A00001D1620705D530228DF804204FF00108C3
:1035B0007F1E582804D034A003900EA802900DE07E
:1035C00036A0F9E753466046009AFDF716F88446A0
:1035D0000398825C0298401E029002705CEA01002F
:1035E000F0D1029806A9081A00F1200A600702D556
:1035F00024F4803400E00127574502DDA7EB0A00E0
:1036000000E0002000EB0A01009005984144401AB8
:103610000590E00306D45B462146179A059800F012
:10362000B3F90544002706E001A85A46C05D179982
:1036300090476D1C7F1C4745F6DBE0030CD55B46CD
:103640002146179A059800F09FF9054404E03020C0
:103650005A46179990476D1C0099481E0090002902
:10366000F5DC08E0029802995A460078491C02915C
:10367000179990476D1CBAF10001AAF1010AF1DC1B
:1036800065E1000009280100303132333435363726
:10369000383961626364656600000000303132339E
:1036A000343536373839414243444546000000003E
:1036B00000F058F90544761C307800287FF4ECAD12
:1036C00019B02846BDE8F08F620700D4062709F13B
:1036D000070222F0070CFCE80223E14603F0004851
:1036E0005FEA080C02D00FF2702C0DE05FEA045C78
:1036F00002D50FF2682C07E05FEAC47C02D00FF21B
:10370000602C01E0AFF2700C4FF0FF3823F0004363
:10371000CDF850C065280CD006DC452809D04628D5
:103720001DD047283DD13DE0662818D067287ED1BE
:1037300038E00021112F01DB112000E0781CCDE9D9
:10374000000106A90EA8FFF7DDFCDDE90F010E9AC6
:1037500003910021009207F1010A04914DE04FF01E
:1037600000400097CDE9011006A90EA8FFF7CAFC9A
:10377000DDE90F0203920E9B11990022DDF80CA0E7
:103780000093049211B9791C00EB010AB7EB0A000F
:1037900004D4C0F1FF3007F1010A0490AAEB07003E
:1037A000019044E0012F00DA01270021112F01DDF3
:1037B000112000E03846CDE9000106A90EA8FFF768
:1037C000A1FCDDE90F010E9A039100210491009202
:1037D000BA4621070CD40399514500DA8A46BAF15A
:1037E000010F05DD009AAAF10101515C302908D0D2
:1037F000B84202DA10F1040F06DA0121CDE9011016
:1038000015E0AAF10101E9E7002805DC049901446B
:103810000491AAEB000102E0411C514500DD8A46FB
:103820000499401A401C01904FF00040029020077C
:1038300004D40198504501DBCDF8048000208DF8B8
:103840004F0002980DF14F07B0F1004F25D02B200B
:103850000E9002984FF0020800280CDA40420290C5
:103860002D200E9007E00A210298FCF7B0FE3031BF
:10387000029007F8011DB8F10001A8F10108F2DC7F
:1038800002980028EFD1791E0E980870307800F069
:10389000200040F0450007F8020D12A8C01B00F1FF
:1038A00007081498007800B1012000EB0A01019884
:1038B00001EBE07105984144401A401E0590E00379
:1038C00006D45B462146179A059800F05DF805443A
:1038D0001498007818B15A46179990476D1CE00368
:1038E00024D55B462146179A059800F04DF805440B
:1038F0001CE00498002807DBDDE90301884203DDB2
:103900000098405C179901E0179930205A4690477B
:10391000049805F10105401C04900198401E019097
:1039200004D12E205A46179990476D1CBAF1000118
:10393000AAF1010ADDDC05E017F8010B5A461799D8
:1039400090476D1CB8F10001A8F10108F4DC5B465A
:103950002146179A0598ABE62D0000002B000000C9
:10396000200000002DE9F041044600251E461746C0
:10397000880404D405E039462020B0476D1C641E3D
:10398000F9D52846BDE8F0812DE9F041044600252F
:103990001E469046C80301D5302700E02027880442
:1039A00004D505E041463846B0476D1C641EF9D584
:1039B0002846BDE8F0810A68531C0B601070704700
:1039C0002DE9F843054600246E464FF6FF771D4863
:1039D000FDF7B4FA39461B48FDF718FA1948FDF708
:1039E0005BF926F81400641CE4B2022CEFD31548EE
:1039F000FDF704FBBDF80000C0F30B00FCF75FFD12
:103A0000114F4FF0663632463B46FCF7C1FC6FF073
:103A10000B084246FCF72EFDFCF7BDFD0446BDF841
:103A20000200C0F30B00FCF74AFD32463B46FCF7B0
:103A3000AFFC4246FCF71EFDFCF7ADFDC5E90004F6
:103A4000BDE8F8835806002066660A402DE9F0417B
:103A50000646FCF78DFD0122FCF70CFD0022294BE8
:103A6000FCF796FCFCF76BFD274D044630466F785B
:103A7000FCF77EFD0122FCF7FDFC0022214BFCF748
:103A800087FCFCF75CFDFCF715FD29468E6887B1C5
:103A90002978491CCFB22F703146FCF7B1FBA860E2
:103AA0000A2F14D1002169701849FCF733FCA86073
:103AB0000DE01749FCF7FCFB044616493046FCF7BD
:103AC000F7FB2146FCF79CFBFCF706FD0446B4F52A
:103AD000C37F02D30520BDE8F081A4F5BE700A289B
:103AE00001D20420F7E7A4F5B470142801D2032012
:103AF000F1E7A4F5AA74142C01D20220EBE7002010
:103B0000E9E70000000059406C000020000020415F
:103B1000CDCCCC3D6666663F0A7882724A78012A2F
:103B200002D08978C17270470521FBE74FF47A749F
:103B300000F004F8204601F097FCF9E72DE9FC417C
:103B40006846FFF73DFF274E4FF480752946304603
:103B5000FDF762FBEF01DFF89080012804D13946C0
:103B60004046FDF759FB60B10020204C20700098C2
:103B7000FFF76CFFA07029463046FDF74DFB10B1F2
:103B800007E00120F1E739464046FDF745FB0128F3
:103B900025D0002115486170C01E42788A4207D1A5
:103BA000027823789A4203D18278A3789A4214D07B
:103BB00022780270A27882700D4D41704FF0FF3173
:103BC000286801F05DFC014620780870A0788870B4
:103BD00060784870286801F0D7FCBDE8FC810121BD
:103BE000D8E7000000080140000C014071000020EF
:103BF000900000200FB4F0B587B00DAA68460C996C
:103C0000FFF75EFA6D460C4E0EE02038C0B200247D
:103C100000EB400006EB40076D1C385D02F03AFBFC
:103C2000641CE4B2062CF8D328780028EDD107B044
:103C3000F0BC5DF814FB00006C7200080FB400B516
:103C400087B009AA68460899FFF73AFA6946012041
:103C500000F0CCFA07B05DF814FB0FB400B587B0E4
:103C600009AA68460899FFF72BFA6946002000F078
:103C7000BDFA07B05DF814FB10B5002002F066FA3B
:103C8000BDE8104002F0EABA032101700021417042
:103C900041800171417140F6B832C2800172012148
:103CA0004172704710B504460821002000F01EFA4A
:103CB0007CB1012C18D0022C1BD10EA0FFF7CDFF38
:103CC0005FF0000000F05CF8BDE81040012000F05B
:103CD00023B80BA0FFF7C1FF002000F01DF8BDE8DE
:103CE0001040012000F04CB808A0FFF7B6FF0120FB
:103CF000E8E710BD53434E204D4F444500000000FF
:103D0000524742204D4F44450000000043265720B3
:103D10004D4F44450000000070B500240546214683
:103D2000204600F0E3F99DB1144E002505EBC400D8
:103D3000305C02F0AFFA6D1CEDB2082DF6D3002115
:103D4000012000F0D3F9641CE4B2022CEDD370BD65
:103D50000A4E10365FF0000505EBC400305C02F03F
:103D600099FA6D1CEDB2082DF6D30021012000F068
:103D7000BDF9641CE4B2022CECD370BD9083000842
:103D800070B5054600244821204600F0AFF99DB1EA
:103D9000144E002505EBC400305C02F07BFA6D1C6C
:103DA000EDB2082DF6D34821012000F09FF9641CE4
:103DB000E4B2022CEDD370BD0A4E103E5FF0000558
:103DC00005EBC400305C02F065FA6D1CEDB2082D05
:103DD000F6D34821012000F089F9641CE4B2022CDA
:103DE000ECD370BDB083000810B50446032813D887
:103DF0000021022000F07AF92BA0FFF72EFF00210E
:103E0000042000F073F92BA0FFF727FF0021062004
:103E100000F06CF92AA015E0201F022814D8002118
:103E2000022000F063F929A0FFF717FF002104200A
:103E300000F05CF928A0FFF710FF0021062000F039
:103E400055F928A0FFF709FF072C2CD2DFE804F072
:103E50002B040A10161C22000021022000F046F953
:103E600011A01CE00021042000F040F911A016E090
:103E70000021062000F03AF911A010E000210220F4
:103E800000F034F911A00AE00021042000F02EF91E
:103E900011A004E00021062000F028F911A0BDE8DF
:103EA0001040FFF7CBBE10BD4E4F4E4520202020C6
:103EB00020202000504F4C49434520202020200046
:103EC000414D42554C49454E434520004C494748D9
:103ED000544E494E4720200046495245202020207C
:103EE00020202000434F4C4F52434841534520006F
:103EF0002DE9FC5F044605200027CDE900704FF056
:103F0000020B4FF02009032C08D204EB8400C006FA
:103F1000060E04EB840109EBC10005E0A001C038E6
:103F2000C6B2702000EB841000F0FF0831465846FE
:103F300000F0DCF8DFF8B0A1002500BF1AF805009A
:103F400002F0A8F96D1CEDB2082DF7D331460198A7
:103F500000F0CCF8644E00250836705D02F09AF946
:103F60006D1CEDB2082DF8D34146584600F0BEF85E
:103F70005D4E00251036705D02F08CF96D1CEDB2BF
:103F8000082DF8D34146019800F0B0F8564E0025B0
:103F90001836705D02F07EF96D1CEDB2082DF8D375
:103FA000514E022101202036F4B3012C51D0022CB5
:103FB00054D0032C57D0042C58D0032C59D20025B0
:103FC0004FEA0D0A1AF8050000EB8001C9060F0E32
:103FD00000EB800109EBC10000F0FF0839465846AC
:103FE00000F084F80024305D02F054F9641CE4B25F
:103FF000082CF8D33946019800F078F80024305D99
:1040000002F048F9641CE4B2082CF8D34146584643
:1040100000F06CF80024305D02F03CF9641CE4B25E
:10402000082CF8D3414600E010E0019800F05EF85B
:104030000024305D02F02EF9641CE4B2082CF8D3A1
:104040006D1CEDB2022DBDD3BDE8FC9F8DF80000C4
:1040500001E08DF800708DF80110B0E78DF8007068
:104060008DF80100ABE78DF8000039E08DF80070A5
:1040700003E09DF80000012832D0002530272946B2
:10408000584600F033F80024305D02F003F9641C58
:10409000E4B2082CF8D32946019800F027F8002450
:1040A000305D02F0F7F8641CE4B2082CF8D339460E
:1040B000584600F01BF80024305D02F0EBF8641C59
:1040C000E4B2082CF8D33946019800F00FF8002428
:1040D000305D02F0DFF8641CE4B2082CF8D3B3E7DB
:1040E00040257027CBE700004472000870B50546F4
:1040F000B0300C46C0B202F0DFF8102040EA1410D5
:1041000002F0DAF804F00F0040F0010002F0D4F8F9
:1041100001480570447070BD300000202DE9F04169
:1041200000242038144EC7B204EB0710305C02F0B4
:10413000B1F8641CE4B2082CF6D3104C2078401C73
:10414000C0B220706178FFF7D1FF002505EB0710A2
:104150003044007A02F09EF86D1CEDB2082DF5D3C4
:1041600060780830C1B261702078401EC0B2207003
:10417000BDE8F041FFF7BABFA07D00083000002085
:104180002DE9F04100242038164EC7B204EB071089
:10419000305CC043C0B202F07DF8641CE4B2082C6D
:1041A000F4D3114C2078401CC0B220706178FFF726
:1041B0009DFF002505EB07103044007AC043C0B2D4
:1041C00002F068F86D1CEDB2082DF3D3607808306A
:1041D000C1B261702078401EC0B22070BDE8F041CD
:1041E000FFF784BFA07D00083000002010B50C460A
:1041F00018B109E0641CFFF791FF20780028F9D17D
:1042000010BD641CFFF7BCFF20780028F9D110BD59
:104210002DE9F047BD4E0446BD4DB07818B10020E1
:10422000B07003202870207830B101286AD00228AD
:104230007ED003287DD1C8E02878002833D0FFF74E
:104240001BFD0020FFF72EFD08210320FFF74EFF86
:104250006188B0A0FFF701FD30210320FFF746FF82
:104260002179ACA0FFF7F9FC58210320FFF73EFFAE
:104270006179A8A0FFF7F1FC00210620FFF736FFC7
:10428000A5A0FFF7B7FC28210620FFF72FFFA4A069
:10429000FFF7B0FC50210620FFF728FFA2A0FFF790
:1042A000A9FC607823E068886188884205D00821ED
:1042B0000320FFF71BFF618812E0287921798842EB
:1042C00005D030210320FFF711FF217908E068793C
:1042D0006179884207D058210320FFF707FF6179F1
:1042E0008CA0FFF7BAFC69786078814201D0FFF7B3
:1042F000FFFD207B01286FD162792179608800F071
:10430000DDFE69E02878012827D0FFF7B5FC012001
:10431000FFF7C8FC08210320FFF7E8FEE18884A02E
:10432000FFF79BFC48210320FFF7E0FE217A01E024
:1043300039E054E080A0FFF790FC00210620FFF751
:10434000D5FE7FA0FFF756FC48210620FFF7CEFEE2
:104350007DA0FFF74FFC60781BE0E888E188884289
:1043600007D008210320FFF7C1FEE18870A0FFF706
:1043700074FC287A217A884207D048210320FFF76D
:10438000B5FE217A6CA0FFF768FC697860788142FD
:1043900001D0FFF7ADFD207B01281DD1217AE088F7
:1043A00000F0E0FD18E02878022807D0FFF764FC51
:1043B0000220FFF777FC607AFFF716FD697A607AD2
:1043C000814209D0FFF710FD06E02878032835D098
:1043D000FFF752FC01F090FF207803282ED0A07A3E
:1043E0004FF000070128E07A4FF060018046384620
:1043F0004FD0FFF77BFE5649B14601EB88180026E7
:1044000006EB471118F8010001F044FF761CF6B2E4
:10441000202EF5D399F80010491CC8B299F8011064
:10442000FFF764FE7F1CFFB2022FE8D321784948D2
:1044300002294FD0297802294FD053E000F00CFE1A
:10444000A07A012802D0FFF717FCEFE794F80B8061
:10445000002718210320FFF749FE3F49B14601EB31
:104460000828002606EB871118F8010001F012FF5A
:10447000761CF6B2402EF5D399F80010491CC8B24C
:1044800099F80110FFF732FE7F1CFFB2042FE8D32A
:10449000CCE7FFF72BFE3149B14601EB8818002627
:1044A00006EB471118F8010001F0F4FE761CF6B295
:1044B000202EF5D399F80010491CC8B299F80110C4
:1044C000FFF714FE7F1CFFB2022FE8D324A0FEF7F3
:1044D000E7FDABE7617A002201E0002201210068DC
:1044E00001F0D0F8207828706088688020792871E1
:1044F00060796871E088E880207A28726078687056
:10450000607A6872E07AE872BDE8F08730000020D7
:104510004A01002025336400202048756500000012
:104520002020536174000000202056616C000000C0
:104530002534644B0000000025346425250000006C
:10454000202054656D700000427269676874000035
:10455000A07400088C000020A077000820760008D6
:1045600053637265656E3A204F4E2C204261742071
:104570006368617267696E670D0A00000EB5334C9F
:1045800000252E461421A06A01F05AF900F050FBD4
:1045900001F0ECFD2E48FFF777FB2D48FFF738FEC2
:1045A0004FF00A0800226846616A01F01FF8DDE951
:1045B0000001102806D1264800F0C6FB0546244815
:1045C000FFF726FE00226846E16800F093FFDDE970
:1045D000000720280AD139461D48FFF79DFA1C48DC
:1045E000FFF716FE3946E06800F07EFF00226846BD
:1045F000616800F0FBFFDDE9000710280AD13946A9
:1046000014A0FEF74DFDF8B2114900F0C4F91048AE
:10461000FFF7FEFDB6FBF8F108FB1160761C80B9D0
:104620007DB1012D02D0022D03D007E04FF480713F
:1046300001E04FF48051064800F086FB0448FFF784
:10464000E7FD012000F010FFACE70000840000202F
:1046500088060020697220636D643A202523780D56
:104660000A0000002DE9F041C1F30A52A2F2FF3620
:104670002F4A304B0D460446142E2FDA002E12DA44
:10468000FCF780F800221346FCF7AAF94CD2002D63
:10469000A4BF0024254647DA25F00040204318BF78
:1046A000254D41D018E0DFF894C02CFA06F705EA52
:1046B000070C5CEA040C08BFBDE8F081FCF762F867
:1046C00000221346FCF78CF92ED2002D03DA4FF4AA
:1046D0008010F0400544BD43002425E0332EC8BFC0
:1046E000BDE8F081A6F1140C4FF0FF3727FA0CF764
:1046F0003C4208BFBDE8F081FCF7E8F80022134611
:10470000FCF76EF910D2002D0DDA142E08BF6D1CC7
:1047100009D0C6F13400012101FA00F02044A04282
:1047200038BF6D1C0446BC4329462046BDE8F081D5
:104730009C7500883CE4377E0000F0BFFFFF0F004F
:1047400003490A685206FCD50149091D08607047F3
:10475000003801402DE9FC5F06468A460088FBF7D9
:10476000A9FE4449FBF7D6FD0746B078FBF7A2FE49
:10477000DFF804914946FBF7CDFD0090F078FBF798
:1047800099FE4946FBF7C6FD06463C493846FBF70D
:104790008FFD0746FBF7ECFEFFF764FFFBF7B0FE6B
:1047A0000190FBF77EFE01463846FBF77BFD834612
:1047B0004FF07E500099FBF775FD3146FBF778FD11
:1047C000074658460099FBF773FD4FF07E51FBF703
:1047D0006CFD3146FBF76CFD814659464FF07E502B
:1047E000FBF760FD0099FBF763FD4FF07E51FBF78F
:1047F0005CFD3146FBF75CFD0199062291FBF2F36B
:1048000002FB1311062919D2DFE801F003060A0E94
:104810001115B046054601E0C84635463C460DE058
:10482000B8463546044609E0B8464D4601E08046A4
:104830003D46344602E0B0463D464C46104E4046AA
:104840003146FBF735FDFBF747FE8AF8000031469D
:104850002846FBF72DFDFBF73FFE8AF801003146A5
:104860002046FBF725FDFBF737FE8AF80200BDE87E
:10487000FC9F00000000B4430000C8420000C0409C
:1048800000007F43EFF30580002800D0012070472F
:1048900070B500224FF4B4735FF0010550F8224068
:1048A000A4F5E6749C4212D800EB82046468A4F577
:1048B000AA769E4201D80C7808E0A4F287549C4264
:1048C00005D80C78560805FA06F634430C70921C8D
:1048D000D2B2102AE2D3002200EB8204266CA6F5A5
:1048E000E6769E4210D8646CA4F5AA769E4201D862
:1048F0004C7808E0A4F287549C4205D84C785608BE
:1049000005FA06F634434C70921CD2B2102AE3D357
:1049100070BD000070B500224FF4B4735FF0010564
:1049200050F82240A4F5E6749C4212D800EB8204B1
:104930006468A4F5AA769E4201D88C7808E0A4F2B7
:1049400087549C4205D88C78560805FA06F63443FD
:104950008C70921CD2B2102AE2D3002200EB8204A7
:10496000266CA6F5E6769E4210D8646CA4F5AA766D
:104970009E4201D8CC7808E0A4F287549C4205D826
:10498000CC78560805FA06F63443CC70921CD2B2A5
:10499000102AE3D370BD30B4012303256424002220
:1049A000402855D012DC4FF002034FF004051528C3
:1049B0007DD01FDC07281DD1087880B3012819D1CC
:1049C0004D70087A052870D9401F79E047281BD020
:1049D00010DCA0F1420005280CD2DFE800F00B51FA
:1049E00021030D000A704A704888052801D9401F2C
:1049F00013E04A8030BC7047087810B10A704A70E2
:104A0000F8E70B704D70F5E70A704888B0F5B17F94
:104A100001D8401D01E04FF4B4704880EAE73AE065
:104A2000087848B10128E5D14D70C88840F6EA32CF
:104A3000904209D9323809E04B700879052801D92C
:104A4000401F16E00A71D5E740F6B830C880D1E7BC
:104A5000087848B10128CDD14D70C88841F626327A
:104A600090420AD23230F1E74B7008795F2802D2C7
:104A7000401D0871BEE70C71BCE741F65830E5E710
:104A8000087B012803D00028B4D10B73B2E70A7366
:104A900030BC00F0E1BA4B704879052803D9401FBB
:104AA00015E004E001E04A71A4E70A72A2E7087881
:104AB00040B101289ED14D70087A5F280BD2401D6D
:104AC000087297E74B7048795F2802D2401D487101
:104AD00090E74C718EE70C728CE7002101704170F9
:104AE0008170C170704700002DE9F0474B480068A5
:104AF000466A002545624948FDF72CFA484864217A
:104B0000006800F09DFE474C042701216068464A7A
:104B1000401C60602378DFF8149104F10808052B2D
:104B200023D2DFE803F003293C63740001281CD082
:104B3000022811D0032818D141F24820864202D21F
:104B4000B6F5875F15D8277065606570BDE8F047DA
:104B500034480830FFF7C1BF42F2DC30864203D24E
:104B600042F27420864202D82770BDE8F087257093
:104B7000FBE721706560F8E7411E1F29F5D86178D1
:104B800042F82160491C61702028EED12549264851
:104B90000831FFF77DFE65700220656024E0411E4C
:104BA0001F29E2D8617842F82160491C61702028F1
:104BB000DBD11C491C480831FFF7ACFE98F8001007
:104BC00098F8012040465140FF29CDD1817898F8CE
:104BD00003004840FF28C7D10022D9F8000000F0A8
:104BE00051FD6570032065602070BEE7A6F5E846BC
:104BF000BA3EB6F5B37FB8D898F802100029B4D001
:104C0000D9F80000BDE8F047002200F03BBD0548A0
:104C10000830FFF762FF65606570A8E7EC060020CA
:104C2000B0000020780000205805002088000020F7
:104C30002820FCF7FDBC2820FCF705BDAFF3008061
:104C4000064810B50021416001700830FFF745FFAC
:104C500003480068BDE8104000F020BE7800002046
:104C6000B0000020F0B5184B0246012500208D4011
:104C7000A3F10804154234F8112006464FF6FF77D9
:104C800010D0BA4202D2521C24F8112092B2052A46
:104C900002D0322A02D002E0012000E0032023F8F3
:104CA0001160F0BD33F81150BD4202D26D1C23F8E3
:104CB0001150531F2D2B01D2022002E0322A00D3C3
:104CC000042024F81160F0BD180000202DE9F04701
:104CD0001B4D00200646044605F1080705F1200893
:104CE0004FF00109C5F8040037F8141058F82400F3
:104CF000FCF792FA012803D009FA04F0304386B297
:104D0000641CE4B2042CEFD3002421463046FFF7A4
:104D1000A9FF20B1A1008840696808436860641C4D
:104D2000E4B2042CF1D36968002906D005480022BA
:104D30000068BDE8F04700F0A5BCBDE8F0870000C2
:104D400000000020A80000202DE9F05F4FF0000ACD
:104D5000DFF804B2814E0F4604465546D0464FF068
:104D60000109A80027FA00F0217800F00F000329BC
:104D700008D02A0008D0012A38D0022A3ED0032DBC
:104D80003BD18AE0002D6FD1022802D0032807D042
:104D9000C3E0032968D06078002848D0401E2BE08B
:104DA000032903D0FFF744FF0320C3E09BF8000072
:104DB000A8B184F8008084F80180A4F8028084F807
:104DC000048084F8058040F6B830E08084F80880DC
:104DD00084F80990FFF72FFF8BF800809DE0FFF724
:104DE0002AFF307820707078607096E0022804D135
:104DF0006078052801D2401C607091E0012802D043
:104E0000032843D044E084F80C9061784846062992
:104E100071D2DFE801F0030D161F2A336088401CB1
:104E200081B24FF4B470618081427CD960807AE0B5
:104E30002079401CC0B22071642874D9642020718C
:104E400071E06079401CC0B2607164286BD9642045
:104E5000607168E0E088323081B241F65830E1801C
:104E6000814276D9E08074E05FE0207A401CC0B2D5
:104E7000207264286DD9642020726AE0617A491C2E
:104E8000C9B26172072954D1607252E0012002E078
:104E9000042840D044E0824642E0012803D00328A1
:104EA000F6D10220F7E784F80C906078062834D217
:104EB000DFE800F0030A111822296088411E618092
:104EC00031D2A4F802802EE02079411E21712AD22D
:104ED00084F8048027E06079411E617123D284F850
:104EE000058020E0E088323881B240F6B830E180B9
:104EF0008142B7D92DE010E0207A411E217228D2DC
:104F000084F8088025E0607A401E10F0FF0060728F
:104F10000FD10620B8E70020BDE7207803280AD08B
:104F20006078032802D284F8008004E011D00428BD
:104F30000FD0022020706D1CEDB2042DFFF411AFD4
:104F40002078032802D03070607870705046BDE839
:104F5000F09F84F80090EEE7000000203C01002064
:104F6000FFF7B4BE2DE9F0410D4604460021264866
:104F7000FDF7F6F904212448FDF7F2F9082122484B
:104F8000FDF7EEF9A4F6B830B0F57A6F3AD8FBF732
:104F900088FA1E4910F0FF4F03D0FBF7BBF9044617
:104FA00000E0002421464FF07E50FBF77BF90646D7
:104FB0002846FBF77FFA1649FBF7ACF90546014690
:104FC0002046FBF775F9134F3946FBF771F9FBF7EC
:104FD00083FA114C2946E0703046FBF769F93946EF
:104FE000FBF766F9FBF778FA2071204600F050F8DD
:104FF00000210A48FDF79CF9BDE8F041042107486B
:10500000FDF796B9BDE8F0816C07002000007A45F5
:105010000000C84200007F435D0000202C070020F4
:1050200010B500210A48FDF783F904210848FDF76F
:105030007FF900210748FDF77BF904210548FDF7BA
:1050400077F9BDE8104008210248FDF771B900006A
:105050002C0700206C07002010B500210A48FDF73E
:105060007FF904210848FDF77BF900210748FDF787
:1050700077F904210548FDF773F9BDE810400821D0
:105080000248FDF76DB900002C0700206C070020D6
:10509000084902790B685A630968C2788A6306492D
:1050A00082780B685A630B6842789A6309680078C3
:1050B000C86370472C0700206C070020114B10B507
:1050C00018809970DA7000210F48FDF749F9042122
:1050D0000D48FDF745F90B490A481831FFF73AFB2F
:1050E00008481830FFF7D4FF00210848FDF720F9E1
:1050F00004210648FDF71CF9BDE8104008210348CB
:10510000FDF716B9400000202C0700206C07002096
:1051100010B5072823D2DFE800F02222040A101677
:105120001C00FFF77DFFBDE8104000F03FB9FFF71E
:1051300077FFBDE8104000F017B8FFF771FFBDE83A
:10514000104000F0EDB8FFF76BFFBDE8104000F035
:1051500073B8FFF765FFBDE8104000F04DB8BDE83B
:105160001040FFF779BF00001CB5002321480093D1
:105170008DF804300246C1881278FF2903D861B146
:10518000521C027022E0A1F58074FF2C07D8521E39
:105190000270A1F58072FF3A18D1037016E0154A2B
:1051A000A1F50074FF2C527805D8B1F5007F0CD022
:1051B000521C42700AE0A1F54074FF2C06D8521E22
:1051C0004270A1F54072FF3A00D14370491C89B288
:1051D000C180B1F5806F00D3C38001788DF80010D5
:1051E00040788DF802006846FFF752FF012000F07A
:1051F0003BF91CBD340000200E4910B5086A401C64
:105200000862B0F5B47F01DB002008620948098C10
:105210001C30018064218170C17000F11701FFF71B
:1052200099FA04483330FFF733FFBDE810403220CD
:1052300000F01AB9340000202DE9F041374B052069
:1052400064221880A3F114049A706089002128B1A7
:10525000142805D2A069C01EA06137E0A261F9E759
:105260002E4DA0F11406143D142EAD690AD2ED1C8A
:10527000A56127282AD1A07818BB0120A0706181E0
:10528000A26123E0254EA0F12805143EB6691E3E1A
:10529000022D0FD3AF1E214D143DAD691E35022FD7
:1052A0000ED3BF1E022F05D3BF1E022F08D3BF1E71
:1052B000022F01D2A66109E0A0F13206022E01D22E
:1052C000A56103E0342801D16181A1706089401C8F
:1052D0006081A069642801DDA26102E0002800DA93
:1052E000A161207E0D49D8701A310C48FFF732FABF
:1052F0000A481A30FFF7CCFE6089282803D200BF85
:105300004FF0640003E006D98007F9D01420BDE80F
:10531000F04100F0A9B8BDE8F0810000480000208D
:105320007CB50025204C00958DF80450214620893D
:1053300009690A2803D2F0B101F1190110E002D184
:105340004FF032001DE0A0F10B02052A04D23239E1
:1053500021610F280FD016E0152803D201F1320188
:10536000216110E00CD0A0F11602092A05D81939E4
:1053700021611F2807D1256105E020380A2802D8BD
:10538000642000F071F82089401C80B220812A2816
:1053900000D32581207C8DF803006846FFF778FE56
:1053A0000A2000F061F87CBD340000207CB50025A7
:1053B000194C00958DF80450A088FF210C2808D2C4
:1053C000C00701D08DF800106846FFF761FE32205B
:1053D00011E0A0F10D020B2A04D2C007F4D08DF821
:1053E0000210F1E70C2802D018280DD005E068461D
:1053F000FFF74EFEC82000F037F8A088182802D228
:10540000A088401CA0807CBD6846FFF741FEC820F4
:1054100000F02AF8A580F3E734000020FCF774F8C8
:10542000FDF703FCFDF718FAFDF756F9FDF7F2FA60
:10543000FDF74EFBFDF78AFAFDF7B2FBFDF7B0FA78
:1054400004A0FDF72DFE00F0B1FFFDF785F900F097
:1054500012F8FEE773746172740D0A0001460020B1
:10546000842900D0C81C704710B500B9012001F094
:10547000BFF8002010BD10B501F06EF9002010BD7E
:10548000002802D0806800F02BB970473EB5044672
:1054900000200090019002902068009060680190C8
:1054A0000C2000F0A9FDA1680028086019D0046054
:1054B00000220421206801F00DFAA1680968486003
:1054C000A168096870B1684600F03FF90100A06862
:1054D00000688160A068006803D100BF00F0EAFFA7
:1054E00000203EBD0846F9E710B1806800F05CB9C5
:1054F000802070472DE9FF410D000646029522D01D
:105500004FF000084446CDF80C80501C20D002B16A
:105510001446FFF7B7F920270028686869461CD0B1
:1055200003AA091D01F002FC012814D0CDF8008067
:105530000398E0B113494FF080500860BFF34F8FDC
:10554000BFF36F8F13E0802000902A46019910E08E
:105550004FF0FF34DDE70097EAE700232246091DFC
:1055600001F0DCF9012808D04CB1402000909DE802
:10557000070086E80700BDE8FF810097F7E70020F5
:10558000F4E7000004ED00E013B582B004000FD092
:1055900000200090FFF776F9002860684FF00003C4
:1055A00014D06A4603A901F063FB012814D102E07C
:1055B000802004B010BD009880B109494FF08050A0
:1055C0000860BFF34F8FBFF36F8F07E0002203A97E
:1055D00001F09EFA012801D0FF20EAE70020E8E769
:1055E00004ED00E003C8002201F074B92DE9FF4189
:1055F0000D004FF00006CDE9016507461ED00024DE
:105600000396501C1FD002B11446FFF73BF96946C0
:105610004FF01008E8B103AA2846091D01F086FBE7
:10562000012813D000960398F0B115494FF080502F
:105630000860BFF34F8FBFF36F8F15E080203146B6
:105640002A46009012E04FF0FF34DEE7CDF80080EC
:10565000E9E7002322462846091D01F05FF90128E9
:1056600008D054B1402000909DE8070087E807006B
:10567000BDE8FF81CDF80080F6E70020F3E70000E9
:1056800004ED00E037B5054682B00020009014001C
:1056900000D10124FFF7F6F84FF0000388B16A4605
:1056A00003A9284601F0E4FA012811D1009890B12D
:1056B0000A494FF080500860BFF34F8FBFF36F8FE0
:1056C00009E0224603A9284601F022FA012802D067
:1056D000FF2005B030BD0020FBE7000004ED00E036
:1056E00070B5002504462E46FFF7CCF848B150208F
:1056F000EFF3118580F31188BFF34F8FBFF36F8FE6
:1057000001E000F0A3FE0021A26808E0206908443F
:10571000824200D8002063681B5C4BB1491C8A425E
:10572000F4D800BFFFF7AEF858B185F311880AE04E
:10573000626801211154E2682168206100FB0216B1
:10574000F0E700F0A3FE304670BD2DE9F0410546BC
:105750004068C01C20F00307142000F04DFC04003A
:105760001FD0002628682661C4E90207286800F0D7
:1057700043FC606088B12868784300F03DFC2060FD
:1057800040B1002002E061680E54401C296881424B
:10579000F9D806E0606800F08DFE204600F08AFE31
:1057A00000242046BDE8F08178B171B102688A42D8
:1057B0000BD8891AC268B1FBF2F302FB131323B9A9
:1057C000B1FBF2F182688A4201D8802070474068BC
:1057D000002242541046704710B501F057FB0128D3
:1057E00003D0BDE8104001F05FB810BD3EB50446DF
:1057F0000D46B0F90800FFF731FE02A9CDE900011E
:10580000208A2B4682B2D4E9001001F013FB012854
:1058100001D000203EBD02983EBD000008B50068E2
:105820000090012907D0002013460246012103A061
:1058300001F08CFC08BD0120F6E70000000000002C
:105840002DE9FC41002507462E4601950C0000D1AC
:105850000124FFF717F8009690B101AB2246092109
:10586000384601F0BFFC012812D1019888B10A49DD
:105870004FF080500860BFF34F8FBFF36F8F08E089
:10588000002322460421384601F0ACFC012800D058
:10589000FF252846BDE8FC8104ED00E07CB500252D
:1058A00006462C460195FEF7EDFF0094A0B101AB32
:1058B00000220821304601F095FC012801D0FF208C
:1058C0007CBD019888B10A494FF080500860BFF351
:1058D0004F8FBFF36F8F08E000231A460321304635
:1058E00001F080FC012800D0FF2528467CBD000087
:1058F00004ED00E02DE9F041184C0F460546E6683E
:105900002068001D00F05EFD38B9206890F82C106A
:1059100001208840216981432161681C07D137B18A
:105920002168BDE8F0410E48091D00F083BD2068E4
:105930003544B5424560216805D2A06BBDE8F04111
:10594000091D00F05FBD606B091D00F05BFDA06AE2
:10595000854200D2A562BDE8F0810000E800002089
:10596000483100202DE9F041054600F06FFD2E4C36
:10597000A068401CA06020682C4F10B1606940B343
:105980002DE02560A068012829D1002606EB8600BD
:1059900007EB800000F028FD761C072EF6D3234885
:1059A0008C3000F021FD2148A03000F01DFD1F4883
:1059B000B43000F019FD1D48C83000F015FD1B483B
:1059C000DC3000F011FD19488C3060631430A063A6
:1059D00005E02068E96AC06A884200D82560606AEC
:1059E000401C6062E96A01202269884010432061FE
:1059F00001EB810007EB8000291D00F01BFD00F08A
:105A000045FD606900280CD02068E96AC06A8842B8
:105A100007D207494FF080500860BFF34F8FBFF3A4
:105A20006F8FBDE8F0810000E80000206C3000209E
:105A300004ED00E010B500F009FD0E4C2068A0B99F
:105A40000D4800F0D1FC0C48143000F0CDFC0A48A1
:105A5000E0601430206100220C210A2000F03AFF9F
:105A6000206010B105A100F08DFDBDE8104000F0F0
:105A70000DBD0000240100205C310020546D7251E6
:105A80000000000070B5114E114C17E000F09CFEB4
:105A90003068B8B101F0F8FA00F0D8FCF068C568D9
:105AA000281D00F08FFCA068401EA0606068401EAA
:105AB000606000F0EBFC284600F055F860680028B4
:105AC000E4D170BD01F0E0FAF8E7000034310020C5
:105AD000E800002030B4026C0B46002A0BD0C168ED
